{
  "contractName": "Company_Con",
  "abi": [
    {
      "constant": true,
      "inputs": [
        {
          "internalType": "bytes32",
          "name": "",
          "type": "bytes32"
        }
      ],
      "name": "products",
      "outputs": [
        {
          "internalType": "uint256",
          "name": "id",
          "type": "uint256"
        },
        {
          "internalType": "string",
          "name": "name",
          "type": "string"
        },
        {
          "internalType": "string",
          "name": "description",
          "type": "string"
        },
        {
          "internalType": "string",
          "name": "companyName",
          "type": "string"
        },
        {
          "internalType": "string",
          "name": "imageLink",
          "type": "string"
        }
      ],
      "payable": false,
      "stateMutability": "view",
      "type": "function"
    },
    {
      "constant": true,
      "inputs": [
        {
          "internalType": "uint256",
          "name": "",
          "type": "uint256"
        }
      ],
      "name": "reports",
      "outputs": [
        {
          "internalType": "uint256",
          "name": "id",
          "type": "uint256"
        },
        {
          "internalType": "string",
          "name": "message",
          "type": "string"
        },
        {
          "internalType": "string",
          "name": "companyName",
          "type": "string"
        }
      ],
      "payable": false,
      "stateMutability": "view",
      "type": "function"
    },
    {
      "constant": false,
      "inputs": [
        {
          "internalType": "address",
          "name": "_compaddress",
          "type": "address"
        },
        {
          "internalType": "string",
          "name": "_name",
          "type": "string"
        },
        {
          "internalType": "string",
          "name": "_email",
          "type": "string"
        },
        {
          "internalType": "string",
          "name": "_password",
          "type": "string"
        },
        {
          "internalType": "uint256",
          "name": "_cert_num",
          "type": "uint256"
        }
      ],
      "name": "register_Company",
      "outputs": [],
      "payable": false,
      "stateMutability": "nonpayable",
      "type": "function"
    },
    {
      "constant": true,
      "inputs": [
        {
          "internalType": "address",
          "name": "company_add",
          "type": "address"
        },
        {
          "internalType": "string",
          "name": "_name",
          "type": "string"
        },
        {
          "internalType": "string",
          "name": "_password",
          "type": "string"
        }
      ],
      "name": "login_company",
      "outputs": [
        {
          "internalType": "bool",
          "name": "found",
          "type": "bool"
        }
      ],
      "payable": false,
      "stateMutability": "view",
      "type": "function"
    },
    {
      "constant": false,
      "inputs": [
        {
          "internalType": "uint256",
          "name": "_id",
          "type": "uint256"
        },
        {
          "internalType": "string",
          "name": "_name",
          "type": "string"
        },
        {
          "internalType": "string",
          "name": "_description",
          "type": "string"
        },
        {
          "internalType": "string",
          "name": "_companyName",
          "type": "string"
        },
        {
          "internalType": "string",
          "name": "_imageLink",
          "type": "string"
        }
      ],
      "name": "upload_Product",
      "outputs": [],
      "payable": false,
      "stateMutability": "nonpayable",
      "type": "function"
    },
    {
      "constant": true,
      "inputs": [
        {
          "internalType": "bytes32",
          "name": "product_add",
          "type": "bytes32"
        }
      ],
      "name": "get_product",
      "outputs": [
        {
          "components": [
            {
              "internalType": "uint256",
              "name": "id",
              "type": "uint256"
            },
            {
              "internalType": "string",
              "name": "name",
              "type": "string"
            },
            {
              "internalType": "string",
              "name": "description",
              "type": "string"
            },
            {
              "internalType": "string",
              "name": "companyName",
              "type": "string"
            },
            {
              "internalType": "string",
              "name": "imageLink",
              "type": "string"
            }
          ],
          "internalType": "struct Company_Con.Product",
          "name": "Prod",
          "type": "tuple"
        }
      ],
      "payable": false,
      "stateMutability": "view",
      "type": "function"
    },
    {
      "constant": false,
      "inputs": [
        {
          "internalType": "uint256",
          "name": "_id",
          "type": "uint256"
        },
        {
          "internalType": "string",
          "name": "_message",
          "type": "string"
        },
        {
          "internalType": "string",
          "name": "_companyName",
          "type": "string"
        }
      ],
      "name": "receive_report",
      "outputs": [],
      "payable": false,
      "stateMutability": "nonpayable",
      "type": "function"
    },
    {
      "constant": true,
      "inputs": [
        {
          "internalType": "uint256",
          "name": "report_id",
          "type": "uint256"
        }
      ],
      "name": "get_report",
      "outputs": [
        {
          "components": [
            {
              "internalType": "uint256",
              "name": "id",
              "type": "uint256"
            },
            {
              "internalType": "string",
              "name": "message",
              "type": "string"
            },
            {
              "internalType": "string",
              "name": "companyName",
              "type": "string"
            }
          ],
          "internalType": "struct Company_Con.Report",
          "name": "rep",
          "type": "tuple"
        }
      ],
      "payable": false,
      "stateMutability": "view",
      "type": "function"
    }
  ],
  "bytecode": "0x608060405234801561001057600080fd5b5061182f806100206000396000f3fe608060405234801561001057600080fd5b50600436106100885760003560e01c8063790543911161005b57806379054391146101115780638ace7b9b14610145578063c942adf714610175578063d30196a3146101a757610088565b80630787d3271461008d578063133af958146100a95780631876c6c3146100c55780631ee6851c146100e1575b600080fd5b6100a760048036036100a29190810190611238565b6101d7565b005b6100c360048036036100be9190810190611127565b610261565b005b6100df60048036036100da91908101906112b7565b61032b565b005b6100fb60048036036100f691908101906111e6565b61043b565b604051610108919061152a565b60405180910390f35b61012b600480360361012691908101906111e6565b6106fa565b60405161013c95949392919061160d565b60405180910390f35b61015f600480360361015a91908101906110a8565b610990565b60405161016c919061150f565b60405180910390f35b61018f600480360361018a919081019061120f565b610c23565b60405161019e9392919061156e565b60405180910390f35b6101c160048036036101bc919081019061120f565b610d7d565b6040516101ce919061154c565b60405180910390f35b6101df610ef8565b604051806060016040528085815260200184815260200183815250905080600260008360000151815260200190815260200160002060008201518160000155602082015181600101908051906020019061023a929190610f19565b506040820151816002019080519060200190610257929190610f19565b5090505050505050565b6040518060800160405280858152602001848152602001838152602001828152506000808773ffffffffffffffffffffffffffffffffffffffff1673ffffffffffffffffffffffffffffffffffffffff16815260200190815260200160002060008201518160000190805190602001906102dc929190610f19565b5060208201518160010190805190602001906102f9929190610f19565b506040820151816002019080519060200190610316929190610f19565b50606082015181600301559050505050505050565b610333610f99565b6040518060a001604052808781526020018681526020018581526020018481526020018381525090506000816000015182602001518360400151846060015160405160200161038594939291906115b3565b60405160208183030381529060405280519060200120905081600160008381526020019081526020016000206000820151816000015560208201518160010190805190602001906103d7929190610f19565b5060408201518160020190805190602001906103f4929190610f19565b506060820151816003019080519060200190610411929190610f19565b50608082015181600401908051906020019061042e929190610f19565b5090505050505050505050565b610443610f99565b600160008381526020019081526020016000206040518060a001604052908160008201548152602001600182018054600181600116156101000203166002900480601f0160208091040260200160405190810160405280929190818152602001828054600181600116156101000203166002900480156105045780601f106104d957610100808354040283529160200191610504565b820191906000526020600020905b8154815290600101906020018083116104e757829003601f168201915b50505050508152602001600282018054600181600116156101000203166002900480601f0160208091040260200160405190810160405280929190818152602001828054600181600116156101000203166002900480156105a65780601f1061057b576101008083540402835291602001916105a6565b820191906000526020600020905b81548152906001019060200180831161058957829003601f168201915b50505050508152602001600382018054600181600116156101000203166002900480601f0160208091040260200160405190810160405280929190818152602001828054600181600116156101000203166002900480156106485780601f1061061d57610100808354040283529160200191610648565b820191906000526020600020905b81548152906001019060200180831161062b57829003601f168201915b50505050508152602001600482018054600181600116156101000203166002900480601f0160208091040260200160405190810160405280929190818152602001828054600181600116156101000203166002900480156106ea5780601f106106bf576101008083540402835291602001916106ea565b820191906000526020600020905b8154815290600101906020018083116106cd57829003601f168201915b5050505050815250509050919050565b6001602052806000526040600020600091509050806000015490806001018054600181600116156101000203166002900480601f0160208091040260200160405190810160405280929190818152602001828054600181600116156101000203166002900480156107ac5780601f10610781576101008083540402835291602001916107ac565b820191906000526020600020905b81548152906001019060200180831161078f57829003601f168201915b505050505090806002018054600181600116156101000203166002900480601f01602080910402602001604051908101604052809291908181526020018280546001816001161561010002031660029004801561084a5780601f1061081f5761010080835404028352916020019161084a565b820191906000526020600020905b81548152906001019060200180831161082d57829003601f168201915b505050505090806003018054600181600116156101000203166002900480601f0160208091040260200160405190810160405280929190818152602001828054600181600116156101000203166002900480156108e85780601f106108bd576101008083540402835291602001916108e8565b820191906000526020600020905b8154815290600101906020018083116108cb57829003601f168201915b505050505090806004018054600181600116156101000203166002900480601f0160208091040260200160405190810160405280929190818152602001828054600181600116156101000203166002900480156109865780601f1061095b57610100808354040283529160200191610986565b820191906000526020600020905b81548152906001019060200180831161096957829003601f168201915b5050505050905085565b600061099a610fc8565b6000808673ffffffffffffffffffffffffffffffffffffffff1673ffffffffffffffffffffffffffffffffffffffff168152602001908152602001600020604051806080016040529081600082018054600181600116156101000203166002900480601f016020809104026020016040519081016040528092919081815260200182805460018160011615610100020316600290048015610a7c5780601f10610a5157610100808354040283529160200191610a7c565b820191906000526020600020905b815481529060010190602001808311610a5f57829003601f168201915b50505050508152602001600182018054600181600116156101000203166002900480601f016020809104026020016040519081016040528092919081815260200182805460018160011615610100020316600290048015610b1e5780601f10610af357610100808354040283529160200191610b1e565b820191906000526020600020905b815481529060010190602001808311610b0157829003601f168201915b50505050508152602001600282018054600181600116156101000203166002900480601f016020809104026020016040519081016040528092919081815260200182805460018160011615610100020316600290048015610bc05780601f10610b9557610100808354040283529160200191610bc0565b820191906000526020600020905b815481529060010190602001808311610ba357829003601f168201915b5050505050815260200160038201548152505090508380519060200120816000015180519060200120148015610c0757508280519060200120816040015180519060200120145b15610c16576001915050610c1c565b60009150505b9392505050565b6002602052806000526040600020600091509050806000015490806001018054600181600116156101000203166002900480601f016020809104026020016040519081016040528092919081815260200182805460018160011615610100020316600290048015610cd55780601f10610caa57610100808354040283529160200191610cd5565b820191906000526020600020905b815481529060010190602001808311610cb857829003601f168201915b505050505090806002018054600181600116156101000203166002900480601f016020809104026020016040519081016040528092919081815260200182805460018160011615610100020316600290048015610d735780601f10610d4857610100808354040283529160200191610d73565b820191906000526020600020905b815481529060010190602001808311610d5657829003601f168201915b5050505050905083565b610d85610ef8565b6002600083815260200190815260200160002060405180606001604052908160008201548152602001600182018054600181600116156101000203166002900480601f016020809104026020016040519081016040528092919081815260200182805460018160011615610100020316600290048015610e465780601f10610e1b57610100808354040283529160200191610e46565b820191906000526020600020905b815481529060010190602001808311610e2957829003601f168201915b50505050508152602001600282018054600181600116156101000203166002900480601f016020809104026020016040519081016040528092919081815260200182805460018160011615610100020316600290048015610ee85780601f10610ebd57610100808354040283529160200191610ee8565b820191906000526020600020905b815481529060010190602001808311610ecb57829003601f168201915b5050505050815250509050919050565b60405180606001604052806000815260200160608152602001606081525090565b828054600181600116156101000203166002900490600052602060002090601f016020900481019282601f10610f5a57805160ff1916838001178555610f88565b82800160010185558215610f88579182015b82811115610f87578251825591602001919060010190610f6c565b5b509050610f959190610ff0565b5090565b6040518060a0016040528060008152602001606081526020016060815260200160608152602001606081525090565b6040518060800160405280606081526020016060815260200160608152602001600081525090565b61101291905b8082111561100e576000816000905550600101610ff6565b5090565b90565b600081359050611024816117a7565b92915050565b600081359050611039816117be565b92915050565b600082601f83011261105057600080fd5b813561106361105e826116a9565b61167c565b9150808252602083016020830185838301111561107f57600080fd5b61108a838284611754565b50505092915050565b6000813590506110a2816117d5565b92915050565b6000806000606084860312156110bd57600080fd5b60006110cb86828701611015565b935050602084013567ffffffffffffffff8111156110e857600080fd5b6110f48682870161103f565b925050604084013567ffffffffffffffff81111561111157600080fd5b61111d8682870161103f565b9150509250925092565b600080600080600060a0868803121561113f57600080fd5b600061114d88828901611015565b955050602086013567ffffffffffffffff81111561116a57600080fd5b6111768882890161103f565b945050604086013567ffffffffffffffff81111561119357600080fd5b61119f8882890161103f565b935050606086013567ffffffffffffffff8111156111bc57600080fd5b6111c88882890161103f565b92505060806111d988828901611093565b9150509295509295909350565b6000602082840312156111f857600080fd5b60006112068482850161102a565b91505092915050565b60006020828403121561122157600080fd5b600061122f84828501611093565b91505092915050565b60008060006060848603121561124d57600080fd5b600061125b86828701611093565b935050602084013567ffffffffffffffff81111561127857600080fd5b6112848682870161103f565b925050604084013567ffffffffffffffff8111156112a157600080fd5b6112ad8682870161103f565b9150509250925092565b600080600080600060a086880312156112cf57600080fd5b60006112dd88828901611093565b955050602086013567ffffffffffffffff8111156112fa57600080fd5b6113068882890161103f565b945050604086013567ffffffffffffffff81111561132357600080fd5b61132f8882890161103f565b935050606086013567ffffffffffffffff81111561134c57600080fd5b6113588882890161103f565b925050608086013567ffffffffffffffff81111561137557600080fd5b6113818882890161103f565b9150509295509295909350565b61139781611714565b82525050565b60006113a8826116d5565b6113b281856116e0565b93506113c2818560208601611763565b6113cb81611796565b840191505092915050565b60006113e1826116d5565b6113eb81856116f1565b93506113fb818560208601611763565b61140481611796565b840191505092915050565b600060a08301600083015161142760008601826114f1565b506020830151848203602086015261143f828261139d565b91505060408301518482036040860152611459828261139d565b91505060608301518482036060860152611473828261139d565b9150506080830151848203608086015261148d828261139d565b9150508091505092915050565b60006060830160008301516114b260008601826114f1565b50602083015184820360208601526114ca828261139d565b915050604083015184820360408601526114e4828261139d565b9150508091505092915050565b6114fa8161174a565b82525050565b6115098161174a565b82525050565b6000602082019050611524600083018461138e565b92915050565b60006020820190508181036000830152611544818461140f565b905092915050565b60006020820190508181036000830152611566818461149a565b905092915050565b60006060820190506115836000830186611500565b818103602083015261159581856113d6565b905081810360408301526115a981846113d6565b9050949350505050565b60006080820190506115c86000830187611500565b81810360208301526115da81866113d6565b905081810360408301526115ee81856113d6565b9050818103606083015261160281846113d6565b905095945050505050565b600060a0820190506116226000830188611500565b818103602083015261163481876113d6565b9050818103604083015261164881866113d6565b9050818103606083015261165c81856113d6565b9050818103608083015261167081846113d6565b90509695505050505050565b6000604051905081810181811067ffffffffffffffff8211171561169f57600080fd5b8060405250919050565b600067ffffffffffffffff8211156116c057600080fd5b601f19601f8301169050602081019050919050565b600081519050919050565b600082825260208201905092915050565b600082825260208201905092915050565b600061170d8261172a565b9050919050565b60008115159050919050565b6000819050919050565b600073ffffffffffffffffffffffffffffffffffffffff82169050919050565b6000819050919050565b82818337600083830152505050565b60005b83811015611781578082015181840152602081019050611766565b83811115611790576000848401525b50505050565b6000601f19601f8301169050919050565b6117b081611702565b81146117bb57600080fd5b50565b6117c781611720565b81146117d257600080fd5b50565b6117de8161174a565b81146117e957600080fd5b5056fea365627a7a723158202d45fae0beee42f7a94e9a61fe676b54b763fc0a6054a75ddba144c79bbfcfef6c6578706572696d656e74616cf564736f6c63430005100040",
  "source": "// SPDX-License-Identifier: MIT\r\npragma experimental ABIEncoderV2;\r\npragma solidity >=0.4.17<0.9.0;\r\n\r\n// Company Smart Contract\r\ncontract Company_Con {\r\n    // Company Information (Certificate Number for Identity Management)\r\n    struct Company {\r\n        string name;\r\n        string email;\r\n        string password;\r\n        uint256 certificate_num;\r\n    }\r\n    // Product Information (Image Link not the Actual Image Bytes)\r\n    // Company Name for Filteration\r\n    struct Product {\r\n        uint id;\r\n        string name;\r\n        string description;\r\n        string companyName;\r\n        string imageLink;\r\n    }\r\n    // Reprot Information (Company Name for Filteration)\r\n    struct Report {\r\n        uint id;\r\n        string message;\r\n        string companyName;\r\n    }\r\n\r\n    // Map MetaMask Account with the Company Object\r\n    mapping(address => Company) companies;\r\n    // Map Product Hash with the Product Object\r\n    mapping(bytes32 => Product) public products;\r\n    // Map the Report Id with the Report Object\r\n    mapping(uint => Report) public reports;\r\n\r\n    // Register a Company Using It's Address\r\n    function register_Company(address _compaddress, string memory _name, string memory _email, string memory _password, uint256 _cert_num) public {\r\n        companies[_compaddress] = Company(_name, _email, _password, _cert_num);\r\n    }\r\n\r\n    // Login a company Using It's Address\r\n    function login_company(address company_add, string memory _name, string memory _password) public view returns (bool found) {\r\n        Company memory company = companies[company_add];\r\n        // Compare company name and password using keccak256\r\n        if (keccak256(bytes(company.name)) == keccak256(bytes(_name)) && keccak256(bytes(company.password)) == keccak256(bytes(_password)))\r\n            return true;\r\n        else\r\n            return false;\r\n    }\r\n\r\n    // Upload a Product & Calculate It's Hash\r\n    function upload_Product(uint _id, string memory _name, string memory _description, string memory _companyName, string memory _imageLink) public {\r\n        Product memory p = Product(_id, _name, _description, _companyName, _imageLink);\r\n        // Encoding Using the Four Attributes (Image Link Not Included)\r\n        bytes32 p_hashed = keccak256(abi.encode(p.id, p.name, p.description, p.companyName));\r\n        products[p_hashed] = p;\r\n    }\r\n\r\n    // Get a Product by its Hash\r\n    function get_product(bytes32 product_add) external view returns (Product memory Prod) {\r\n        return products[product_add];\r\n    }\r\n\r\n    // Receive a Report & Store it in the Mapping\r\n    function receive_report(uint _id, string memory _message, string memory _companyName) public {\r\n        Report memory r = Report(_id, _message, _companyName);\r\n        reports[r.id] = r;\r\n    }\r\n\r\n    // Get a Report by its ID (Need Modifications)\r\n    function get_report(uint report_id) external view returns (Report memory rep) {\r\n        return reports[report_id];\r\n    }\r\n}\r\n\r\n// User Samrt Contract\r\ncontract User_Con {\r\n    // User Information for Logging In\r\n    struct User {\r\n        string name;\r\n        string email;\r\n        string password;\r\n    }\r\n\r\n    // Defining an Object from the Company Smart Contract\r\n    Company_Con public _company;\r\n    // Map MetaMask Address to the User Obeject\r\n    mapping(address => User) users;\r\n\r\n    // Register a User Using It's Address\r\n    function register_User(address _useraddress, string memory _name, string memory _email, string memory _password) public {\r\n        users[_useraddress] = User(_name, _email, _password);\r\n    }\r\n\r\n    // Login a User Using It's Address\r\n    function login_user(address user_add, string memory _name, string memory _password) public view returns (bool found) {\r\n        User memory user = users[user_add];\r\n        // Compare user name and password using keccak256\r\n        if (keccak256(bytes(user.name)) == keccak256(bytes(_name)) && keccak256(bytes(user.password)) == keccak256(bytes(_password)))\r\n            return true;\r\n        else\r\n            return false;\r\n    }\r\n\r\n    // Verify a product and return its attributes or null values if not found\r\n    function verify_product(bytes32 product_add) external view returns (uint, string memory, string memory, string memory, string memory) {\r\n        // Get the product using the Company_Con contract's get_product function\r\n        Company_Con.Product memory product = _company.get_product(product_add);\r\n        \r\n        // Check if the product exists\r\n        if (product.id == 0) {\r\n            // Return null values if the product does not exist\r\n            return (0, \"\", \"\", \"\", \"\");\r\n        }\r\n        else {\r\n            // Return the product attributes if the product exists\r\n            return (product.id, product.name, product.description, product.companyName, product.imageLink);\r\n        }\r\n    }\r\n}\r\n",
  "sourcePath": "C:\\Users\\MSI-PC\\Desktop\\Fake-Product-Detection-master\\contracts\\System.sol",
  "compiler": {
    "name": "solc",
    "version": "0.5.16+commit.9c3226ce.Emscripten.clang"
  },
  "schemaVersion": "3.4.13",
  "updatedAt": "2023-06-28T15:48:27.393Z",
  "devdoc": {
    "methods": {}
  },
  "userdoc": {
    "methods": {}
  }
}