{
  "contractName": "System",
  "abi": [
    {
      "constant": false,
      "inputs": [
        {
          "internalType": "string",
          "name": "_useraddress",
          "type": "string"
        },
        {
          "internalType": "string",
          "name": "_name",
          "type": "string"
        },
        {
          "internalType": "string",
          "name": "_email",
          "type": "string"
        },
        {
          "internalType": "string",
          "name": "_password",
          "type": "string"
        }
      ],
      "name": "register_User",
      "outputs": [],
      "payable": false,
      "stateMutability": "nonpayable",
      "type": "function"
    },
    {
      "constant": false,
      "inputs": [
        {
          "internalType": "address",
          "name": "_compaddress",
          "type": "address"
        },
        {
          "internalType": "string",
          "name": "_name",
          "type": "string"
        },
        {
          "internalType": "string",
          "name": "_email",
          "type": "string"
        },
        {
          "internalType": "string",
          "name": "_password",
          "type": "string"
        },
        {
          "internalType": "uint256",
          "name": "_cert_num",
          "type": "uint256"
        }
      ],
      "name": "register_Company",
      "outputs": [],
      "payable": false,
      "stateMutability": "nonpayable",
      "type": "function"
    },
    {
      "constant": true,
      "inputs": [
        {
          "internalType": "string",
          "name": "user_add",
          "type": "string"
        },
        {
          "internalType": "string",
          "name": "_name",
          "type": "string"
        },
        {
          "internalType": "string",
          "name": "_password",
          "type": "string"
        }
      ],
      "name": "login_user",
      "outputs": [
        {
          "internalType": "bool",
          "name": "found",
          "type": "bool"
        }
      ],
      "payable": false,
      "stateMutability": "view",
      "type": "function"
    },
    {
      "constant": true,
      "inputs": [
        {
          "internalType": "address",
          "name": "company_add",
          "type": "address"
        },
        {
          "internalType": "string",
          "name": "_name",
          "type": "string"
        },
        {
          "internalType": "string",
          "name": "_password",
          "type": "string"
        }
      ],
      "name": "login_company",
      "outputs": [
        {
          "internalType": "bool",
          "name": "found",
          "type": "bool"
        }
      ],
      "payable": false,
      "stateMutability": "view",
      "type": "function"
    },
    {
      "constant": false,
      "inputs": [
        {
          "components": [
            {
              "internalType": "uint256",
              "name": "id",
              "type": "uint256"
            },
            {
              "internalType": "string",
              "name": "name",
              "type": "string"
            },
            {
              "internalType": "string",
              "name": "model",
              "type": "string"
            },
            {
              "internalType": "string",
              "name": "description",
              "type": "string"
            },
            {
              "internalType": "string",
              "name": "companyName",
              "type": "string"
            },
            {
              "internalType": "string",
              "name": "imageLink",
              "type": "string"
            }
          ],
          "internalType": "struct System.Product[]",
          "name": "_products",
          "type": "tuple[]"
        }
      ],
      "name": "upload_Products",
      "outputs": [
        {
          "internalType": "bytes32[]",
          "name": "hashedArray",
          "type": "bytes32[]"
        }
      ],
      "payable": false,
      "stateMutability": "nonpayable",
      "type": "function"
    },
    {
      "constant": true,
      "inputs": [
        {
          "internalType": "string",
          "name": "Company_name",
          "type": "string"
        }
      ],
      "name": "retrieve_company_products",
      "outputs": [
        {
          "components": [
            {
              "internalType": "uint256",
              "name": "id",
              "type": "uint256"
            },
            {
              "internalType": "string",
              "name": "name",
              "type": "string"
            },
            {
              "internalType": "string",
              "name": "model",
              "type": "string"
            },
            {
              "internalType": "string",
              "name": "description",
              "type": "string"
            },
            {
              "internalType": "string",
              "name": "companyName",
              "type": "string"
            },
            {
              "internalType": "string",
              "name": "imageLink",
              "type": "string"
            }
          ],
          "internalType": "struct System.Product[]",
          "name": "products_array",
          "type": "tuple[]"
        }
      ],
      "payable": false,
      "stateMutability": "view",
      "type": "function"
    },
    {
      "constant": true,
      "inputs": [
        {
          "internalType": "bytes32",
          "name": "product_add",
          "type": "bytes32"
        }
      ],
      "name": "verify_product",
      "outputs": [
        {
          "internalType": "uint256",
          "name": "",
          "type": "uint256"
        },
        {
          "internalType": "string",
          "name": "",
          "type": "string"
        },
        {
          "internalType": "string",
          "name": "",
          "type": "string"
        },
        {
          "internalType": "string",
          "name": "",
          "type": "string"
        },
        {
          "internalType": "string",
          "name": "",
          "type": "string"
        },
        {
          "internalType": "string",
          "name": "",
          "type": "string"
        }
      ],
      "payable": false,
      "stateMutability": "view",
      "type": "function"
    },
    {
      "constant": false,
      "inputs": [
        {
          "internalType": "string",
          "name": "location",
          "type": "string"
        },
        {
          "internalType": "string",
          "name": "description",
          "type": "string"
        },
        {
          "internalType": "string",
          "name": "companyname",
          "type": "string"
        }
      ],
      "name": "send_report",
      "outputs": [],
      "payable": false,
      "stateMutability": "nonpayable",
      "type": "function"
    },
    {
      "constant": true,
      "inputs": [],
      "name": "get_companies_names",
      "outputs": [
        {
          "internalType": "string[]",
          "name": "",
          "type": "string[]"
        }
      ],
      "payable": false,
      "stateMutability": "view",
      "type": "function"
    },
    {
      "constant": true,
      "inputs": [
        {
          "internalType": "string",
          "name": "company_name",
          "type": "string"
        }
      ],
      "name": "get_function_report",
      "outputs": [
        {
          "components": [
            {
              "internalType": "string",
              "name": "Location",
              "type": "string"
            },
            {
              "internalType": "string",
              "name": "description",
              "type": "string"
            }
          ],
          "internalType": "struct System.Report[]",
          "name": "",
          "type": "tuple[]"
        }
      ],
      "payable": false,
      "stateMutability": "view",
      "type": "function"
    },
    {
      "constant": false,
      "inputs": [
        {
          "internalType": "string",
          "name": "companyname",
          "type": "string"
        },
        {
          "internalType": "uint256",
          "name": "index",
          "type": "uint256"
        }
      ],
      "name": "deleteReport",
      "outputs": [],
      "payable": false,
      "stateMutability": "nonpayable",
      "type": "function"
    },
    {
      "constant": false,
      "inputs": [
        {
          "internalType": "string",
          "name": "companyname",
          "type": "string"
        }
      ],
      "name": "delete_allReport",
      "outputs": [],
      "payable": false,
      "stateMutability": "nonpayable",
      "type": "function"
    },
    {
      "constant": false,
      "inputs": [
        {
          "internalType": "string",
          "name": "companyname",
          "type": "string"
        },
        {
          "internalType": "string",
          "name": "model",
          "type": "string"
        }
      ],
      "name": "deleteProductByModel",
      "outputs": [],
      "payable": false,
      "stateMutability": "nonpayable",
      "type": "function"
    }
  ],
  "bytecode": "0x608060405234801561001057600080fd5b50613304806100206000396000f3fe608060405234801561001057600080fd5b50600436106100cf5760003560e01c8063a6524d761161008c578063c25d2c9311610066578063c25d2c9314610213578063ce2aae3414610243578063d23c91f51461025f578063f08726081461028f576100cf565b8063a6524d7614610192578063a91dd135146101ae578063af87729e146101de576100cf565b8063133af958146100d45780631d3be9bf146100f05780634b52084d1461010c57806374139a16146101285780638ace7b9b14610144578063950081a814610174575b600080fd5b6100ee60048036036100e991908101906124fe565b6102bf565b005b61010a60048036036101059190810190612627565b6103f0565b005b61012660048036036101219190810190612668565b6104b7565b005b610142600480360361013d91908101906126d4565b61083c565b005b61015e6004803603610159919081019061247f565b6108e8565b60405161016b9190612ea0565b60405180910390f35b61017c610b7c565b6040516101899190612e3a565b60405180910390f35b6101ac60048036036101a7919081019061282e565b610d0e565b005b6101c860048036036101c391908101906125bd565b610f54565b6040516101d59190612e18565b60405180910390f35b6101f860048036036101f391908101906125fe565b61112e565b60405161020a96959493929190612efb565b60405180910390f35b61022d60048036036102289190810190612627565b61154c565b60405161023a9190612e5c565b60405180910390f35b61025d6004803603610258919081019061276b565b611658565b005b610279600480360361027491908101906126d4565b6116f1565b6040516102869190612ea0565b60405180910390f35b6102a960048036036102a49190810190612627565b61195a565b6040516102b69190612e7e565b60405180910390f35b604051806080016040528085815260200184815260200183815260200182815250600160008773ffffffffffffffffffffffffffffffffffffffff1673ffffffffffffffffffffffffffffffffffffffff168152602001908152602001600020600082015181600001908051906020019061033b929190611f6a565b506020820151816001019080519060200190610358929190611f6a565b506040820151816002019080519060200190610375929190611f6a565b506060820151816003015590505060028590806001815401808255809150509060018203906000526020600020016000909192909190916101000a81548173ffffffffffffffffffffffffffffffffffffffff021916908373ffffffffffffffffffffffffffffffffffffffff160217905550505050505050565b6000600160003373ffffffffffffffffffffffffffffffffffffffff1673ffffffffffffffffffffffffffffffffffffffff168152602001908152602001600020600001805460018160011615610100020316600290049050141561048a576040517f08c379a000000000000000000000000000000000000000000000000000000000815260040161048190612edb565b60405180910390fd5b60058160405161049a9190612dea565b908152602001604051809103902060006104b49190611fea565b50565b60606004836040516104c99190612dea565b9081526020016040518091039020805490506040519080825280602002602001820160405280156105095781602001602082028038833980820191505090505b509050600080905060008090505b6004856040516105279190612dea565b9081526020016040518091039020805490508110156106115760006004866040516105529190612dea565b9081526020016040518091039020828154811061056b57fe5b90600052602060002001549050846040516020016105899190612dea565b60405160208183030381529060405280519060200120600360008381526020019081526020016000206002016040516020016105c59190612e01565b60405160208183030381529060405280519060200120141561060357808484815181106105ee57fe5b60200260200101818152505082806001019350505b508080600101915050610517565b5060008090505b81811015610835576003600084838151811061063057fe5b6020026020010151815260200190815260200160002060008082016000905560018201600061065f919061200e565b60028201600061066f919061200e565b60038201600061067f919061200e565b60048201600061068f919061200e565b60058201600061069f919061200e565b5050600061072c6004876040516106b69190612dea565b908152602001604051809103902080548060200260200160405190810160405280929190818152602001828054801561070e57602002820191906000526020600020905b8154815260200190600101908083116106fa575b505050505085848151811061071f57fe5b6020026020010151611bbb565b905060016004876040516107409190612dea565b908152602001604051809103902080549050038110156107ea5760048660405161076a9190612dea565b9081526020016040518091039020600160048860405161078a9190612dea565b90815260200160405180910390208054905003815481106107a757fe5b90600052602060002001546004876040516107c29190612dea565b908152602001604051809103902082815481106107db57fe5b90600052602060002001819055505b6004866040516107fa9190612dea565b908152602001604051809103902080548061081157fe5b60019003818190600052602060002001600090559055508080600101915050610618565b5050505050565b610844612056565b604051806040016040528085815260200184815250905060058260405161086b9190612dea565b9081526020016040518091039020819080600181540180825580915050906001820390600052602060002090600202016000909192909190915060008201518160000190805190602001906108c1929190611f6a565b5060208201518160010190805190602001906108de929190611f6a565b5050505050505050565b60006108f2612070565b600160008673ffffffffffffffffffffffffffffffffffffffff1673ffffffffffffffffffffffffffffffffffffffff168152602001908152602001600020604051806080016040529081600082018054600181600116156101000203166002900480601f0160208091040260200160405190810160405280929190818152602001828054600181600116156101000203166002900480156109d55780601f106109aa576101008083540402835291602001916109d5565b820191906000526020600020905b8154815290600101906020018083116109b857829003601f168201915b50505050508152602001600182018054600181600116156101000203166002900480601f016020809104026020016040519081016040528092919081815260200182805460018160011615610100020316600290048015610a775780601f10610a4c57610100808354040283529160200191610a77565b820191906000526020600020905b815481529060010190602001808311610a5a57829003601f168201915b50505050508152602001600282018054600181600116156101000203166002900480601f016020809104026020016040519081016040528092919081815260200182805460018160011615610100020316600290048015610b195780601f10610aee57610100808354040283529160200191610b19565b820191906000526020600020905b815481529060010190602001808311610afc57829003601f168201915b5050505050815260200160038201548152505090508380519060200120816000015180519060200120148015610b6057508280519060200120816040015180519060200120145b15610b6f576001915050610b75565b60009150505b9392505050565b606060006002805490509050606081604051908082528060200260200182016040528015610bbe57816020015b6060815260200190600190039081610ba95790505b50905060008090505b82811015610d05576001600060028381548110610be057fe5b9060005260206000200160009054906101000a900473ffffffffffffffffffffffffffffffffffffffff1673ffffffffffffffffffffffffffffffffffffffff1673ffffffffffffffffffffffffffffffffffffffff1681526020019081526020016000206000018054600181600116156101000203166002900480601f016020809104026020016040519081016040528092919081815260200182805460018160011615610100020316600290048015610cdc5780601f10610cb157610100808354040283529160200191610cdc565b820191906000526020600020905b815481529060010190602001808311610cbf57829003601f168201915b5050505050828281518110610ced57fe5b60200260200101819052508080600101915050610bc7565b50809250505090565b6000600160003373ffffffffffffffffffffffffffffffffffffffff1673ffffffffffffffffffffffffffffffffffffffff1681526020019081526020016000206000018054600181600116156101000203166002900490501415610da8576040517f08c379a0000000000000000000000000000000000000000000000000000000008152600401610d9f90612edb565b60405180910390fd5b600582604051610db89190612dea565b9081526020016040518091039020805490508110610e0b576040517f08c379a0000000000000000000000000000000000000000000000000000000008152600401610e0290612ebb565b60405180910390fd5b600582604051610e1b9190612dea565b90815260200160405180910390206001600584604051610e3b9190612dea565b9081526020016040518091039020805490500381548110610e5857fe5b9060005260206000209060020201600583604051610e769190612dea565b90815260200160405180910390208281548110610e8f57fe5b906000526020600020906002020160008201816000019080546001816001161561010002031660029004610ec4929190612098565b5060018201816001019080546001816001161561010002031660029004610eec929190612098565b50905050600582604051610f009190612dea565b9081526020016040518091039020805480610f1757fe5b600190038181906000526020600020906002020160008082016000610f3c919061200e565b600182016000610f4c919061200e565b505090555050565b6060808251604051908082528060200260200182016040528015610f875781602001602082028038833980820191505090505b50905060008090505b835181101561112457610fa161211f565b848281518110610fad57fe5b60200260200101519050600081600001518260200151836040015184606001518560800151604051602001610fe6959493929190612f7f565b6040516020818303038152906040528051906020012090508160036000838152602001908152602001600020600082015181600001556020820151816001019080519060200190611038929190611f6a565b506040820151816002019080519060200190611055929190611f6a565b506060820151816003019080519060200190611072929190611f6a565b50608082015181600401908051906020019061108f929190611f6a565b5060a08201518160050190805190602001906110ac929190611f6a565b50905050600482608001516040516110c49190612dd3565b90815260200160405180910390208190806001815401808255809150509060018203906000526020600020016000909192909190915055508084848151811061110957fe5b60200260200101818152505050508080600101915050610f90565b5080915050919050565b6000606080606080606061114061211f565b600360008981526020019081526020016000206040518060c001604052908160008201548152602001600182018054600181600116156101000203166002900480601f0160208091040260200160405190810160405280929190818152602001828054600181600116156101000203166002900480156112015780601f106111d657610100808354040283529160200191611201565b820191906000526020600020905b8154815290600101906020018083116111e457829003601f168201915b50505050508152602001600282018054600181600116156101000203166002900480601f0160208091040260200160405190810160405280929190818152602001828054600181600116156101000203166002900480156112a35780601f10611278576101008083540402835291602001916112a3565b820191906000526020600020905b81548152906001019060200180831161128657829003601f168201915b50505050508152602001600382018054600181600116156101000203166002900480601f0160208091040260200160405190810160405280929190818152602001828054600181600116156101000203166002900480156113455780601f1061131a57610100808354040283529160200191611345565b820191906000526020600020905b81548152906001019060200180831161132857829003601f168201915b50505050508152602001600482018054600181600116156101000203166002900480601f0160208091040260200160405190810160405280929190818152602001828054600181600116156101000203166002900480156113e75780601f106113bc576101008083540402835291602001916113e7565b820191906000526020600020905b8154815290600101906020018083116113ca57829003601f168201915b50505050508152602001600582018054600181600116156101000203166002900480601f0160208091040260200160405190810160405280929190818152602001828054600181600116156101000203166002900480156114895780601f1061145e57610100808354040283529160200191611489565b820191906000526020600020905b81548152906001019060200180831161146c57829003601f168201915b5050505050815250509050600081600001511415611508576000809050604051806020016040528060008152506040518060200160405280600081525060405180602001604052806000815250604051806020016040528060008152506040518060200160405280600081525096509650965096509650965050611543565b806000015181602001518260400151836060015184608001518560a00151849450839350829250819150809050965096509650965096509650505b91939550919395565b60608060048360405161155f9190612dea565b90815260200160405180910390208054806020026020016040519081016040528092919081815260200182805480156115b757602002820191906000526020600020905b8154815260200190600101908083116115a3575b50505050509050606081516040519080825280602002602001820160405280156115fb57816020015b6115e8612155565b8152602001906001900390816115e05790505b50905060008090505b825181101561164d5761162983828151811061161c57fe5b6020026020010151611c09565b82828151811061163557fe5b60200260200101819052508080600101915050611604565b508092505050919050565b6040518060600160405280848152602001838152602001828152506000856040516116839190612dea565b908152602001604051809103902060008201518160000190805190602001906116ad929190611f6a565b5060208201518160010190805190602001906116ca929190611f6a565b5060408201518160020190805190602001906116e7929190611f6a565b5090505050505050565b60006116fb61218b565b60008560405161170b9190612dea565b9081526020016040518091039020604051806060016040529081600082018054600181600116156101000203166002900480601f0160208091040260200160405190810160405280929190818152602001828054600181600116156101000203166002900480156117bd5780601f10611792576101008083540402835291602001916117bd565b820191906000526020600020905b8154815290600101906020018083116117a057829003601f168201915b50505050508152602001600182018054600181600116156101000203166002900480601f01602080910402602001604051908101604052809291908181526020018280546001816001161561010002031660029004801561185f5780601f106118345761010080835404028352916020019161185f565b820191906000526020600020905b81548152906001019060200180831161184257829003601f168201915b50505050508152602001600282018054600181600116156101000203166002900480601f0160208091040260200160405190810160405280929190818152602001828054600181600116156101000203166002900480156119015780601f106118d657610100808354040283529160200191611901565b820191906000526020600020905b8154815290600101906020018083116118e457829003601f168201915b5050505050815250509050838051906020012081600001518051906020012014801561193e57508280519060200120816040015180519060200120145b1561194d576001915050611953565b60009150505b9392505050565b60606000600160003373ffffffffffffffffffffffffffffffffffffffff1673ffffffffffffffffffffffffffffffffffffffff16815260200190815260200160002060000180546001816001161561010002031660029004905014156119f6576040517f08c379a00000000000000000000000000000000000000000000000000000000081526004016119ed90612edb565b60405180910390fd5b6060600583604051611a089190612dea565b9081526020016040518091039020805480602002602001604051908101604052809291908181526020016000905b82821015611bac5783829060005260206000209060020201604051806040016040529081600082018054600181600116156101000203166002900480601f016020809104026020016040519081016040528092919081815260200182805460018160011615610100020316600290048015611af25780601f10611ac757610100808354040283529160200191611af2565b820191906000526020600020905b815481529060010190602001808311611ad557829003601f168201915b50505050508152602001600182018054600181600116156101000203166002900480601f016020809104026020016040519081016040528092919081815260200182805460018160011615610100020316600290048015611b945780601f10611b6957610100808354040283529160200191611b94565b820191906000526020600020905b815481529060010190602001808311611b7757829003601f168201915b50505050508152505081526020019060010190611a36565b50505050905080915050919050565b600080600090505b8351811015611bfd5782848281518110611bd957fe5b60200260200101511415611bf05780915050611c03565b8080600101915050611bc3565b50825190505b92915050565b611c1161211f565b600360008381526020019081526020016000206040518060c001604052908160008201548152602001600182018054600181600116156101000203166002900480601f016020809104026020016040519081016040528092919081815260200182805460018160011615610100020316600290048015611cd25780601f10611ca757610100808354040283529160200191611cd2565b820191906000526020600020905b815481529060010190602001808311611cb557829003601f168201915b50505050508152602001600282018054600181600116156101000203166002900480601f016020809104026020016040519081016040528092919081815260200182805460018160011615610100020316600290048015611d745780601f10611d4957610100808354040283529160200191611d74565b820191906000526020600020905b815481529060010190602001808311611d5757829003601f168201915b50505050508152602001600382018054600181600116156101000203166002900480601f016020809104026020016040519081016040528092919081815260200182805460018160011615610100020316600290048015611e165780601f10611deb57610100808354040283529160200191611e16565b820191906000526020600020905b815481529060010190602001808311611df957829003601f168201915b50505050508152602001600482018054600181600116156101000203166002900480601f016020809104026020016040519081016040528092919081815260200182805460018160011615610100020316600290048015611eb85780601f10611e8d57610100808354040283529160200191611eb8565b820191906000526020600020905b815481529060010190602001808311611e9b57829003601f168201915b50505050508152602001600582018054600181600116156101000203166002900480601f016020809104026020016040519081016040528092919081815260200182805460018160011615610100020316600290048015611f5a5780601f10611f2f57610100808354040283529160200191611f5a565b820191906000526020600020905b815481529060010190602001808311611f3d57829003601f168201915b5050505050815250509050919050565b828054600181600116156101000203166002900490600052602060002090601f016020900481019282601f10611fab57805160ff1916838001178555611fd9565b82800160010185558215611fd9579182015b82811115611fd8578251825591602001919060010190611fbd565b5b509050611fe691906121ac565b5090565b508054600082556002029060005260206000209081019061200b91906121d1565b50565b50805460018160011615610100020316600290046000825580601f106120345750612053565b601f01602090049060005260206000209081019061205291906121ac565b5b50565b604051806040016040528060608152602001606081525090565b6040518060800160405280606081526020016060815260200160608152602001600081525090565b828054600181600116156101000203166002900490600052602060002090601f016020900481019282601f106120d1578054855561210e565b8280016001018555821561210e57600052602060002091601f016020900482015b8281111561210d5782548255916001019190600101906120f2565b5b50905061211b91906121ac565b5090565b6040518060c001604052806000815260200160608152602001606081526020016060815260200160608152602001606081525090565b6040518060c001604052806000815260200160608152602001606081526020016060815260200160608152602001606081525090565b60405180606001604052806060815260200160608152602001606081525090565b6121ce91905b808211156121ca5760008160009055506001016121b2565b5090565b90565b61220d91905b8082111561220957600080820160006121f0919061200e565b600182016000612200919061200e565b506002016121d7565b5090565b90565b60008135905061221f8161327c565b92915050565b600082601f83011261223657600080fd5b81356122496122448261301b565b612fee565b9150818183526020840193506020810190508360005b8381101561228f57813586016122758882612356565b84526020840193506020830192505060018101905061225f565b5050505092915050565b6000813590506122a881613293565b92915050565b600082601f8301126122bf57600080fd5b81356122d26122cd82613043565b612fee565b915080825260208301602083018583830111156122ee57600080fd5b6122f9838284613229565b50505092915050565b600082601f83011261231357600080fd5b81356123266123218261306f565b612fee565b9150808252602083016020830185838301111561234257600080fd5b61234d838284613229565b50505092915050565b600060c0828403121561236857600080fd5b61237260c0612fee565b905060006123828482850161246a565b600083015250602082013567ffffffffffffffff8111156123a257600080fd5b6123ae848285016122ae565b602083015250604082013567ffffffffffffffff8111156123ce57600080fd5b6123da848285016122ae565b604083015250606082013567ffffffffffffffff8111156123fa57600080fd5b612406848285016122ae565b606083015250608082013567ffffffffffffffff81111561242657600080fd5b612432848285016122ae565b60808301525060a082013567ffffffffffffffff81111561245257600080fd5b61245e848285016122ae565b60a08301525092915050565b600081359050612479816132aa565b92915050565b60008060006060848603121561249457600080fd5b60006124a286828701612210565b935050602084013567ffffffffffffffff8111156124bf57600080fd5b6124cb86828701612302565b925050604084013567ffffffffffffffff8111156124e857600080fd5b6124f486828701612302565b9150509250925092565b600080600080600060a0868803121561251657600080fd5b600061252488828901612210565b955050602086013567ffffffffffffffff81111561254157600080fd5b61254d88828901612302565b945050604086013567ffffffffffffffff81111561256a57600080fd5b61257688828901612302565b935050606086013567ffffffffffffffff81111561259357600080fd5b61259f88828901612302565b92505060806125b08882890161246a565b9150509295509295909350565b6000602082840312156125cf57600080fd5b600082013567ffffffffffffffff8111156125e957600080fd5b6125f584828501612225565b91505092915050565b60006020828403121561261057600080fd5b600061261e84828501612299565b91505092915050565b60006020828403121561263957600080fd5b600082013567ffffffffffffffff81111561265357600080fd5b61265f84828501612302565b91505092915050565b6000806040838503121561267b57600080fd5b600083013567ffffffffffffffff81111561269557600080fd5b6126a185828601612302565b925050602083013567ffffffffffffffff8111156126be57600080fd5b6126ca85828601612302565b9150509250929050565b6000806000606084860312156126e957600080fd5b600084013567ffffffffffffffff81111561270357600080fd5b61270f86828701612302565b935050602084013567ffffffffffffffff81111561272c57600080fd5b61273886828701612302565b925050604084013567ffffffffffffffff81111561275557600080fd5b61276186828701612302565b9150509250925092565b6000806000806080858703121561278157600080fd5b600085013567ffffffffffffffff81111561279b57600080fd5b6127a787828801612302565b945050602085013567ffffffffffffffff8111156127c457600080fd5b6127d087828801612302565b935050604085013567ffffffffffffffff8111156127ed57600080fd5b6127f987828801612302565b925050606085013567ffffffffffffffff81111561281657600080fd5b61282287828801612302565b91505092959194509250565b6000806040838503121561284157600080fd5b600083013567ffffffffffffffff81111561285b57600080fd5b61286785828601612302565b92505060206128788582860161246a565b9150509250929050565b600061288e8383612aa2565b60208301905092915050565b60006128a68383612b1b565b905092915050565b60006128ba8383612ccc565b905092915050565b60006128ce8383612d71565b905092915050565b60006128e1826130f0565b6128eb8185613166565b93506128f68361309b565b8060005b8381101561292757815161290e8882612882565b975061291983613132565b9250506001810190506128fa565b5085935050505092915050565b600061293f826130fb565b6129498185613177565b93508360208202850161295b856130ab565b8060005b858110156129975784840389528151612978858261289a565b94506129838361313f565b925060208a0199505060018101905061295f565b50829750879550505050505092915050565b60006129b482613106565b6129be8185613188565b9350836020820285016129d0856130bb565b8060005b85811015612a0c57848403895281516129ed85826128ae565b94506129f88361314c565b925060208a019950506001810190506129d4565b50829750879550505050505092915050565b6000612a2982613111565b612a338185613199565b935083602082028501612a45856130cb565b8060005b85811015612a815784840389528151612a6285826128c2565b9450612a6d83613159565b925060208a01995050600181019050612a49565b50829750879550505050505092915050565b612a9c816131e9565b82525050565b612aab816131f5565b82525050565b6000612abc82613127565b612ac681856131bb565b9350612ad6818560208601613238565b612adf8161326b565b840191505092915050565b6000612af582613127565b612aff81856131cc565b9350612b0f818560208601613238565b80840191505092915050565b6000612b268261311c565b612b3081856131aa565b9350612b40818560208601613238565b612b498161326b565b840191505092915050565b6000612b5f8261311c565b612b6981856131bb565b9350612b79818560208601613238565b612b828161326b565b840191505092915050565b6000612b988261311c565b612ba281856131cc565b9350612bb2818560208601613238565b80840191505092915050565b600081546001811660008114612bdb5760018114612c0057612c44565b607f6002830416612bec81876131cc565b955060ff1983168652808601935050612c44565b60028204612c0e81876131cc565b9550612c19856130db565b60005b82811015612c3b57815481890152600182019150602081019050612c1c565b82880195505050505b505092915050565b6000612c59600d836131bb565b91507f496e76616c696420696e646578000000000000000000000000000000000000006000830152602082019050919050565b6000612c996015836131bb565b91507f596f7520617265206e6f74206120436f6d70616e7900000000000000000000006000830152602082019050919050565b600060c083016000830151612ce46000860182612db5565b5060208301518482036020860152612cfc8282612b1b565b91505060408301518482036040860152612d168282612b1b565b91505060608301518482036060860152612d308282612b1b565b91505060808301518482036080860152612d4a8282612b1b565b91505060a083015184820360a0860152612d648282612b1b565b9150508091505092915050565b60006040830160008301518482036000860152612d8e8282612b1b565b91505060208301518482036020860152612da88282612b1b565b9150508091505092915050565b612dbe8161321f565b82525050565b612dcd8161321f565b82525050565b6000612ddf8284612b8d565b915081905092915050565b6000612df68284612aea565b915081905092915050565b6000612e0d8284612bbe565b915081905092915050565b60006020820190508181036000830152612e3281846128d6565b905092915050565b60006020820190508181036000830152612e548184612934565b905092915050565b60006020820190508181036000830152612e7681846129a9565b905092915050565b60006020820190508181036000830152612e988184612a1e565b905092915050565b6000602082019050612eb56000830184612a93565b92915050565b60006020820190508181036000830152612ed481612c4c565b9050919050565b60006020820190508181036000830152612ef481612c8c565b9050919050565b600060c082019050612f106000830189612dc4565b8181036020830152612f228188612ab1565b90508181036040830152612f368187612ab1565b90508181036060830152612f4a8186612ab1565b90508181036080830152612f5e8185612ab1565b905081810360a0830152612f728184612ab1565b9050979650505050505050565b600060a082019050612f946000830188612dc4565b8181036020830152612fa68187612b54565b90508181036040830152612fba8186612b54565b90508181036060830152612fce8185612b54565b90508181036080830152612fe28184612b54565b90509695505050505050565b6000604051905081810181811067ffffffffffffffff8211171561301157600080fd5b8060405250919050565b600067ffffffffffffffff82111561303257600080fd5b602082029050602081019050919050565b600067ffffffffffffffff82111561305a57600080fd5b601f19601f8301169050602081019050919050565b600067ffffffffffffffff82111561308657600080fd5b601f19601f8301169050602081019050919050565b6000819050602082019050919050565b6000819050602082019050919050565b6000819050602082019050919050565b6000819050602082019050919050565b60008190508160005260206000209050919050565b600081519050919050565b600081519050919050565b600081519050919050565b600081519050919050565b600081519050919050565b600081519050919050565b6000602082019050919050565b6000602082019050919050565b6000602082019050919050565b6000602082019050919050565b600082825260208201905092915050565b600082825260208201905092915050565b600082825260208201905092915050565b600082825260208201905092915050565b600082825260208201905092915050565b600082825260208201905092915050565b600081905092915050565b60006131e2826131ff565b9050919050565b60008115159050919050565b6000819050919050565b600073ffffffffffffffffffffffffffffffffffffffff82169050919050565b6000819050919050565b82818337600083830152505050565b60005b8381101561325657808201518184015260208101905061323b565b83811115613265576000848401525b50505050565b6000601f19601f8301169050919050565b613285816131d7565b811461329057600080fd5b50565b61329c816131f5565b81146132a757600080fd5b50565b6132b38161321f565b81146132be57600080fd5b5056fea365627a7a72315820d861bb1f2d134e6ff022102dc91c829daf8f5b0b2158376853011edd20df9abc6c6578706572696d656e74616cf564736f6c63430005100040",
  "source": "// SPDX-License-Identifier: MIT\r\npragma experimental ABIEncoderV2;\r\npragma solidity >=0.4.17<0.9.0;\r\n\r\ncontract System {\r\n\r\n    // Company Information (Certificate Number for Identity Management)\r\n    struct Company {\r\n        string name;\r\n        string email;\r\n        string password;\r\n        uint256 certificate_num;\r\n    }\r\n\r\n        struct User {\r\n        string name;\r\n        string email;\r\n        string password;\r\n    }\r\n    // Product Information (Image Link not the Actual Image Bytes)\r\n    // Company Name for Filteration\r\n    struct Product {\r\n        uint id;\r\n        string name;\r\n        string model;\r\n        string description;\r\n        string companyName;\r\n        string imageLink;\r\n    }\r\n\r\n    struct Report {\r\n        // string imageLink;\r\n        string Location;\r\n        string description;\r\n    }\r\n\r\n    //Product public prod;\r\n\r\n    mapping(string => User) users;\r\n    mapping(address => Company) companies;\r\n    address[] private companyAddresses;\r\n    \r\n    mapping(bytes32 => Product) private products;\r\n    mapping(string => bytes32[]) private companyProducts;\r\n    mapping(string => Report[]) private companyReports;\r\n\r\n\r\n\r\n\r\n\r\n    function register_User(string memory _useraddress,string memory _name, string memory _email, string memory _password) public {\r\n        users[_useraddress] = User(_name,_email,_password);\r\n    }\r\n\r\n    function register_Company(address _compaddress,string memory _name, string memory _email, string memory _password,uint256 _cert_num) public {\r\n        companies[_compaddress] = Company(_name,_email,_password,_cert_num);\r\n        companyAddresses.push(_compaddress);\r\n    }\r\n\r\n    function login_user (string memory user_add , string memory _name , string memory _password) public view returns (bool found)\r\n    {\r\n            User memory user = users[user_add];\r\n            \r\n            // str compare keccak256(bytes(a)) == keccak256(bytes(b));\r\n            if(keccak256(bytes(user.name)) == keccak256(bytes(_name)) && keccak256(bytes(user.password)) == keccak256(bytes(_password)))\r\n                return true;\r\n            else\r\n                return false;\r\n    }\r\n\r\n    function login_company(address company_add, string memory _name, string memory _password) public view returns (bool found) {\r\n        Company memory company = companies[company_add];\r\n        // Compare company name and password using keccak256\r\n        if (keccak256(bytes(company.name)) == keccak256(bytes(_name)) && keccak256(bytes(company.password)) == keccak256(bytes(_password)))\r\n            return true;\r\n        else\r\n            return false;\r\n    }\r\n\r\n\r\n    function upload_Products(Product[] memory _products) public returns (bytes32[] memory hashedArray) {\r\n        bytes32[] memory productHashes = new bytes32[](_products.length);\r\n        \r\n        for (uint256 i = 0; i < _products.length; i++) {\r\n            Product memory p = _products[i];\r\n            \r\n            // Encoding Using the Four Attributes (Image Link Not Included)\r\n            bytes32 p_hashed = keccak256(abi.encode(p.id, p.name, p.model, p.description, p.companyName));\r\n            products[p_hashed] = p;\r\n            \r\n            // Add the product ID to the array of product IDs for the respective company\r\n            companyProducts[p.companyName].push(p_hashed);\r\n            \r\n            productHashes[i] = p_hashed;\r\n        }\r\n    \r\n    return productHashes;\r\n}\r\n    \r\n        // Get a Product by its Hash\r\n    function get_product(bytes32 product_add) internal view returns (Product memory Prod) {\r\n        return products[product_add];\r\n    }\r\n\r\n    function retrieve_company_products(string memory Company_name) public view returns (Product[] memory products_array) {\r\n        bytes32[] memory products_hashes = companyProducts[Company_name];\r\n        Product[] memory products_of_company = new Product[](products_hashes.length);\r\n        for (uint256 index = 0; index < products_hashes.length; index++) {\r\n            products_of_company[index] = get_product(products_hashes[index]);\r\n        }\r\n\r\n        return products_of_company;\r\n    }\r\n\r\n    // Verify a product and return its attributes or null values if not found\r\n    function verify_product(bytes32 product_add) external view returns (uint, string memory, string memory, string memory, string memory, string memory) {\r\n        // Get the product using the Company_Con contract's get_product function\r\n        System.Product memory product = products[product_add];\r\n\r\n        // Check if the product exists\r\n        if (product.id == 0) {\r\n            // Return null values if the product does not exist\r\n            return (0, \"\", \"\", \"\", \"\", \"\");\r\n        }\r\n        else {\r\n            // Return the product attributes if the product exists\r\n            return (product.id, product.name, product.model, product.description, product.companyName, product.imageLink);\r\n        }\r\n    }\r\n\r\n\r\n    function send_report(string memory location, string memory  description,string memory companyname) public\r\n    {\r\n        Report memory report = Report(location,description);\r\n        companyReports[companyname].push(report);\r\n    }\r\n\r\n    function get_companies_names() public view returns(string[] memory)\r\n    {\r\n        uint256 length = companyAddresses.length;\r\n        string[] memory allCompanies = new string[](length);\r\n    \r\n        for (uint256 i = 0; i < length; i++) {\r\n            allCompanies[i] = companies[companyAddresses[i]].name;\r\n        }\r\n\r\n        return allCompanies;\r\n    }\r\n\r\n    function get_function_report(string memory company_name) public onlyCompany() view returns(Report[] memory) {\r\n        Report[] memory reports_of_company = companyReports[company_name];\r\n\r\n        return reports_of_company;\r\n    }\r\n\r\n    function deleteReport(string memory companyname, uint index) public onlyCompany() {\r\n        require(index < companyReports[companyname].length, \"Invalid index\");\r\n\r\n        // Move the last element to the index being deleted\r\n        companyReports[companyname][index] = companyReports[companyname][companyReports[companyname].length - 1];\r\n\r\n        // Remove the last element\r\n        companyReports[companyname].pop();\r\n    }\r\n    \r\n    function delete_allReport(string memory companyname) public onlyCompany() {\r\n    \r\n    // Remove the last element\r\n    delete companyReports[companyname];\r\n    }\r\n    \r\n\r\n    function deleteProductByModel(string memory companyname, string memory model) public {\r\n        bytes32[] memory keysToDelete = new bytes32[](companyProducts[companyname].length);\r\n        uint256 deleteCount = 0;\r\n\r\n        // Identify the keys of the products to delete\r\n        for (uint256 i = 0; i < companyProducts[companyname].length; i++) {\r\n            bytes32 productKey = companyProducts[companyname][i];\r\n            if (keccak256(abi.encodePacked(products[productKey].model)) == keccak256(abi.encodePacked(model))) {\r\n                keysToDelete[deleteCount] = productKey;\r\n                deleteCount++;\r\n            }\r\n        }\r\n\r\n        // Delete the identified products from the mappings\r\n        for (uint256 i = 0; i < deleteCount; i++) {\r\n            delete products[keysToDelete[i]];\r\n\r\n            // Delete the product hash from the companyProducts mapping\r\n            uint256 index = findIndex(companyProducts[companyname], keysToDelete[i]);\r\n            if (index < companyProducts[companyname].length - 1) {\r\n                companyProducts[companyname][index] = companyProducts[companyname][companyProducts[companyname].length - 1];\r\n            }\r\n            companyProducts[companyname].pop();\r\n        }\r\n    }\r\n\r\n\r\n    // Helper function to find the index of an element in an array\r\n    function findIndex(bytes32[] memory array, bytes32 element) private pure returns (uint256) {\r\n        for (uint256 i = 0; i < array.length; i++) {\r\n            if (array[i] == element) {\r\n                return i;\r\n            }\r\n        }\r\n        return array.length;\r\n    }\r\n\r\n    //----------------modifers------------\r\n\r\n    modifier onlyCompany() {\r\n        require(bytes(companies[msg.sender].name).length != 0, \"You are not a Company\");\r\n        _;\r\n    }\r\n\r\n    \r\n}\r\n\r\n",
  "sourcePath": "C:\\Users\\MSI-PC\\Desktop\\Fake Products Detection\\contracts\\System.sol",
  "compiler": {
    "name": "solc",
    "version": "0.5.16+commit.9c3226ce.Emscripten.clang"
  },
  "schemaVersion": "3.4.13",
  "updatedAt": "2023-07-03T23:33:58.407Z",
  "networkType": "ethereum",
  "devdoc": {
    "methods": {}
  },
  "userdoc": {
    "methods": {}
  }
}