{
  "contractName": "System",
  "abi": [
    {
      "constant": true,
      "inputs": [
        {
          "internalType": "bytes32",
          "name": "",
          "type": "bytes32"
        }
      ],
      "name": "products",
      "outputs": [
        {
          "internalType": "uint256",
          "name": "id",
          "type": "uint256"
        },
        {
          "internalType": "string",
          "name": "name",
          "type": "string"
        },
        {
          "internalType": "string",
          "name": "model",
          "type": "string"
        },
        {
          "internalType": "string",
          "name": "description",
          "type": "string"
        },
        {
          "internalType": "string",
          "name": "companyName",
          "type": "string"
        },
        {
          "internalType": "string",
          "name": "imageLink",
          "type": "string"
        }
      ],
      "payable": false,
      "stateMutability": "view",
      "type": "function"
    },
    {
      "constant": false,
      "inputs": [
        {
          "internalType": "string",
          "name": "_useraddress",
          "type": "string"
        },
        {
          "internalType": "string",
          "name": "_name",
          "type": "string"
        },
        {
          "internalType": "string",
          "name": "_email",
          "type": "string"
        },
        {
          "internalType": "string",
          "name": "_password",
          "type": "string"
        }
      ],
      "name": "register_User",
      "outputs": [],
      "payable": false,
      "stateMutability": "nonpayable",
      "type": "function"
    },
    {
      "constant": false,
      "inputs": [
        {
          "internalType": "address",
          "name": "_compaddress",
          "type": "address"
        },
        {
          "internalType": "string",
          "name": "_name",
          "type": "string"
        },
        {
          "internalType": "string",
          "name": "_email",
          "type": "string"
        },
        {
          "internalType": "string",
          "name": "_password",
          "type": "string"
        },
        {
          "internalType": "uint256",
          "name": "_cert_num",
          "type": "uint256"
        }
      ],
      "name": "register_Company",
      "outputs": [],
      "payable": false,
      "stateMutability": "nonpayable",
      "type": "function"
    },
    {
      "constant": false,
      "inputs": [
        {
          "internalType": "uint256",
          "name": "_id",
          "type": "uint256"
        },
        {
          "internalType": "string",
          "name": "_name",
          "type": "string"
        },
        {
          "internalType": "string",
          "name": "_model",
          "type": "string"
        },
        {
          "internalType": "string",
          "name": "_description",
          "type": "string"
        },
        {
          "internalType": "string",
          "name": "_companyName",
          "type": "string"
        },
        {
          "internalType": "string",
          "name": "_imageLink",
          "type": "string"
        }
      ],
      "name": "upload_Product",
      "outputs": [
        {
          "internalType": "bytes32",
          "name": "hashed",
          "type": "bytes32"
        }
      ],
      "payable": false,
      "stateMutability": "nonpayable",
      "type": "function"
    },
    {
      "constant": true,
      "inputs": [
        {
          "internalType": "string",
          "name": "user_add",
          "type": "string"
        },
        {
          "internalType": "string",
          "name": "_name",
          "type": "string"
        },
        {
          "internalType": "string",
          "name": "_password",
          "type": "string"
        }
      ],
      "name": "login_user",
      "outputs": [
        {
          "internalType": "bool",
          "name": "found",
          "type": "bool"
        }
      ],
      "payable": false,
      "stateMutability": "view",
      "type": "function"
    },
    {
      "constant": true,
      "inputs": [
        {
          "internalType": "address",
          "name": "company_add",
          "type": "address"
        },
        {
          "internalType": "string",
          "name": "_name",
          "type": "string"
        },
        {
          "internalType": "string",
          "name": "_password",
          "type": "string"
        }
      ],
      "name": "login_company",
      "outputs": [
        {
          "internalType": "bool",
          "name": "found",
          "type": "bool"
        }
      ],
      "payable": false,
      "stateMutability": "view",
      "type": "function"
    },
    {
      "constant": true,
      "inputs": [
        {
          "internalType": "bytes32",
          "name": "product_add",
          "type": "bytes32"
        }
      ],
      "name": "verify_product",
      "outputs": [
        {
          "internalType": "uint256",
          "name": "",
          "type": "uint256"
        },
        {
          "internalType": "string",
          "name": "",
          "type": "string"
        },
        {
          "internalType": "string",
          "name": "",
          "type": "string"
        },
        {
          "internalType": "string",
          "name": "",
          "type": "string"
        },
        {
          "internalType": "string",
          "name": "",
          "type": "string"
        },
        {
          "internalType": "string",
          "name": "",
          "type": "string"
        }
      ],
      "payable": false,
      "stateMutability": "view",
      "type": "function"
    }
  ],
  "bytecode": "0x608060405234801561001057600080fd5b50611ab5806100206000396000f3fe608060405234801561001057600080fd5b506004361061007d5760003560e01c80639e7ef11a1161005b5780639e7ef11a14610103578063af87729e14610133578063ce2aae3414610168578063d23c91f5146101845761007d565b8063133af95814610082578063790543911461009e5780638ace7b9b146100d3575b600080fd5b61009c60048036036100979190810190611326565b6101b4565b005b6100b860048036036100b391908101906113e5565b61027f565b6040516100ca96959493929190611879565b60405180910390f35b6100ed60048036036100e891908101906112a7565b6105b3565b6040516100fa9190611750565b60405180910390f35b61011d60048036036101189190810190611568565b610847565b60405161012a919061176b565b60405180910390f35b61014d600480360361014891908101906113e5565b6109d0565b60405161015f96959493929190611786565b60405180910390f35b610182600480360361017d91908101906114a5565b610dee565b005b61019e6004803603610199919081019061140e565b610e87565b6040516101ab9190611750565b60405180910390f35b604051806080016040528085815260200184815260200183815260200182815250600160008773ffffffffffffffffffffffffffffffffffffffff1673ffffffffffffffffffffffffffffffffffffffff16815260200190815260200160002060008201518160000190805190602001906102309291906110f0565b50602082015181600101908051906020019061024d9291906110f0565b50604082015181600201908051906020019061026a9291906110f0565b50606082015181600301559050505050505050565b6002602052806000526040600020600091509050806000015490806001018054600181600116156101000203166002900480601f0160208091040260200160405190810160405280929190818152602001828054600181600116156101000203166002900480156103315780601f1061030657610100808354040283529160200191610331565b820191906000526020600020905b81548152906001019060200180831161031457829003601f168201915b505050505090806002018054600181600116156101000203166002900480601f0160208091040260200160405190810160405280929190818152602001828054600181600116156101000203166002900480156103cf5780601f106103a4576101008083540402835291602001916103cf565b820191906000526020600020905b8154815290600101906020018083116103b257829003601f168201915b505050505090806003018054600181600116156101000203166002900480601f01602080910402602001604051908101604052809291908181526020018280546001816001161561010002031660029004801561046d5780601f106104425761010080835404028352916020019161046d565b820191906000526020600020905b81548152906001019060200180831161045057829003601f168201915b505050505090806004018054600181600116156101000203166002900480601f01602080910402602001604051908101604052809291908181526020018280546001816001161561010002031660029004801561050b5780601f106104e05761010080835404028352916020019161050b565b820191906000526020600020905b8154815290600101906020018083116104ee57829003601f168201915b505050505090806005018054600181600116156101000203166002900480601f0160208091040260200160405190810160405280929190818152602001828054600181600116156101000203166002900480156105a95780601f1061057e576101008083540402835291602001916105a9565b820191906000526020600020905b81548152906001019060200180831161058c57829003601f168201915b5050505050905086565b60006105bd611170565b600160008673ffffffffffffffffffffffffffffffffffffffff1673ffffffffffffffffffffffffffffffffffffffff168152602001908152602001600020604051806080016040529081600082018054600181600116156101000203166002900480601f0160208091040260200160405190810160405280929190818152602001828054600181600116156101000203166002900480156106a05780601f10610675576101008083540402835291602001916106a0565b820191906000526020600020905b81548152906001019060200180831161068357829003601f168201915b50505050508152602001600182018054600181600116156101000203166002900480601f0160208091040260200160405190810160405280929190818152602001828054600181600116156101000203166002900480156107425780601f1061071757610100808354040283529160200191610742565b820191906000526020600020905b81548152906001019060200180831161072557829003601f168201915b50505050508152602001600282018054600181600116156101000203166002900480601f0160208091040260200160405190810160405280929190818152602001828054600181600116156101000203166002900480156107e45780601f106107b9576101008083540402835291602001916107e4565b820191906000526020600020905b8154815290600101906020018083116107c757829003601f168201915b505050505081526020016003820154815250509050838051906020012081600001518051906020012014801561082b57508280519060200120816040015180519060200120145b1561083a576001915050610840565b60009150505b9392505050565b6000610851611198565b6040518060c001604052808981526020018881526020018781526020018681526020018581526020018481525090506000816000015182602001518360400151846060015185608001516040516020016108af95949392919061180a565b60405160208183030381529060405280519060200120905081600260008381526020019081526020016000206000820151816000015560208201518160010190805190602001906109019291906110f0565b50604082015181600201908051906020019061091e9291906110f0565b50606082015181600301908051906020019061093b9291906110f0565b5060808201518160040190805190602001906109589291906110f0565b5060a08201518160050190805190602001906109759291906110f0565b509050506003856040516109899190611739565b908152602001604051809103902089908060018154018082558091505090600182039060005260206000200160009091929091909150555080925050509695505050505050565b600060608060608060606109e2611198565b600260008981526020019081526020016000206040518060c001604052908160008201548152602001600182018054600181600116156101000203166002900480601f016020809104026020016040519081016040528092919081815260200182805460018160011615610100020316600290048015610aa35780601f10610a7857610100808354040283529160200191610aa3565b820191906000526020600020905b815481529060010190602001808311610a8657829003601f168201915b50505050508152602001600282018054600181600116156101000203166002900480601f016020809104026020016040519081016040528092919081815260200182805460018160011615610100020316600290048015610b455780601f10610b1a57610100808354040283529160200191610b45565b820191906000526020600020905b815481529060010190602001808311610b2857829003601f168201915b50505050508152602001600382018054600181600116156101000203166002900480601f016020809104026020016040519081016040528092919081815260200182805460018160011615610100020316600290048015610be75780601f10610bbc57610100808354040283529160200191610be7565b820191906000526020600020905b815481529060010190602001808311610bca57829003601f168201915b50505050508152602001600482018054600181600116156101000203166002900480601f016020809104026020016040519081016040528092919081815260200182805460018160011615610100020316600290048015610c895780601f10610c5e57610100808354040283529160200191610c89565b820191906000526020600020905b815481529060010190602001808311610c6c57829003601f168201915b50505050508152602001600582018054600181600116156101000203166002900480601f016020809104026020016040519081016040528092919081815260200182805460018160011615610100020316600290048015610d2b5780601f10610d0057610100808354040283529160200191610d2b565b820191906000526020600020905b815481529060010190602001808311610d0e57829003601f168201915b5050505050815250509050600081600001511415610daa576000809050604051806020016040528060008152506040518060200160405280600081525060405180602001604052806000815250604051806020016040528060008152506040518060200160405280600081525096509650965096509650965050610de5565b806000015181602001518260400151836060015184608001518560a00151849450839350829250819150809050965096509650965096509650505b91939550919395565b604051806060016040528084815260200183815260200182815250600085604051610e199190611739565b90815260200160405180910390206000820151816000019080519060200190610e439291906110f0565b506020820151816001019080519060200190610e609291906110f0565b506040820151816002019080519060200190610e7d9291906110f0565b5090505050505050565b6000610e916111ce565b600085604051610ea19190611739565b9081526020016040518091039020604051806060016040529081600082018054600181600116156101000203166002900480601f016020809104026020016040519081016040528092919081815260200182805460018160011615610100020316600290048015610f535780601f10610f2857610100808354040283529160200191610f53565b820191906000526020600020905b815481529060010190602001808311610f3657829003601f168201915b50505050508152602001600182018054600181600116156101000203166002900480601f016020809104026020016040519081016040528092919081815260200182805460018160011615610100020316600290048015610ff55780601f10610fca57610100808354040283529160200191610ff5565b820191906000526020600020905b815481529060010190602001808311610fd857829003601f168201915b50505050508152602001600282018054600181600116156101000203166002900480601f0160208091040260200160405190810160405280929190818152602001828054600181600116156101000203166002900480156110975780601f1061106c57610100808354040283529160200191611097565b820191906000526020600020905b81548152906001019060200180831161107a57829003601f168201915b505050505081525050905083805190602001208160000151805190602001201480156110d457508280519060200120816040015180519060200120145b156110e35760019150506110e9565b60009150505b9392505050565b828054600181600116156101000203166002900490600052602060002090601f016020900481019282601f1061113157805160ff191683800117855561115f565b8280016001018555821561115f579182015b8281111561115e578251825591602001919060010190611143565b5b50905061116c91906111ef565b5090565b6040518060800160405280606081526020016060815260200160608152602001600081525090565b6040518060c001604052806000815260200160608152602001606081526020016060815260200160608152602001606081525090565b60405180606001604052806060815260200160608152602001606081525090565b61121191905b8082111561120d5760008160009055506001016111f5565b5090565b90565b60008135905061122381611a2d565b92915050565b60008135905061123881611a44565b92915050565b600082601f83011261124f57600080fd5b813561126261125d8261192a565b6118fd565b9150808252602083016020830185838301111561127e57600080fd5b6112898382846119da565b50505092915050565b6000813590506112a181611a5b565b92915050565b6000806000606084860312156112bc57600080fd5b60006112ca86828701611214565b935050602084013567ffffffffffffffff8111156112e757600080fd5b6112f38682870161123e565b925050604084013567ffffffffffffffff81111561131057600080fd5b61131c8682870161123e565b9150509250925092565b600080600080600060a0868803121561133e57600080fd5b600061134c88828901611214565b955050602086013567ffffffffffffffff81111561136957600080fd5b6113758882890161123e565b945050604086013567ffffffffffffffff81111561139257600080fd5b61139e8882890161123e565b935050606086013567ffffffffffffffff8111156113bb57600080fd5b6113c78882890161123e565b92505060806113d888828901611292565b9150509295509295909350565b6000602082840312156113f757600080fd5b600061140584828501611229565b91505092915050565b60008060006060848603121561142357600080fd5b600084013567ffffffffffffffff81111561143d57600080fd5b6114498682870161123e565b935050602084013567ffffffffffffffff81111561146657600080fd5b6114728682870161123e565b925050604084013567ffffffffffffffff81111561148f57600080fd5b61149b8682870161123e565b9150509250925092565b600080600080608085870312156114bb57600080fd5b600085013567ffffffffffffffff8111156114d557600080fd5b6114e18782880161123e565b945050602085013567ffffffffffffffff8111156114fe57600080fd5b61150a8782880161123e565b935050604085013567ffffffffffffffff81111561152757600080fd5b6115338782880161123e565b925050606085013567ffffffffffffffff81111561155057600080fd5b61155c8782880161123e565b91505092959194509250565b60008060008060008060c0878903121561158157600080fd5b600061158f89828a01611292565b965050602087013567ffffffffffffffff8111156115ac57600080fd5b6115b889828a0161123e565b955050604087013567ffffffffffffffff8111156115d557600080fd5b6115e189828a0161123e565b945050606087013567ffffffffffffffff8111156115fe57600080fd5b61160a89828a0161123e565b935050608087013567ffffffffffffffff81111561162757600080fd5b61163389828a0161123e565b92505060a087013567ffffffffffffffff81111561165057600080fd5b61165c89828a0161123e565b9150509295509295509295565b6116728161199a565b82525050565b611681816119a6565b82525050565b600061169282611961565b61169c818561196c565b93506116ac8185602086016119e9565b6116b581611a1c565b840191505092915050565b60006116cb82611961565b6116d5818561197d565b93506116e58185602086016119e9565b80840191505092915050565b60006116fc82611956565b611706818561196c565b93506117168185602086016119e9565b61171f81611a1c565b840191505092915050565b611733816119d0565b82525050565b600061174582846116c0565b915081905092915050565b60006020820190506117656000830184611669565b92915050565b60006020820190506117806000830184611678565b92915050565b600060c08201905061179b600083018961172a565b81810360208301526117ad8188611687565b905081810360408301526117c18187611687565b905081810360608301526117d58186611687565b905081810360808301526117e98185611687565b905081810360a08301526117fd8184611687565b9050979650505050505050565b600060a08201905061181f600083018861172a565b818103602083015261183181876116f1565b9050818103604083015261184581866116f1565b9050818103606083015261185981856116f1565b9050818103608083015261186d81846116f1565b90509695505050505050565b600060c08201905061188e600083018961172a565b81810360208301526118a081886116f1565b905081810360408301526118b481876116f1565b905081810360608301526118c881866116f1565b905081810360808301526118dc81856116f1565b905081810360a08301526118f081846116f1565b9050979650505050505050565b6000604051905081810181811067ffffffffffffffff8211171561192057600080fd5b8060405250919050565b600067ffffffffffffffff82111561194157600080fd5b601f19601f8301169050602081019050919050565b600081519050919050565b600081519050919050565b600082825260208201905092915050565b600081905092915050565b6000611993826119b0565b9050919050565b60008115159050919050565b6000819050919050565b600073ffffffffffffffffffffffffffffffffffffffff82169050919050565b6000819050919050565b82818337600083830152505050565b60005b83811015611a075780820151818401526020810190506119ec565b83811115611a16576000848401525b50505050565b6000601f19601f8301169050919050565b611a3681611988565b8114611a4157600080fd5b50565b611a4d816119a6565b8114611a5857600080fd5b50565b611a64816119d0565b8114611a6f57600080fd5b5056fea365627a7a72315820026f818ea7b326320bb98b302f87f761613ec17aa109a3dc26c5c213c59577d16c6578706572696d656e74616cf564736f6c63430005100040",
  "source": "// SPDX-License-Identifier: MIT\r\npragma experimental ABIEncoderV2;\r\npragma solidity >=0.4.17<0.9.0;\r\n\r\ncontract System {\r\n\r\n    // Company Information (Certificate Number for Identity Management)\r\n    struct Company {\r\n        string name;\r\n        string email;\r\n        string password;\r\n        uint256 certificate_num;\r\n    }\r\n\r\n        struct User {\r\n        string name;\r\n        string email;\r\n        string password;\r\n    }\r\n    // Product Information (Image Link not the Actual Image Bytes)\r\n    // Company Name for Filteration\r\n    struct Product {\r\n        uint id;\r\n        string name;\r\n        string model;\r\n        string description;\r\n        string companyName;\r\n        string imageLink;\r\n    }\r\n\r\n    //Product public prod;\r\n\r\n    mapping(string => User) users;\r\n    mapping(address => Company) companies;\r\n    mapping(bytes32 => Product) public products;\r\n    mapping(string => uint[]) private companyProducts;\r\n\r\n\r\n\r\n\r\n    function register_User(string memory _useraddress,string memory _name, string memory _email, string memory _password) public {\r\n        users[_useraddress] = User(_name,_email,_password);\r\n    }\r\n\r\n    function register_Company(address _compaddress,string memory _name, string memory _email, string memory _password,uint256 _cert_num) public {\r\n        companies[_compaddress] = Company(_name,_email,_password,_cert_num);\r\n    }\r\n\r\n    function upload_Product(uint _id, string memory _name, string memory _model, string memory _description, string memory _companyName, string memory _imageLink) public returns (bytes32 hashed) {\r\n        Product memory p = Product(_id, _name, _model, _description, _companyName, _imageLink);\r\n        // Encoding Using the Four Attributes (Image Link Not Included)\r\n        bytes32 p_hashed = keccak256(abi.encode(p.id, p.name, p.model, p.description, p.companyName));\r\n        products[p_hashed] = p;\r\n\r\n        // Add the product ID to the array of product IDs for the respective company\r\n        companyProducts[_companyName].push(_id);\r\n        return p_hashed;\r\n    }\r\n\r\n    function login_user (string memory user_add , string memory _name , string memory _password) public view returns (bool found)\r\n    {\r\n            User memory user = users[user_add];\r\n            \r\n            // str compare keccak256(bytes(a)) == keccak256(bytes(b));\r\n            if(keccak256(bytes(user.name)) == keccak256(bytes(_name)) && keccak256(bytes(user.password)) == keccak256(bytes(_password)))\r\n                return true;\r\n            else\r\n                return false;\r\n    }\r\n\r\n    function login_company(address company_add, string memory _name, string memory _password) public view returns (bool found) {\r\n        Company memory company = companies[company_add];\r\n        // Compare company name and password using keccak256\r\n        if (keccak256(bytes(company.name)) == keccak256(bytes(_name)) && keccak256(bytes(company.password)) == keccak256(bytes(_password)))\r\n            return true;\r\n        else\r\n            return false;\r\n    }\r\n\r\n    // Verify a product and return its attributes or null values if not found\r\n    function verify_product(bytes32 product_add) external view returns (uint, string memory, string memory, string memory, string memory, string memory) {\r\n        // Get the product using the Company_Con contract's get_product function\r\n        System.Product memory product = products[product_add];\r\n\r\n        // Check if the product exists\r\n        if (product.id == 0) {\r\n            // Return null values if the product does not exist\r\n            return (0, \"\", \"\", \"\", \"\", \"\");\r\n        }\r\n        else {\r\n            // Return the product attributes if the product exists\r\n            return (product.id, product.name, product.model, product.description, product.companyName, product.imageLink);\r\n        }\r\n    }\r\n\r\n\r\n    \r\n}\r\n\r\n\r\n\r\n\r\n// // Company Smart Contract\r\n// contract Company_Con {\r\n//     // Company Information (Certificate Number for Identity Management)\r\n//     struct Company {\r\n//         string name;\r\n//         string email;\r\n//         string password;\r\n//         uint256 certificate_num;\r\n//     }\r\n//     // Product Information (Image Link not the Actual Image Bytes)\r\n//     // Company Name for Filteration\r\n//     struct Product {\r\n//         uint id;\r\n//         string name;\r\n//         string model;\r\n//         string description;\r\n//         string companyName;\r\n//         string imageLink;\r\n//     }\r\n//     // Reprot Information (Company Name for Filteration)\r\n//     struct Report {\r\n//         uint id;\r\n//         string message;\r\n//         string companyName;\r\n//     }\r\n\r\n//     // Map MetaMask Account with the Company Object\r\n//     mapping(address => Company) companies;\r\n//     // Map Product Hash with the Product Object\r\n//     mapping(bytes32 => Product) public products;\r\n//     // Map the Report Id with the Report Object\r\n//     mapping(uint => Report) public reports;\r\n//     // Map Company Name to an array of Product IDs\r\n//     mapping(string => uint[]) private companyProducts;\r\n//     // Map MetaMask Address to the User Obeject\r\n//     mapping(address => User) users;\r\n\r\n//     // Register a Company Using It's Address\r\n//     function register_Company(address _compaddress, string memory _name, string memory _email, string memory _password, uint256 _cert_num) public {\r\n//         companies[_compaddress] = Company(_name, _email, _password, _cert_num);\r\n//     }\r\n\r\n//     // Login a company Using It's Address\r\n//     function login_company(address company_add, string memory _name, string memory _password) public view returns (bool found) {\r\n//         Company memory company = companies[company_add];\r\n//         // Compare company name and password using keccak256\r\n//         if (keccak256(bytes(company.name)) == keccak256(bytes(_name)) && keccak256(bytes(company.password)) == keccak256(bytes(_password)))\r\n//             return true;\r\n//         else\r\n//             return false;\r\n//     }\r\n\r\n//     // Upload a Product & Calculate It's Hash\r\n//     function upload_Product(uint _id, string memory _name, string memory _model, string memory _description, string memory _companyName, string memory _imageLink) public returns (bytes32 hashed) {\r\n//         Product memory p = Product(_id, _name, _model, _description, _companyName, _imageLink);\r\n//         // Encoding Using the Four Attributes (Image Link Not Included)\r\n//         bytes32 p_hashed = keccak256(abi.encode(p.id, p.name, p.model, p.description, p.companyName));\r\n//         products[p_hashed] = p;\r\n\r\n//         // Add the product ID to the array of product IDs for the respective company\r\n//         companyProducts[_companyName].push(_id);\r\n//         return p_hashed;\r\n//     }\r\n\r\n//     // Get a Product by its Hash\r\n//     function get_product(bytes32 product_add) external view returns (Product memory Prod) {\r\n//         return products[product_add];\r\n//     }\r\n\r\n//     // Get Products by Company Name\r\n//     function get_products_by_company(string memory company_name) public view returns (Product[] memory) {\r\n//         uint[] memory productIds = companyProducts[company_name];\r\n//         Product[] memory result = new Product[](productIds.length);\r\n\r\n//         for (uint i = 0; i < productIds.length; i++) {\r\n//             bytes32 productKey = keccak256(abi.encode(productIds[i]));\r\n//             result[i] = products[productKey];\r\n//         }\r\n//         return result;\r\n//     }\r\n\r\n//     // Receive a Report & Store it in the Mapping\r\n//     function receive_report(uint _id, string memory _message, string memory _companyName) public {\r\n//         Report memory r = Report(_id, _message, _companyName);\r\n//         reports[r.id] = r;\r\n//     }\r\n\r\n//     // Get a Report by its ID (Need Modifications)\r\n//     function get_report(uint report_id) external view returns (Report memory rep) {\r\n//         return reports[report_id];\r\n//     }\r\n\r\n//     // User Information for Logging In\r\n//     struct User {\r\n//         string name;\r\n//         string email;\r\n//         string password;\r\n//     }\r\n\r\n//     // Register a User Using It's Address\r\n//     function register_User(address _useraddress, string memory _name, string memory _email, string memory _password) public {\r\n//         users[_useraddress] = User(_name, _email, _password);\r\n//     }\r\n\r\n//     // Login a User Using It's Address\r\n//     function login_user(address user_add, string memory _name, string memory _password) public view returns (bool found) {\r\n//         User memory user = users[user_add];\r\n//         // Compare user name and password using keccak256\r\n//         if (keccak256(bytes(user.name)) == keccak256(bytes(_name)) && keccak256(bytes(user.password)) == keccak256(bytes(_password)))\r\n//             return true;\r\n//         else\r\n//             return false;\r\n//     }\r\n\r\n//     // Verify a product and return its attributes or null values if not found\r\n//     function verify_product(bytes32 product_add) external view returns (uint, string memory, string memory, string memory, string memory, string memory) {\r\n//         // Get the product using the Company_Con contract's get_product function\r\n//         Company_Con.Product memory product = products[product_add];\r\n\r\n//         // Check if the product exists\r\n//         if (product.id == 0) {\r\n//             // Return null values if the product does not exist\r\n//             return (0, \"\", \"\", \"\", \"\", \"\");\r\n//         }\r\n//         else {\r\n//             // Return the product attributes if the product exists\r\n//             return (product.id, product.name, product.model, product.description, product.companyName, product.imageLink);\r\n//         }\r\n//     }\r\n// }",
  "sourcePath": "C:\\Users\\MSI-PC\\Desktop\\Fake Products Detection\\contracts\\System.sol",
  "compiler": {
    "name": "solc",
    "version": "0.5.16+commit.9c3226ce.Emscripten.clang"
  },
  "schemaVersion": "3.4.13",
  "updatedAt": "2023-07-01T12:20:08.193Z",
  "networkType": "ethereum",
  "devdoc": {
    "methods": {}
  },
  "userdoc": {
    "methods": {}
  }
}