{
  "contractName": "System",
  "abi": [
    {
      "constant": true,
      "inputs": [
        {
          "internalType": "bytes32",
          "name": "",
          "type": "bytes32"
        }
      ],
      "name": "products",
      "outputs": [
        {
          "internalType": "uint256",
          "name": "id",
          "type": "uint256"
        },
        {
          "internalType": "string",
          "name": "name",
          "type": "string"
        },
        {
          "internalType": "string",
          "name": "model",
          "type": "string"
        },
        {
          "internalType": "string",
          "name": "description",
          "type": "string"
        },
        {
          "internalType": "string",
          "name": "companyName",
          "type": "string"
        },
        {
          "internalType": "string",
          "name": "imageLink",
          "type": "string"
        }
      ],
      "payable": false,
      "stateMutability": "view",
      "type": "function"
    },
    {
      "constant": false,
      "inputs": [
        {
          "internalType": "string",
          "name": "_useraddress",
          "type": "string"
        },
        {
          "internalType": "string",
          "name": "_name",
          "type": "string"
        },
        {
          "internalType": "string",
          "name": "_email",
          "type": "string"
        },
        {
          "internalType": "string",
          "name": "_password",
          "type": "string"
        }
      ],
      "name": "register_User",
      "outputs": [],
      "payable": false,
      "stateMutability": "nonpayable",
      "type": "function"
    },
    {
      "constant": false,
      "inputs": [
        {
          "internalType": "address",
          "name": "_compaddress",
          "type": "address"
        },
        {
          "internalType": "string",
          "name": "_name",
          "type": "string"
        },
        {
          "internalType": "string",
          "name": "_email",
          "type": "string"
        },
        {
          "internalType": "string",
          "name": "_password",
          "type": "string"
        },
        {
          "internalType": "uint256",
          "name": "_cert_num",
          "type": "uint256"
        }
      ],
      "name": "register_Company",
      "outputs": [],
      "payable": false,
      "stateMutability": "nonpayable",
      "type": "function"
    },
    {
      "constant": true,
      "inputs": [
        {
          "internalType": "string",
          "name": "user_add",
          "type": "string"
        },
        {
          "internalType": "string",
          "name": "_name",
          "type": "string"
        },
        {
          "internalType": "string",
          "name": "_password",
          "type": "string"
        }
      ],
      "name": "login_user",
      "outputs": [
        {
          "internalType": "bool",
          "name": "found",
          "type": "bool"
        }
      ],
      "payable": false,
      "stateMutability": "view",
      "type": "function"
    },
    {
      "constant": true,
      "inputs": [
        {
          "internalType": "address",
          "name": "company_add",
          "type": "address"
        },
        {
          "internalType": "string",
          "name": "_name",
          "type": "string"
        },
        {
          "internalType": "string",
          "name": "_password",
          "type": "string"
        }
      ],
      "name": "login_company",
      "outputs": [
        {
          "internalType": "bool",
          "name": "found",
          "type": "bool"
        }
      ],
      "payable": false,
      "stateMutability": "view",
      "type": "function"
    },
    {
      "constant": false,
      "inputs": [
        {
          "internalType": "uint256",
          "name": "_id",
          "type": "uint256"
        },
        {
          "internalType": "string",
          "name": "_name",
          "type": "string"
        },
        {
          "internalType": "string",
          "name": "_model",
          "type": "string"
        },
        {
          "internalType": "string",
          "name": "_description",
          "type": "string"
        },
        {
          "internalType": "string",
          "name": "_companyName",
          "type": "string"
        },
        {
          "internalType": "string",
          "name": "_imageLink",
          "type": "string"
        }
      ],
      "name": "upload_Product",
      "outputs": [
        {
          "internalType": "bytes32",
          "name": "hashed",
          "type": "bytes32"
        }
      ],
      "payable": false,
      "stateMutability": "nonpayable",
      "type": "function"
    },
    {
      "constant": true,
      "inputs": [
        {
          "internalType": "bytes32",
          "name": "product_add",
          "type": "bytes32"
        }
      ],
      "name": "get_product",
      "outputs": [
        {
          "components": [
            {
              "internalType": "uint256",
              "name": "id",
              "type": "uint256"
            },
            {
              "internalType": "string",
              "name": "name",
              "type": "string"
            },
            {
              "internalType": "string",
              "name": "model",
              "type": "string"
            },
            {
              "internalType": "string",
              "name": "description",
              "type": "string"
            },
            {
              "internalType": "string",
              "name": "companyName",
              "type": "string"
            },
            {
              "internalType": "string",
              "name": "imageLink",
              "type": "string"
            }
          ],
          "internalType": "struct System.Product",
          "name": "Prod",
          "type": "tuple"
        }
      ],
      "payable": false,
      "stateMutability": "view",
      "type": "function"
    },
    {
      "constant": true,
      "inputs": [
        {
          "internalType": "bytes32",
          "name": "product_add",
          "type": "bytes32"
        }
      ],
      "name": "verify_product",
      "outputs": [
        {
          "internalType": "uint256",
          "name": "",
          "type": "uint256"
        },
        {
          "internalType": "string",
          "name": "",
          "type": "string"
        },
        {
          "internalType": "string",
          "name": "",
          "type": "string"
        },
        {
          "internalType": "string",
          "name": "",
          "type": "string"
        },
        {
          "internalType": "string",
          "name": "",
          "type": "string"
        },
        {
          "internalType": "string",
          "name": "",
          "type": "string"
        }
      ],
      "payable": false,
      "stateMutability": "view",
      "type": "function"
    }
  ],
  "bytecode": "0x608060405234801561001057600080fd5b50611f71806100206000396000f3fe608060405234801561001057600080fd5b50600436106100885760003560e01c80639e7ef11a1161005b5780639e7ef11a1461013e578063af87729e1461016e578063ce2aae34146101a3578063d23c91f5146101bf57610088565b8063133af9581461008d5780631ee6851c146100a957806379054391146100d95780638ace7b9b1461010e575b600080fd5b6100a760048036036100a291908101906116c2565b6101ef565b005b6100c360048036036100be9190810190611781565b6102ba565b6040516100d09190611c0f565b60405180910390f35b6100f360048036036100ee9190810190611781565b61061b565b60405161010596959493929190611d24565b60405180910390f35b61012860048036036101239190810190611643565b61094f565b6040516101359190611bd9565b60405180910390f35b61015860048036036101539190810190611904565b610be3565b6040516101659190611bf4565b60405180910390f35b61018860048036036101839190810190611781565b610d6c565b60405161019a96959493929190611c31565b60405180910390f35b6101bd60048036036101b89190810190611841565b61118a565b005b6101d960048036036101d491908101906117aa565b611223565b6040516101e69190611bd9565b60405180910390f35b604051806080016040528085815260200184815260200183815260200182815250600160008773ffffffffffffffffffffffffffffffffffffffff1673ffffffffffffffffffffffffffffffffffffffff168152602001908152602001600020600082015181600001908051906020019061026b92919061148c565b50602082015181600101908051906020019061028892919061148c565b5060408201518160020190805190602001906102a592919061148c565b50606082015181600301559050505050505050565b6102c261150c565b600260008381526020019081526020016000206040518060c001604052908160008201548152602001600182018054600181600116156101000203166002900480601f0160208091040260200160405190810160405280929190818152602001828054600181600116156101000203166002900480156103835780601f1061035857610100808354040283529160200191610383565b820191906000526020600020905b81548152906001019060200180831161036657829003601f168201915b50505050508152602001600282018054600181600116156101000203166002900480601f0160208091040260200160405190810160405280929190818152602001828054600181600116156101000203166002900480156104255780601f106103fa57610100808354040283529160200191610425565b820191906000526020600020905b81548152906001019060200180831161040857829003601f168201915b50505050508152602001600382018054600181600116156101000203166002900480601f0160208091040260200160405190810160405280929190818152602001828054600181600116156101000203166002900480156104c75780601f1061049c576101008083540402835291602001916104c7565b820191906000526020600020905b8154815290600101906020018083116104aa57829003601f168201915b50505050508152602001600482018054600181600116156101000203166002900480601f0160208091040260200160405190810160405280929190818152602001828054600181600116156101000203166002900480156105695780601f1061053e57610100808354040283529160200191610569565b820191906000526020600020905b81548152906001019060200180831161054c57829003601f168201915b50505050508152602001600582018054600181600116156101000203166002900480601f01602080910402602001604051908101604052809291908181526020018280546001816001161561010002031660029004801561060b5780601f106105e05761010080835404028352916020019161060b565b820191906000526020600020905b8154815290600101906020018083116105ee57829003601f168201915b5050505050815250509050919050565b6002602052806000526040600020600091509050806000015490806001018054600181600116156101000203166002900480601f0160208091040260200160405190810160405280929190818152602001828054600181600116156101000203166002900480156106cd5780601f106106a2576101008083540402835291602001916106cd565b820191906000526020600020905b8154815290600101906020018083116106b057829003601f168201915b505050505090806002018054600181600116156101000203166002900480601f01602080910402602001604051908101604052809291908181526020018280546001816001161561010002031660029004801561076b5780601f106107405761010080835404028352916020019161076b565b820191906000526020600020905b81548152906001019060200180831161074e57829003601f168201915b505050505090806003018054600181600116156101000203166002900480601f0160208091040260200160405190810160405280929190818152602001828054600181600116156101000203166002900480156108095780601f106107de57610100808354040283529160200191610809565b820191906000526020600020905b8154815290600101906020018083116107ec57829003601f168201915b505050505090806004018054600181600116156101000203166002900480601f0160208091040260200160405190810160405280929190818152602001828054600181600116156101000203166002900480156108a75780601f1061087c576101008083540402835291602001916108a7565b820191906000526020600020905b81548152906001019060200180831161088a57829003601f168201915b505050505090806005018054600181600116156101000203166002900480601f0160208091040260200160405190810160405280929190818152602001828054600181600116156101000203166002900480156109455780601f1061091a57610100808354040283529160200191610945565b820191906000526020600020905b81548152906001019060200180831161092857829003601f168201915b5050505050905086565b6000610959611542565b600160008673ffffffffffffffffffffffffffffffffffffffff1673ffffffffffffffffffffffffffffffffffffffff168152602001908152602001600020604051806080016040529081600082018054600181600116156101000203166002900480601f016020809104026020016040519081016040528092919081815260200182805460018160011615610100020316600290048015610a3c5780601f10610a1157610100808354040283529160200191610a3c565b820191906000526020600020905b815481529060010190602001808311610a1f57829003601f168201915b50505050508152602001600182018054600181600116156101000203166002900480601f016020809104026020016040519081016040528092919081815260200182805460018160011615610100020316600290048015610ade5780601f10610ab357610100808354040283529160200191610ade565b820191906000526020600020905b815481529060010190602001808311610ac157829003601f168201915b50505050508152602001600282018054600181600116156101000203166002900480601f016020809104026020016040519081016040528092919081815260200182805460018160011615610100020316600290048015610b805780601f10610b5557610100808354040283529160200191610b80565b820191906000526020600020905b815481529060010190602001808311610b6357829003601f168201915b5050505050815260200160038201548152505090508380519060200120816000015180519060200120148015610bc757508280519060200120816040015180519060200120145b15610bd6576001915050610bdc565b60009150505b9392505050565b6000610bed61150c565b6040518060c00160405280898152602001888152602001878152602001868152602001858152602001848152509050600081600001518260200151836040015184606001518560800151604051602001610c4b959493929190611cb5565b6040516020818303038152906040528051906020012090508160026000838152602001908152602001600020600082015181600001556020820151816001019080519060200190610c9d92919061148c565b506040820151816002019080519060200190610cba92919061148c565b506060820151816003019080519060200190610cd792919061148c565b506080820151816004019080519060200190610cf492919061148c565b5060a0820151816005019080519060200190610d1192919061148c565b50905050600385604051610d259190611bc2565b908152602001604051809103902089908060018154018082558091505090600182039060005260206000200160009091929091909150555080925050509695505050505050565b60006060806060806060610d7e61150c565b600260008981526020019081526020016000206040518060c001604052908160008201548152602001600182018054600181600116156101000203166002900480601f016020809104026020016040519081016040528092919081815260200182805460018160011615610100020316600290048015610e3f5780601f10610e1457610100808354040283529160200191610e3f565b820191906000526020600020905b815481529060010190602001808311610e2257829003601f168201915b50505050508152602001600282018054600181600116156101000203166002900480601f016020809104026020016040519081016040528092919081815260200182805460018160011615610100020316600290048015610ee15780601f10610eb657610100808354040283529160200191610ee1565b820191906000526020600020905b815481529060010190602001808311610ec457829003601f168201915b50505050508152602001600382018054600181600116156101000203166002900480601f016020809104026020016040519081016040528092919081815260200182805460018160011615610100020316600290048015610f835780601f10610f5857610100808354040283529160200191610f83565b820191906000526020600020905b815481529060010190602001808311610f6657829003601f168201915b50505050508152602001600482018054600181600116156101000203166002900480601f0160208091040260200160405190810160405280929190818152602001828054600181600116156101000203166002900480156110255780601f10610ffa57610100808354040283529160200191611025565b820191906000526020600020905b81548152906001019060200180831161100857829003601f168201915b50505050508152602001600582018054600181600116156101000203166002900480601f0160208091040260200160405190810160405280929190818152602001828054600181600116156101000203166002900480156110c75780601f1061109c576101008083540402835291602001916110c7565b820191906000526020600020905b8154815290600101906020018083116110aa57829003601f168201915b5050505050815250509050600081600001511415611146576000809050604051806020016040528060008152506040518060200160405280600081525060405180602001604052806000815250604051806020016040528060008152506040518060200160405280600081525096509650965096509650965050611181565b806000015181602001518260400151836060015184608001518560a00151849450839350829250819150809050965096509650965096509650505b91939550919395565b6040518060600160405280848152602001838152602001828152506000856040516111b59190611bc2565b908152602001604051809103902060008201518160000190805190602001906111df92919061148c565b5060208201518160010190805190602001906111fc92919061148c565b50604082015181600201908051906020019061121992919061148c565b5090505050505050565b600061122d61156a565b60008560405161123d9190611bc2565b9081526020016040518091039020604051806060016040529081600082018054600181600116156101000203166002900480601f0160208091040260200160405190810160405280929190818152602001828054600181600116156101000203166002900480156112ef5780601f106112c4576101008083540402835291602001916112ef565b820191906000526020600020905b8154815290600101906020018083116112d257829003601f168201915b50505050508152602001600182018054600181600116156101000203166002900480601f0160208091040260200160405190810160405280929190818152602001828054600181600116156101000203166002900480156113915780601f1061136657610100808354040283529160200191611391565b820191906000526020600020905b81548152906001019060200180831161137457829003601f168201915b50505050508152602001600282018054600181600116156101000203166002900480601f0160208091040260200160405190810160405280929190818152602001828054600181600116156101000203166002900480156114335780601f1061140857610100808354040283529160200191611433565b820191906000526020600020905b81548152906001019060200180831161141657829003601f168201915b5050505050815250509050838051906020012081600001518051906020012014801561147057508280519060200120816040015180519060200120145b1561147f576001915050611485565b60009150505b9392505050565b828054600181600116156101000203166002900490600052602060002090601f016020900481019282601f106114cd57805160ff19168380011785556114fb565b828001600101855582156114fb579182015b828111156114fa5782518255916020019190600101906114df565b5b509050611508919061158b565b5090565b6040518060c001604052806000815260200160608152602001606081526020016060815260200160608152602001606081525090565b6040518060800160405280606081526020016060815260200160608152602001600081525090565b60405180606001604052806060815260200160608152602001606081525090565b6115ad91905b808211156115a9576000816000905550600101611591565b5090565b90565b6000813590506115bf81611ee9565b92915050565b6000813590506115d481611f00565b92915050565b600082601f8301126115eb57600080fd5b81356115fe6115f982611dd5565b611da8565b9150808252602083016020830185838301111561161a57600080fd5b611625838284611e96565b50505092915050565b60008135905061163d81611f17565b92915050565b60008060006060848603121561165857600080fd5b6000611666868287016115b0565b935050602084013567ffffffffffffffff81111561168357600080fd5b61168f868287016115da565b925050604084013567ffffffffffffffff8111156116ac57600080fd5b6116b8868287016115da565b9150509250925092565b600080600080600060a086880312156116da57600080fd5b60006116e8888289016115b0565b955050602086013567ffffffffffffffff81111561170557600080fd5b611711888289016115da565b945050604086013567ffffffffffffffff81111561172e57600080fd5b61173a888289016115da565b935050606086013567ffffffffffffffff81111561175757600080fd5b611763888289016115da565b92505060806117748882890161162e565b9150509295509295909350565b60006020828403121561179357600080fd5b60006117a1848285016115c5565b91505092915050565b6000806000606084860312156117bf57600080fd5b600084013567ffffffffffffffff8111156117d957600080fd5b6117e5868287016115da565b935050602084013567ffffffffffffffff81111561180257600080fd5b61180e868287016115da565b925050604084013567ffffffffffffffff81111561182b57600080fd5b611837868287016115da565b9150509250925092565b6000806000806080858703121561185757600080fd5b600085013567ffffffffffffffff81111561187157600080fd5b61187d878288016115da565b945050602085013567ffffffffffffffff81111561189a57600080fd5b6118a6878288016115da565b935050604085013567ffffffffffffffff8111156118c357600080fd5b6118cf878288016115da565b925050606085013567ffffffffffffffff8111156118ec57600080fd5b6118f8878288016115da565b91505092959194509250565b60008060008060008060c0878903121561191d57600080fd5b600061192b89828a0161162e565b965050602087013567ffffffffffffffff81111561194857600080fd5b61195489828a016115da565b955050604087013567ffffffffffffffff81111561197157600080fd5b61197d89828a016115da565b945050606087013567ffffffffffffffff81111561199a57600080fd5b6119a689828a016115da565b935050608087013567ffffffffffffffff8111156119c357600080fd5b6119cf89828a016115da565b92505060a087013567ffffffffffffffff8111156119ec57600080fd5b6119f889828a016115da565b9150509295509295509295565b611a0e81611e56565b82525050565b611a1d81611e62565b82525050565b6000611a2e82611e0c565b611a388185611e28565b9350611a48818560208601611ea5565b611a5181611ed8565b840191505092915050565b6000611a6782611e0c565b611a718185611e39565b9350611a81818560208601611ea5565b80840191505092915050565b6000611a9882611e01565b611aa28185611e17565b9350611ab2818560208601611ea5565b611abb81611ed8565b840191505092915050565b6000611ad182611e01565b611adb8185611e28565b9350611aeb818560208601611ea5565b611af481611ed8565b840191505092915050565b600060c083016000830151611b176000860182611ba4565b5060208301518482036020860152611b2f8282611a8d565b91505060408301518482036040860152611b498282611a8d565b91505060608301518482036060860152611b638282611a8d565b91505060808301518482036080860152611b7d8282611a8d565b91505060a083015184820360a0860152611b978282611a8d565b9150508091505092915050565b611bad81611e8c565b82525050565b611bbc81611e8c565b82525050565b6000611bce8284611a5c565b915081905092915050565b6000602082019050611bee6000830184611a05565b92915050565b6000602082019050611c096000830184611a14565b92915050565b60006020820190508181036000830152611c298184611aff565b905092915050565b600060c082019050611c466000830189611bb3565b8181036020830152611c588188611a23565b90508181036040830152611c6c8187611a23565b90508181036060830152611c808186611a23565b90508181036080830152611c948185611a23565b905081810360a0830152611ca88184611a23565b9050979650505050505050565b600060a082019050611cca6000830188611bb3565b8181036020830152611cdc8187611ac6565b90508181036040830152611cf08186611ac6565b90508181036060830152611d048185611ac6565b90508181036080830152611d188184611ac6565b90509695505050505050565b600060c082019050611d396000830189611bb3565b8181036020830152611d4b8188611ac6565b90508181036040830152611d5f8187611ac6565b90508181036060830152611d738186611ac6565b90508181036080830152611d878185611ac6565b905081810360a0830152611d9b8184611ac6565b9050979650505050505050565b6000604051905081810181811067ffffffffffffffff82111715611dcb57600080fd5b8060405250919050565b600067ffffffffffffffff821115611dec57600080fd5b601f19601f8301169050602081019050919050565b600081519050919050565b600081519050919050565b600082825260208201905092915050565b600082825260208201905092915050565b600081905092915050565b6000611e4f82611e6c565b9050919050565b60008115159050919050565b6000819050919050565b600073ffffffffffffffffffffffffffffffffffffffff82169050919050565b6000819050919050565b82818337600083830152505050565b60005b83811015611ec3578082015181840152602081019050611ea8565b83811115611ed2576000848401525b50505050565b6000601f19601f8301169050919050565b611ef281611e44565b8114611efd57600080fd5b50565b611f0981611e62565b8114611f1457600080fd5b50565b611f2081611e8c565b8114611f2b57600080fd5b5056fea365627a7a72315820527e8b7073a741e834a4e2f580766bb42b759cb63f4226b7c7795b16802a4bab6c6578706572696d656e74616cf564736f6c63430005100040",
  "source": "// SPDX-License-Identifier: MIT\r\npragma experimental ABIEncoderV2;\r\npragma solidity >=0.4.17<0.9.0;\r\n\r\ncontract System {\r\n\r\n    // Company Information (Certificate Number for Identity Management)\r\n    struct Company {\r\n        string name;\r\n        string email;\r\n        string password;\r\n        uint256 certificate_num;\r\n    }\r\n\r\n        struct User {\r\n        string name;\r\n        string email;\r\n        string password;\r\n    }\r\n    // Product Information (Image Link not the Actual Image Bytes)\r\n    // Company Name for Filteration\r\n    struct Product {\r\n        uint id;\r\n        string name;\r\n        string model;\r\n        string description;\r\n        string companyName;\r\n        string imageLink;\r\n    }\r\n\r\n    //Product public prod;\r\n\r\n    mapping(string => User) users;\r\n    mapping(address => Company) companies;\r\n    mapping(bytes32 => Product) public products;\r\n    mapping(string => uint[]) private companyProducts;\r\n\r\n\r\n\r\n\r\n    function register_User(string memory _useraddress,string memory _name, string memory _email, string memory _password) public {\r\n        users[_useraddress] = User(_name,_email,_password);\r\n    }\r\n\r\n    function register_Company(address _compaddress,string memory _name, string memory _email, string memory _password,uint256 _cert_num) public {\r\n        companies[_compaddress] = Company(_name,_email,_password,_cert_num);\r\n    }\r\n\r\n    function login_user (string memory user_add , string memory _name , string memory _password) public view returns (bool found)\r\n    {\r\n            User memory user = users[user_add];\r\n            \r\n            // str compare keccak256(bytes(a)) == keccak256(bytes(b));\r\n            if(keccak256(bytes(user.name)) == keccak256(bytes(_name)) && keccak256(bytes(user.password)) == keccak256(bytes(_password)))\r\n                return true;\r\n            else\r\n                return false;\r\n    }\r\n\r\n    function login_company(address company_add, string memory _name, string memory _password) public view returns (bool found) {\r\n        Company memory company = companies[company_add];\r\n        // Compare company name and password using keccak256\r\n        if (keccak256(bytes(company.name)) == keccak256(bytes(_name)) && keccak256(bytes(company.password)) == keccak256(bytes(_password)))\r\n            return true;\r\n        else\r\n            return false;\r\n    }\r\n\r\n    function upload_Product(uint _id, string memory _name, string memory _model, string memory _description, string memory _companyName, string memory _imageLink) public returns (bytes32 hashed) {\r\n        Product memory p = Product(_id, _name, _model, _description, _companyName, _imageLink);\r\n        // Encoding Using the Four Attributes (Image Link Not Included)\r\n        bytes32 p_hashed = keccak256(abi.encode(p.id, p.name, p.model, p.description, p.companyName));\r\n        products[p_hashed] = p;\r\n\r\n        // Add the product ID to the array of product IDs for the respective company\r\n        companyProducts[_companyName].push(_id);\r\n        return p_hashed;\r\n    }\r\n    \r\n        // Get a Product by its Hash\r\n    function get_product(bytes32 product_add) external view returns (Product memory Prod) {\r\n        return products[product_add];\r\n    }\r\n\r\n\r\n    // Verify a product and return its attributes or null values if not found\r\n    function verify_product(bytes32 product_add) external view returns (uint, string memory, string memory, string memory, string memory, string memory) {\r\n        // Get the product using the Company_Con contract's get_product function\r\n        System.Product memory product = products[product_add];\r\n\r\n        // Check if the product exists\r\n        if (product.id == 0) {\r\n            // Return null values if the product does not exist\r\n            return (0, \"\", \"\", \"\", \"\", \"\");\r\n        }\r\n        else {\r\n            // Return the product attributes if the product exists\r\n            return (product.id, product.name, product.model, product.description, product.companyName, product.imageLink);\r\n        }\r\n    }\r\n\r\n\r\n    \r\n}\r\n\r\n\r\n\r\n\r\n// // Company Smart Contract\r\n// contract Company_Con {\r\n//     // Company Information (Certificate Number for Identity Management)\r\n//     struct Company {\r\n//         string name;\r\n//         string email;\r\n//         string password;\r\n//         uint256 certificate_num;\r\n//     }\r\n//     // Product Information (Image Link not the Actual Image Bytes)\r\n//     // Company Name for Filteration\r\n//     struct Product {\r\n//         uint id;\r\n//         string name;\r\n//         string model;\r\n//         string description;\r\n//         string companyName;\r\n//         string imageLink;\r\n//     }\r\n//     // Reprot Information (Company Name for Filteration)\r\n//     struct Report {\r\n//         uint id;\r\n//         string message;\r\n//         string companyName;\r\n//     }\r\n\r\n//     // Map MetaMask Account with the Company Object\r\n//     mapping(address => Company) companies;\r\n//     // Map Product Hash with the Product Object\r\n//     mapping(bytes32 => Product) public products;\r\n//     // Map the Report Id with the Report Object\r\n//     mapping(uint => Report) public reports;\r\n//     // Map Company Name to an array of Product IDs\r\n//     mapping(string => uint[]) private companyProducts;\r\n//     // Map MetaMask Address to the User Obeject\r\n//     mapping(address => User) users;\r\n\r\n//     // Register a Company Using It's Address\r\n//     function register_Company(address _compaddress, string memory _name, string memory _email, string memory _password, uint256 _cert_num) public {\r\n//         companies[_compaddress] = Company(_name, _email, _password, _cert_num);\r\n//     }\r\n\r\n//     // Login a company Using It's Address\r\n//     function login_company(address company_add, string memory _name, string memory _password) public view returns (bool found) {\r\n//         Company memory company = companies[company_add];\r\n//         // Compare company name and password using keccak256\r\n//         if (keccak256(bytes(company.name)) == keccak256(bytes(_name)) && keccak256(bytes(company.password)) == keccak256(bytes(_password)))\r\n//             return true;\r\n//         else\r\n//             return false;\r\n//     }\r\n\r\n//     // Upload a Product & Calculate It's Hash\r\n//     function upload_Product(uint _id, string memory _name, string memory _model, string memory _description, string memory _companyName, string memory _imageLink) public returns (bytes32 hashed) {\r\n//         Product memory p = Product(_id, _name, _model, _description, _companyName, _imageLink);\r\n//         // Encoding Using the Four Attributes (Image Link Not Included)\r\n//         bytes32 p_hashed = keccak256(abi.encode(p.id, p.name, p.model, p.description, p.companyName));\r\n//         products[p_hashed] = p;\r\n\r\n//         // Add the product ID to the array of product IDs for the respective company\r\n//         companyProducts[_companyName].push(_id);\r\n//         return p_hashed;\r\n//     }\r\n\r\n//     // Get a Product by its Hash\r\n//     function get_product(bytes32 product_add) external view returns (Product memory Prod) {\r\n//         return products[product_add];\r\n//     }\r\n\r\n//     // Get Products by Company Name\r\n//     function get_products_by_company(string memory company_name) public view returns (Product[] memory) {\r\n//         uint[] memory productIds = companyProducts[company_name];\r\n//         Product[] memory result = new Product[](productIds.length);\r\n\r\n//         for (uint i = 0; i < productIds.length; i++) {\r\n//             bytes32 productKey = keccak256(abi.encode(productIds[i]));\r\n//             result[i] = products[productKey];\r\n//         }\r\n//         return result;\r\n//     }\r\n\r\n//     // Receive a Report & Store it in the Mapping\r\n//     function receive_report(uint _id, string memory _message, string memory _companyName) public {\r\n//         Report memory r = Report(_id, _message, _companyName);\r\n//         reports[r.id] = r;\r\n//     }\r\n\r\n//     // Get a Report by its ID (Need Modifications)\r\n//     function get_report(uint report_id) external view returns (Report memory rep) {\r\n//         return reports[report_id];\r\n//     }\r\n\r\n//     // User Information for Logging In\r\n//     struct User {\r\n//         string name;\r\n//         string email;\r\n//         string password;\r\n//     }\r\n\r\n//     // Register a User Using It's Address\r\n//     function register_User(address _useraddress, string memory _name, string memory _email, string memory _password) public {\r\n//         users[_useraddress] = User(_name, _email, _password);\r\n//     }\r\n\r\n//     // Login a User Using It's Address\r\n//     function login_user(address user_add, string memory _name, string memory _password) public view returns (bool found) {\r\n//         User memory user = users[user_add];\r\n//         // Compare user name and password using keccak256\r\n//         if (keccak256(bytes(user.name)) == keccak256(bytes(_name)) && keccak256(bytes(user.password)) == keccak256(bytes(_password)))\r\n//             return true;\r\n//         else\r\n//             return false;\r\n//     }\r\n\r\n//     // Verify a product and return its attributes or null values if not found\r\n//     function verify_product(bytes32 product_add) external view returns (uint, string memory, string memory, string memory, string memory, string memory) {\r\n//         // Get the product using the Company_Con contract's get_product function\r\n//         Company_Con.Product memory product = products[product_add];\r\n\r\n//         // Check if the product exists\r\n//         if (product.id == 0) {\r\n//             // Return null values if the product does not exist\r\n//             return (0, \"\", \"\", \"\", \"\", \"\");\r\n//         }\r\n//         else {\r\n//             // Return the product attributes if the product exists\r\n//             return (product.id, product.name, product.model, product.description, product.companyName, product.imageLink);\r\n//         }\r\n//     }\r\n// }",
  "sourcePath": "C:\\Users\\Philip\\Desktop\\Fake-Products-Detection\\contracts\\System.sol",
  "compiler": {
    "name": "solc",
    "version": "0.5.16+commit.9c3226ce.Emscripten.clang"
  },
  "schemaVersion": "3.4.13",
  "updatedAt": "2023-07-01T23:36:03.322Z",
  "networkType": "ethereum",
  "devdoc": {
    "methods": {}
  },
  "userdoc": {
    "methods": {}
  }
}