{
  "contractName": "System",
  "abi": [
    {
      "constant": true,
      "inputs": [
        {
          "internalType": "bytes32",
          "name": "",
          "type": "bytes32"
        }
      ],
      "name": "products",
      "outputs": [
        {
          "internalType": "uint256",
          "name": "id",
          "type": "uint256"
        },
        {
          "internalType": "string",
          "name": "name",
          "type": "string"
        },
        {
          "internalType": "string",
          "name": "model",
          "type": "string"
        },
        {
          "internalType": "string",
          "name": "description",
          "type": "string"
        },
        {
          "internalType": "string",
          "name": "companyName",
          "type": "string"
        },
        {
          "internalType": "string",
          "name": "imageLink",
          "type": "string"
        }
      ],
      "payable": false,
      "stateMutability": "view",
      "type": "function"
    },
    {
      "constant": false,
      "inputs": [
        {
          "internalType": "string",
          "name": "_useraddress",
          "type": "string"
        },
        {
          "internalType": "string",
          "name": "_name",
          "type": "string"
        },
        {
          "internalType": "string",
          "name": "_email",
          "type": "string"
        },
        {
          "internalType": "string",
          "name": "_password",
          "type": "string"
        }
      ],
      "name": "register_User",
      "outputs": [],
      "payable": false,
      "stateMutability": "nonpayable",
      "type": "function"
    },
    {
      "constant": false,
      "inputs": [
        {
          "internalType": "address",
          "name": "_compaddress",
          "type": "address"
        },
        {
          "internalType": "string",
          "name": "_name",
          "type": "string"
        },
        {
          "internalType": "string",
          "name": "_email",
          "type": "string"
        },
        {
          "internalType": "string",
          "name": "_password",
          "type": "string"
        },
        {
          "internalType": "uint256",
          "name": "_cert_num",
          "type": "uint256"
        }
      ],
      "name": "register_Company",
      "outputs": [],
      "payable": false,
      "stateMutability": "nonpayable",
      "type": "function"
    },
    {
      "constant": true,
      "inputs": [
        {
          "internalType": "string",
          "name": "user_add",
          "type": "string"
        },
        {
          "internalType": "string",
          "name": "_name",
          "type": "string"
        },
        {
          "internalType": "string",
          "name": "_password",
          "type": "string"
        }
      ],
      "name": "login_user",
      "outputs": [
        {
          "internalType": "bool",
          "name": "found",
          "type": "bool"
        }
      ],
      "payable": false,
      "stateMutability": "view",
      "type": "function"
    },
    {
      "constant": true,
      "inputs": [
        {
          "internalType": "address",
          "name": "company_add",
          "type": "address"
        },
        {
          "internalType": "string",
          "name": "_name",
          "type": "string"
        },
        {
          "internalType": "string",
          "name": "_password",
          "type": "string"
        }
      ],
      "name": "login_company",
      "outputs": [
        {
          "internalType": "bool",
          "name": "found",
          "type": "bool"
        }
      ],
      "payable": false,
      "stateMutability": "view",
      "type": "function"
    },
    {
      "constant": false,
      "inputs": [
        {
          "components": [
            {
              "internalType": "uint256",
              "name": "id",
              "type": "uint256"
            },
            {
              "internalType": "string",
              "name": "name",
              "type": "string"
            },
            {
              "internalType": "string",
              "name": "model",
              "type": "string"
            },
            {
              "internalType": "string",
              "name": "description",
              "type": "string"
            },
            {
              "internalType": "string",
              "name": "companyName",
              "type": "string"
            },
            {
              "internalType": "string",
              "name": "imageLink",
              "type": "string"
            }
          ],
          "internalType": "struct System.Product[]",
          "name": "_products",
          "type": "tuple[]"
        }
      ],
      "name": "upload_Products",
      "outputs": [
        {
          "internalType": "bytes32[]",
          "name": "hashedArray",
          "type": "bytes32[]"
        }
      ],
      "payable": false,
      "stateMutability": "nonpayable",
      "type": "function"
    },
    {
      "constant": true,
      "inputs": [
        {
          "internalType": "bytes32",
          "name": "product_add",
          "type": "bytes32"
        }
      ],
      "name": "get_product",
      "outputs": [
        {
          "components": [
            {
              "internalType": "uint256",
              "name": "id",
              "type": "uint256"
            },
            {
              "internalType": "string",
              "name": "name",
              "type": "string"
            },
            {
              "internalType": "string",
              "name": "model",
              "type": "string"
            },
            {
              "internalType": "string",
              "name": "description",
              "type": "string"
            },
            {
              "internalType": "string",
              "name": "companyName",
              "type": "string"
            },
            {
              "internalType": "string",
              "name": "imageLink",
              "type": "string"
            }
          ],
          "internalType": "struct System.Product",
          "name": "Prod",
          "type": "tuple"
        }
      ],
      "payable": false,
      "stateMutability": "view",
      "type": "function"
    },
    {
      "constant": true,
      "inputs": [
        {
          "internalType": "string",
          "name": "Company_name",
          "type": "string"
        }
      ],
      "name": "retrieve_company_products",
      "outputs": [
        {
          "components": [
            {
              "internalType": "uint256",
              "name": "id",
              "type": "uint256"
            },
            {
              "internalType": "string",
              "name": "name",
              "type": "string"
            },
            {
              "internalType": "string",
              "name": "model",
              "type": "string"
            },
            {
              "internalType": "string",
              "name": "description",
              "type": "string"
            },
            {
              "internalType": "string",
              "name": "companyName",
              "type": "string"
            },
            {
              "internalType": "string",
              "name": "imageLink",
              "type": "string"
            }
          ],
          "internalType": "struct System.Product[]",
          "name": "products_array",
          "type": "tuple[]"
        }
      ],
      "payable": false,
      "stateMutability": "view",
      "type": "function"
    },
    {
      "constant": true,
      "inputs": [
        {
          "internalType": "bytes32",
          "name": "product_add",
          "type": "bytes32"
        }
      ],
      "name": "verify_product",
      "outputs": [
        {
          "internalType": "uint256",
          "name": "",
          "type": "uint256"
        },
        {
          "internalType": "string",
          "name": "",
          "type": "string"
        },
        {
          "internalType": "string",
          "name": "",
          "type": "string"
        },
        {
          "internalType": "string",
          "name": "",
          "type": "string"
        },
        {
          "internalType": "string",
          "name": "",
          "type": "string"
        },
        {
          "internalType": "string",
          "name": "",
          "type": "string"
        }
      ],
      "payable": false,
      "stateMutability": "view",
      "type": "function"
    },
    {
      "constant": false,
      "inputs": [
        {
          "internalType": "string",
          "name": "linkimage",
          "type": "string"
        },
        {
          "internalType": "string",
          "name": "location",
          "type": "string"
        },
        {
          "internalType": "string",
          "name": "description",
          "type": "string"
        },
        {
          "internalType": "string",
          "name": "companyname",
          "type": "string"
        }
      ],
      "name": "send_report",
      "outputs": [
        {
          "internalType": "string",
          "name": "desc",
          "type": "string"
        }
      ],
      "payable": false,
      "stateMutability": "nonpayable",
      "type": "function"
    },
    {
      "constant": true,
      "inputs": [],
      "name": "get_companies_names",
      "outputs": [
        {
          "internalType": "string[]",
          "name": "",
          "type": "string[]"
        }
      ],
      "payable": false,
      "stateMutability": "view",
      "type": "function"
    },
    {
      "constant": true,
      "inputs": [
        {
          "internalType": "string",
          "name": "company_name",
          "type": "string"
        }
      ],
      "name": "get_function_report",
      "outputs": [
        {
          "components": [
            {
              "internalType": "string",
              "name": "imageLink",
              "type": "string"
            },
            {
              "internalType": "string",
              "name": "Location",
              "type": "string"
            },
            {
              "internalType": "string",
              "name": "description",
              "type": "string"
            }
          ],
          "internalType": "struct System.Report[]",
          "name": "",
          "type": "tuple[]"
        }
      ],
      "payable": false,
      "stateMutability": "view",
      "type": "function"
    }
  ],
  "bytecode": "0x608060405234801561001057600080fd5b50612f49806100206000396000f3fe608060405234801561001057600080fd5b50600436106100b45760003560e01c8063af87729e11610071578063af87729e146101b8578063c03d28c3146101ed578063c25d2c931461021d578063ce2aae341461024d578063d23c91f514610269578063f087260814610299576100b4565b8063133af958146100b95780631ee6851c146100d557806379054391146101055780638ace7b9b1461013a578063950081a81461016a578063a91dd13514610188575b600080fd5b6100d360048036036100ce9190810190612196565b6102c9565b005b6100ef60048036036100ea9190810190612296565b6103fa565b6040516100fc9190612aaf565b60405180910390f35b61011f600480360361011a9190810190612296565b61075b565b60405161013196959493929190612bc4565b60405180910390f35b610154600480360361014f9190810190612117565b610a8f565b6040516101619190612a52565b60405180910390f35b610172610d23565b60405161017f91906129ec565b60405180910390f35b6101a2600480360361019d9190810190612255565b610eb5565b6040516101af91906129ca565b60405180910390f35b6101d260048036036101cd9190810190612296565b61108f565b6040516101e496959493929190612ad1565b60405180910390f35b61020760048036036102029190810190612397565b6114ad565b6040516102149190612a6d565b60405180910390f35b610237600480360361023291908101906122bf565b611581565b6040516102449190612a0e565b60405180910390f35b61026760048036036102629190810190612397565b611728565b005b610283600480360361027e9190810190612300565b6117c1565b6040516102909190612a52565b60405180910390f35b6102b360048036036102ae91908101906122bf565b611a2a565b6040516102c09190612a30565b60405180910390f35b604051806080016040528085815260200184815260200183815260200182815250600160008773ffffffffffffffffffffffffffffffffffffffff1673ffffffffffffffffffffffffffffffffffffffff1681526020019081526020016000206000820151816000019080519060200190610345929190611d2d565b506020820151816001019080519060200190610362929190611d2d565b50604082015181600201908051906020019061037f929190611d2d565b506060820151816003015590505060028590806001815401808255809150509060018203906000526020600020016000909192909190916101000a81548173ffffffffffffffffffffffffffffffffffffffff021916908373ffffffffffffffffffffffffffffffffffffffff160217905550505050505050565b610402611dad565b600360008381526020019081526020016000206040518060c001604052908160008201548152602001600182018054600181600116156101000203166002900480601f0160208091040260200160405190810160405280929190818152602001828054600181600116156101000203166002900480156104c35780601f10610498576101008083540402835291602001916104c3565b820191906000526020600020905b8154815290600101906020018083116104a657829003601f168201915b50505050508152602001600282018054600181600116156101000203166002900480601f0160208091040260200160405190810160405280929190818152602001828054600181600116156101000203166002900480156105655780601f1061053a57610100808354040283529160200191610565565b820191906000526020600020905b81548152906001019060200180831161054857829003601f168201915b50505050508152602001600382018054600181600116156101000203166002900480601f0160208091040260200160405190810160405280929190818152602001828054600181600116156101000203166002900480156106075780601f106105dc57610100808354040283529160200191610607565b820191906000526020600020905b8154815290600101906020018083116105ea57829003601f168201915b50505050508152602001600482018054600181600116156101000203166002900480601f0160208091040260200160405190810160405280929190818152602001828054600181600116156101000203166002900480156106a95780601f1061067e576101008083540402835291602001916106a9565b820191906000526020600020905b81548152906001019060200180831161068c57829003601f168201915b50505050508152602001600582018054600181600116156101000203166002900480601f01602080910402602001604051908101604052809291908181526020018280546001816001161561010002031660029004801561074b5780601f106107205761010080835404028352916020019161074b565b820191906000526020600020905b81548152906001019060200180831161072e57829003601f168201915b5050505050815250509050919050565b6003602052806000526040600020600091509050806000015490806001018054600181600116156101000203166002900480601f01602080910402602001604051908101604052809291908181526020018280546001816001161561010002031660029004801561080d5780601f106107e25761010080835404028352916020019161080d565b820191906000526020600020905b8154815290600101906020018083116107f057829003601f168201915b505050505090806002018054600181600116156101000203166002900480601f0160208091040260200160405190810160405280929190818152602001828054600181600116156101000203166002900480156108ab5780601f10610880576101008083540402835291602001916108ab565b820191906000526020600020905b81548152906001019060200180831161088e57829003601f168201915b505050505090806003018054600181600116156101000203166002900480601f0160208091040260200160405190810160405280929190818152602001828054600181600116156101000203166002900480156109495780601f1061091e57610100808354040283529160200191610949565b820191906000526020600020905b81548152906001019060200180831161092c57829003601f168201915b505050505090806004018054600181600116156101000203166002900480601f0160208091040260200160405190810160405280929190818152602001828054600181600116156101000203166002900480156109e75780601f106109bc576101008083540402835291602001916109e7565b820191906000526020600020905b8154815290600101906020018083116109ca57829003601f168201915b505050505090806005018054600181600116156101000203166002900480601f016020809104026020016040519081016040528092919081815260200182805460018160011615610100020316600290048015610a855780601f10610a5a57610100808354040283529160200191610a85565b820191906000526020600020905b815481529060010190602001808311610a6857829003601f168201915b5050505050905086565b6000610a99611de3565b600160008673ffffffffffffffffffffffffffffffffffffffff1673ffffffffffffffffffffffffffffffffffffffff168152602001908152602001600020604051806080016040529081600082018054600181600116156101000203166002900480601f016020809104026020016040519081016040528092919081815260200182805460018160011615610100020316600290048015610b7c5780601f10610b5157610100808354040283529160200191610b7c565b820191906000526020600020905b815481529060010190602001808311610b5f57829003601f168201915b50505050508152602001600182018054600181600116156101000203166002900480601f016020809104026020016040519081016040528092919081815260200182805460018160011615610100020316600290048015610c1e5780601f10610bf357610100808354040283529160200191610c1e565b820191906000526020600020905b815481529060010190602001808311610c0157829003601f168201915b50505050508152602001600282018054600181600116156101000203166002900480601f016020809104026020016040519081016040528092919081815260200182805460018160011615610100020316600290048015610cc05780601f10610c9557610100808354040283529160200191610cc0565b820191906000526020600020905b815481529060010190602001808311610ca357829003601f168201915b5050505050815260200160038201548152505090508380519060200120816000015180519060200120148015610d0757508280519060200120816040015180519060200120145b15610d16576001915050610d1c565b60009150505b9392505050565b606060006002805490509050606081604051908082528060200260200182016040528015610d6557816020015b6060815260200190600190039081610d505790505b50905060008090505b82811015610eac576001600060028381548110610d8757fe5b9060005260206000200160009054906101000a900473ffffffffffffffffffffffffffffffffffffffff1673ffffffffffffffffffffffffffffffffffffffff1673ffffffffffffffffffffffffffffffffffffffff1681526020019081526020016000206000018054600181600116156101000203166002900480601f016020809104026020016040519081016040528092919081815260200182805460018160011615610100020316600290048015610e835780601f10610e5857610100808354040283529160200191610e83565b820191906000526020600020905b815481529060010190602001808311610e6657829003601f168201915b5050505050828281518110610e9457fe5b60200260200101819052508080600101915050610d6e565b50809250505090565b6060808251604051908082528060200260200182016040528015610ee85781602001602082028038833980820191505090505b50905060008090505b835181101561108557610f02611dad565b848281518110610f0e57fe5b60200260200101519050600081600001518260200151836040015184606001518560800151604051602001610f47959493929190612b55565b6040516020818303038152906040528051906020012090508160036000838152602001908152602001600020600082015181600001556020820151816001019080519060200190610f99929190611d2d565b506040820151816002019080519060200190610fb6929190611d2d565b506060820151816003019080519060200190610fd3929190611d2d565b506080820151816004019080519060200190610ff0929190611d2d565b5060a082015181600501908051906020019061100d929190611d2d565b5090505060048260800151604051611025919061299c565b90815260200160405180910390208190806001815401808255809150509060018203906000526020600020016000909192909190915055508084848151811061106a57fe5b60200260200101818152505050508080600101915050610ef1565b5080915050919050565b600060608060608060606110a1611dad565b600360008981526020019081526020016000206040518060c001604052908160008201548152602001600182018054600181600116156101000203166002900480601f0160208091040260200160405190810160405280929190818152602001828054600181600116156101000203166002900480156111625780601f1061113757610100808354040283529160200191611162565b820191906000526020600020905b81548152906001019060200180831161114557829003601f168201915b50505050508152602001600282018054600181600116156101000203166002900480601f0160208091040260200160405190810160405280929190818152602001828054600181600116156101000203166002900480156112045780601f106111d957610100808354040283529160200191611204565b820191906000526020600020905b8154815290600101906020018083116111e757829003601f168201915b50505050508152602001600382018054600181600116156101000203166002900480601f0160208091040260200160405190810160405280929190818152602001828054600181600116156101000203166002900480156112a65780601f1061127b576101008083540402835291602001916112a6565b820191906000526020600020905b81548152906001019060200180831161128957829003601f168201915b50505050508152602001600482018054600181600116156101000203166002900480601f0160208091040260200160405190810160405280929190818152602001828054600181600116156101000203166002900480156113485780601f1061131d57610100808354040283529160200191611348565b820191906000526020600020905b81548152906001019060200180831161132b57829003601f168201915b50505050508152602001600582018054600181600116156101000203166002900480601f0160208091040260200160405190810160405280929190818152602001828054600181600116156101000203166002900480156113ea5780601f106113bf576101008083540402835291602001916113ea565b820191906000526020600020905b8154815290600101906020018083116113cd57829003601f168201915b50505050508152505090506000816000015114156114695760008090506040518060200160405280600081525060405180602001604052806000815250604051806020016040528060008152506040518060200160405280600081525060405180602001604052806000815250965096509650965096509650506114a4565b806000015181602001518260400151836060015184608001518560a00151849450839350829250819150809050965096509650965096509650505b91939550919395565b60606114b7611e0b565b60405180606001604052808781526020018681526020018581525090506005836040516114e491906129b3565b90815260200160405180910390208190806001815401808255809150509060018203906000526020600020906003020160009091929091909150600082015181600001908051906020019061153a929190611d2d565b506020820151816001019080519060200190611557929190611d2d565b506040820151816002019080519060200190611574929190611d2d565b5050505050949350505050565b60606000600160003373ffffffffffffffffffffffffffffffffffffffff1673ffffffffffffffffffffffffffffffffffffffff168152602001908152602001600020600001805460018160011615610100020316600290049050141561161d576040517f08c379a000000000000000000000000000000000000000000000000000000000815260040161161490612a8f565b60405180910390fd5b606060048360405161162f91906129b3565b908152602001604051809103902080548060200260200160405190810160405280929190818152602001828054801561168757602002820191906000526020600020905b815481526020019060010190808311611673575b50505050509050606081516040519080825280602002602001820160405280156116cb57816020015b6116b8611e2c565b8152602001906001900390816116b05790505b50905060008090505b825181101561171d576116f98382815181106116ec57fe5b60200260200101516103fa565b82828151811061170557fe5b602002602001018190525080806001019150506116d4565b508092505050919050565b60405180606001604052808481526020018381526020018281525060008560405161175391906129b3565b9081526020016040518091039020600082015181600001908051906020019061177d929190611d2d565b50602082015181600101908051906020019061179a929190611d2d565b5060408201518160020190805190602001906117b7929190611d2d565b5090505050505050565b60006117cb611e62565b6000856040516117db91906129b3565b9081526020016040518091039020604051806060016040529081600082018054600181600116156101000203166002900480601f01602080910402602001604051908101604052809291908181526020018280546001816001161561010002031660029004801561188d5780601f106118625761010080835404028352916020019161188d565b820191906000526020600020905b81548152906001019060200180831161187057829003601f168201915b50505050508152602001600182018054600181600116156101000203166002900480601f01602080910402602001604051908101604052809291908181526020018280546001816001161561010002031660029004801561192f5780601f106119045761010080835404028352916020019161192f565b820191906000526020600020905b81548152906001019060200180831161191257829003601f168201915b50505050508152602001600282018054600181600116156101000203166002900480601f0160208091040260200160405190810160405280929190818152602001828054600181600116156101000203166002900480156119d15780601f106119a6576101008083540402835291602001916119d1565b820191906000526020600020905b8154815290600101906020018083116119b457829003601f168201915b50505050508152505090508380519060200120816000015180519060200120148015611a0e57508280519060200120816040015180519060200120145b15611a1d576001915050611a23565b60009150505b9392505050565b60606000600160003373ffffffffffffffffffffffffffffffffffffffff1673ffffffffffffffffffffffffffffffffffffffff1681526020019081526020016000206000018054600181600116156101000203166002900490501415611ac6576040517f08c379a0000000000000000000000000000000000000000000000000000000008152600401611abd90612a8f565b60405180910390fd5b6060600583604051611ad891906129b3565b9081526020016040518091039020805480602002602001604051908101604052809291908181526020016000905b82821015611d1e5783829060005260206000209060030201604051806060016040529081600082018054600181600116156101000203166002900480601f016020809104026020016040519081016040528092919081815260200182805460018160011615610100020316600290048015611bc25780601f10611b9757610100808354040283529160200191611bc2565b820191906000526020600020905b815481529060010190602001808311611ba557829003601f168201915b50505050508152602001600182018054600181600116156101000203166002900480601f016020809104026020016040519081016040528092919081815260200182805460018160011615610100020316600290048015611c645780601f10611c3957610100808354040283529160200191611c64565b820191906000526020600020905b815481529060010190602001808311611c4757829003601f168201915b50505050508152602001600282018054600181600116156101000203166002900480601f016020809104026020016040519081016040528092919081815260200182805460018160011615610100020316600290048015611d065780601f10611cdb57610100808354040283529160200191611d06565b820191906000526020600020905b815481529060010190602001808311611ce957829003601f168201915b50505050508152505081526020019060010190611b06565b50505050905080915050919050565b828054600181600116156101000203166002900490600052602060002090601f016020900481019282601f10611d6e57805160ff1916838001178555611d9c565b82800160010185558215611d9c579182015b82811115611d9b578251825591602001919060010190611d80565b5b509050611da99190611e83565b5090565b6040518060c001604052806000815260200160608152602001606081526020016060815260200160608152602001606081525090565b6040518060800160405280606081526020016060815260200160608152602001600081525090565b60405180606001604052806060815260200160608152602001606081525090565b6040518060c001604052806000815260200160608152602001606081526020016060815260200160608152602001606081525090565b60405180606001604052806060815260200160608152602001606081525090565b611ea591905b80821115611ea1576000816000905550600101611e89565b5090565b90565b600081359050611eb781612ec1565b92915050565b600082601f830112611ece57600080fd5b8135611ee1611edc82612c75565b612c48565b9150818183526020840193506020810190508360005b83811015611f275781358601611f0d8882611fee565b845260208401935060208301925050600181019050611ef7565b5050505092915050565b600081359050611f4081612ed8565b92915050565b600082601f830112611f5757600080fd5b8135611f6a611f6582612c9d565b612c48565b91508082526020830160208301858383011115611f8657600080fd5b611f91838284612e6e565b50505092915050565b600082601f830112611fab57600080fd5b8135611fbe611fb982612cc9565b612c48565b91508082526020830160208301858383011115611fda57600080fd5b611fe5838284612e6e565b50505092915050565b600060c0828403121561200057600080fd5b61200a60c0612c48565b9050600061201a84828501612102565b600083015250602082013567ffffffffffffffff81111561203a57600080fd5b61204684828501611f46565b602083015250604082013567ffffffffffffffff81111561206657600080fd5b61207284828501611f46565b604083015250606082013567ffffffffffffffff81111561209257600080fd5b61209e84828501611f46565b606083015250608082013567ffffffffffffffff8111156120be57600080fd5b6120ca84828501611f46565b60808301525060a082013567ffffffffffffffff8111156120ea57600080fd5b6120f684828501611f46565b60a08301525092915050565b60008135905061211181612eef565b92915050565b60008060006060848603121561212c57600080fd5b600061213a86828701611ea8565b935050602084013567ffffffffffffffff81111561215757600080fd5b61216386828701611f9a565b925050604084013567ffffffffffffffff81111561218057600080fd5b61218c86828701611f9a565b9150509250925092565b600080600080600060a086880312156121ae57600080fd5b60006121bc88828901611ea8565b955050602086013567ffffffffffffffff8111156121d957600080fd5b6121e588828901611f9a565b945050604086013567ffffffffffffffff81111561220257600080fd5b61220e88828901611f9a565b935050606086013567ffffffffffffffff81111561222b57600080fd5b61223788828901611f9a565b925050608061224888828901612102565b9150509295509295909350565b60006020828403121561226757600080fd5b600082013567ffffffffffffffff81111561228157600080fd5b61228d84828501611ebd565b91505092915050565b6000602082840312156122a857600080fd5b60006122b684828501611f31565b91505092915050565b6000602082840312156122d157600080fd5b600082013567ffffffffffffffff8111156122eb57600080fd5b6122f784828501611f9a565b91505092915050565b60008060006060848603121561231557600080fd5b600084013567ffffffffffffffff81111561232f57600080fd5b61233b86828701611f9a565b935050602084013567ffffffffffffffff81111561235857600080fd5b61236486828701611f9a565b925050604084013567ffffffffffffffff81111561238157600080fd5b61238d86828701611f9a565b9150509250925092565b600080600080608085870312156123ad57600080fd5b600085013567ffffffffffffffff8111156123c757600080fd5b6123d387828801611f9a565b945050602085013567ffffffffffffffff8111156123f057600080fd5b6123fc87828801611f9a565b935050604085013567ffffffffffffffff81111561241957600080fd5b61242587828801611f9a565b925050606085013567ffffffffffffffff81111561244257600080fd5b61244e87828801611f9a565b91505092959194509250565b6000612466838361267a565b60208301905092915050565b600061247e83836126f3565b905092915050565b6000612492838361287b565b905092915050565b60006124a68383612920565b905092915050565b60006124b982612d35565b6124c38185612dab565b93506124ce83612cf5565b8060005b838110156124ff5781516124e6888261245a565b97506124f183612d77565b9250506001810190506124d2565b5085935050505092915050565b600061251782612d40565b6125218185612dbc565b93508360208202850161253385612d05565b8060005b8581101561256f57848403895281516125508582612472565b945061255b83612d84565b925060208a01995050600181019050612537565b50829750879550505050505092915050565b600061258c82612d4b565b6125968185612dcd565b9350836020820285016125a885612d15565b8060005b858110156125e457848403895281516125c58582612486565b94506125d083612d91565b925060208a019950506001810190506125ac565b50829750879550505050505092915050565b600061260182612d56565b61260b8185612dde565b93508360208202850161261d85612d25565b8060005b85811015612659578484038952815161263a858261249a565b945061264583612d9e565b925060208a01995050600181019050612621565b50829750879550505050505092915050565b61267481612e2e565b82525050565b61268381612e3a565b82525050565b600061269482612d6c565b61269e8185612e00565b93506126ae818560208601612e7d565b6126b781612eb0565b840191505092915050565b60006126cd82612d6c565b6126d78185612e11565b93506126e7818560208601612e7d565b80840191505092915050565b60006126fe82612d61565b6127088185612def565b9350612718818560208601612e7d565b61272181612eb0565b840191505092915050565b600061273782612d61565b6127418185612e00565b9350612751818560208601612e7d565b61275a81612eb0565b840191505092915050565b600061277082612d61565b61277a8185612e11565b935061278a818560208601612e7d565b80840191505092915050565b60006127a3601583612e00565b91507f596f7520617265206e6f74206120436f6d70616e7900000000000000000000006000830152602082019050919050565b600060c0830160008301516127ee600086018261297e565b506020830151848203602086015261280682826126f3565b9150506040830151848203604086015261282082826126f3565b9150506060830151848203606086015261283a82826126f3565b9150506080830151848203608086015261285482826126f3565b91505060a083015184820360a086015261286e82826126f3565b9150508091505092915050565b600060c083016000830151612893600086018261297e565b50602083015184820360208601526128ab82826126f3565b915050604083015184820360408601526128c582826126f3565b915050606083015184820360608601526128df82826126f3565b915050608083015184820360808601526128f982826126f3565b91505060a083015184820360a086015261291382826126f3565b9150508091505092915050565b6000606083016000830151848203600086015261293d82826126f3565b9150506020830151848203602086015261295782826126f3565b9150506040830151848203604086015261297182826126f3565b9150508091505092915050565b61298781612e64565b82525050565b61299681612e64565b82525050565b60006129a88284612765565b915081905092915050565b60006129bf82846126c2565b915081905092915050565b600060208201905081810360008301526129e481846124ae565b905092915050565b60006020820190508181036000830152612a06818461250c565b905092915050565b60006020820190508181036000830152612a288184612581565b905092915050565b60006020820190508181036000830152612a4a81846125f6565b905092915050565b6000602082019050612a67600083018461266b565b92915050565b60006020820190508181036000830152612a878184612689565b905092915050565b60006020820190508181036000830152612aa881612796565b9050919050565b60006020820190508181036000830152612ac981846127d6565b905092915050565b600060c082019050612ae6600083018961298d565b8181036020830152612af88188612689565b90508181036040830152612b0c8187612689565b90508181036060830152612b208186612689565b90508181036080830152612b348185612689565b905081810360a0830152612b488184612689565b9050979650505050505050565b600060a082019050612b6a600083018861298d565b8181036020830152612b7c818761272c565b90508181036040830152612b90818661272c565b90508181036060830152612ba4818561272c565b90508181036080830152612bb8818461272c565b90509695505050505050565b600060c082019050612bd9600083018961298d565b8181036020830152612beb818861272c565b90508181036040830152612bff818761272c565b90508181036060830152612c13818661272c565b90508181036080830152612c27818561272c565b905081810360a0830152612c3b818461272c565b9050979650505050505050565b6000604051905081810181811067ffffffffffffffff82111715612c6b57600080fd5b8060405250919050565b600067ffffffffffffffff821115612c8c57600080fd5b602082029050602081019050919050565b600067ffffffffffffffff821115612cb457600080fd5b601f19601f8301169050602081019050919050565b600067ffffffffffffffff821115612ce057600080fd5b601f19601f8301169050602081019050919050565b6000819050602082019050919050565b6000819050602082019050919050565b6000819050602082019050919050565b6000819050602082019050919050565b600081519050919050565b600081519050919050565b600081519050919050565b600081519050919050565b600081519050919050565b600081519050919050565b6000602082019050919050565b6000602082019050919050565b6000602082019050919050565b6000602082019050919050565b600082825260208201905092915050565b600082825260208201905092915050565b600082825260208201905092915050565b600082825260208201905092915050565b600082825260208201905092915050565b600082825260208201905092915050565b600081905092915050565b6000612e2782612e44565b9050919050565b60008115159050919050565b6000819050919050565b600073ffffffffffffffffffffffffffffffffffffffff82169050919050565b6000819050919050565b82818337600083830152505050565b60005b83811015612e9b578082015181840152602081019050612e80565b83811115612eaa576000848401525b50505050565b6000601f19601f8301169050919050565b612eca81612e1c565b8114612ed557600080fd5b50565b612ee181612e3a565b8114612eec57600080fd5b50565b612ef881612e64565b8114612f0357600080fd5b5056fea365627a7a723158205b2e8f2f7cd2bc875970c309de58244c8086e1d686cf8f729498a40d7bc6974c6c6578706572696d656e74616cf564736f6c63430005100040",
  "source": "// SPDX-License-Identifier: MIT\r\npragma experimental ABIEncoderV2;\r\npragma solidity >=0.4.17<0.9.0;\r\n\r\ncontract System {\r\n\r\n    // Company Information (Certificate Number for Identity Management)\r\n    struct Company {\r\n        string name;\r\n        string email;\r\n        string password;\r\n        uint256 certificate_num;\r\n    }\r\n\r\n        struct User {\r\n        string name;\r\n        string email;\r\n        string password;\r\n    }\r\n    // Product Information (Image Link not the Actual Image Bytes)\r\n    // Company Name for Filteration\r\n    struct Product {\r\n        uint id;\r\n        string name;\r\n        string model;\r\n        string description;\r\n        string companyName;\r\n        string imageLink;\r\n    }\r\n\r\n    struct Report {\r\n        string imageLink;\r\n        string Location;\r\n        string description;\r\n    }\r\n\r\n    //Product public prod;\r\n\r\n    mapping(string => User) users;\r\n    mapping(address => Company) companies;\r\n    address[] private companyAddresses;\r\n    \r\n    mapping(bytes32 => Product) public products;\r\n    mapping(string => bytes32[]) private companyProducts;\r\n    mapping(string => Report[]) private companyReports;\r\n\r\n\r\n\r\n\r\n\r\n    function register_User(string memory _useraddress,string memory _name, string memory _email, string memory _password) public {\r\n        users[_useraddress] = User(_name,_email,_password);\r\n    }\r\n\r\n    function register_Company(address _compaddress,string memory _name, string memory _email, string memory _password,uint256 _cert_num) public {\r\n        companies[_compaddress] = Company(_name,_email,_password,_cert_num);\r\n        companyAddresses.push(_compaddress);\r\n    }\r\n\r\n    function login_user (string memory user_add , string memory _name , string memory _password) public view returns (bool found)\r\n    {\r\n            User memory user = users[user_add];\r\n            \r\n            // str compare keccak256(bytes(a)) == keccak256(bytes(b));\r\n            if(keccak256(bytes(user.name)) == keccak256(bytes(_name)) && keccak256(bytes(user.password)) == keccak256(bytes(_password)))\r\n                return true;\r\n            else\r\n                return false;\r\n    }\r\n\r\n    function login_company(address company_add, string memory _name, string memory _password) public view returns (bool found) {\r\n        Company memory company = companies[company_add];\r\n        // Compare company name and password using keccak256\r\n        if (keccak256(bytes(company.name)) == keccak256(bytes(_name)) && keccak256(bytes(company.password)) == keccak256(bytes(_password)))\r\n            return true;\r\n        else\r\n            return false;\r\n    }\r\n\r\n\r\n    function upload_Products(Product[] memory _products) public returns (bytes32[] memory hashedArray) {\r\n        bytes32[] memory productHashes = new bytes32[](_products.length);\r\n        \r\n        for (uint256 i = 0; i < _products.length; i++) {\r\n            Product memory p = _products[i];\r\n            \r\n            // Encoding Using the Four Attributes (Image Link Not Included)\r\n            bytes32 p_hashed = keccak256(abi.encode(p.id, p.name, p.model, p.description, p.companyName));\r\n            products[p_hashed] = p;\r\n            \r\n            // Add the product ID to the array of product IDs for the respective company\r\n            companyProducts[p.companyName].push(p_hashed);\r\n            \r\n            productHashes[i] = p_hashed;\r\n        }\r\n    \r\n    return productHashes;\r\n}\r\n    \r\n        // Get a Product by its Hash\r\n    function get_product(bytes32 product_add) public view returns (Product memory Prod) {\r\n        return products[product_add];\r\n    }\r\n\r\n    function retrieve_company_products(string memory Company_name) public onlyCompany() view returns (Product[] memory products_array) {\r\n        bytes32[] memory products_hashes = companyProducts[Company_name];\r\n        Product[] memory products_of_company = new Product[](products_hashes.length);\r\n        for (uint256 index = 0; index < products_hashes.length; index++) {\r\n            products_of_company[index] = get_product(products_hashes[index]);\r\n        }\r\n\r\n        return products_of_company;\r\n    }\r\n\r\n    // Verify a product and return its attributes or null values if not found\r\n    function verify_product(bytes32 product_add) external view returns (uint, string memory, string memory, string memory, string memory, string memory) {\r\n        // Get the product using the Company_Con contract's get_product function\r\n        System.Product memory product = products[product_add];\r\n\r\n        // Check if the product exists\r\n        if (product.id == 0) {\r\n            // Return null values if the product does not exist\r\n            return (0, \"\", \"\", \"\", \"\", \"\");\r\n        }\r\n        else {\r\n            // Return the product attributes if the product exists\r\n            return (product.id, product.name, product.model, product.description, product.companyName, product.imageLink);\r\n        }\r\n    }\r\n\r\n\r\n    function send_report(string memory linkimage, string memory location, string memory  description,string memory companyname) public returns (string memory desc)\r\n    {\r\n        Report memory report = Report(linkimage,location,description);\r\n        companyReports[companyname].push(report);\r\n    }\r\n    function get_companies_names() public view returns(string[] memory)\r\n    {\r\n        uint256 length = companyAddresses.length;\r\n        string[] memory allCompanies = new string[](length);\r\n    \r\n        for (uint256 i = 0; i < length; i++) {\r\n            allCompanies[i] = companies[companyAddresses[i]].name;\r\n        }\r\n\r\n        return allCompanies;\r\n    }\r\n\r\n    function get_function_report(string memory company_name) public onlyCompany() view returns(Report[] memory) {\r\n        Report[] memory reports_of_company = companyReports[company_name];\r\n\r\n        return reports_of_company;\r\n    }\r\n\r\n\r\n    //----------------modifers------------\r\n\r\n    modifier onlyCompany() {\r\n        require(bytes(companies[msg.sender].name).length != 0, \"You are not a Company\");\r\n        _;\r\n    }\r\n\r\n    \r\n}\r\n\r\n",
  "sourcePath": "C:\\Users\\Philip\\Desktop\\Fake-Products-Detection\\contracts\\System.sol",
  "compiler": {
    "name": "solc",
    "version": "0.5.16+commit.9c3226ce.Emscripten.clang"
  },
  "schemaVersion": "3.4.13",
  "updatedAt": "2023-07-03T10:44:36.270Z",
  "networkType": "ethereum",
  "devdoc": {
    "methods": {}
  },
  "userdoc": {
    "methods": {}
  }
}