{
  "contractName": "System",
  "abi": [
    {
      "constant": true,
      "inputs": [
        {
          "internalType": "bytes32",
          "name": "",
          "type": "bytes32"
        }
      ],
      "name": "products",
      "outputs": [
        {
          "internalType": "uint256",
          "name": "id",
          "type": "uint256"
        },
        {
          "internalType": "string",
          "name": "name",
          "type": "string"
        },
        {
          "internalType": "string",
          "name": "model",
          "type": "string"
        },
        {
          "internalType": "string",
          "name": "description",
          "type": "string"
        },
        {
          "internalType": "string",
          "name": "companyName",
          "type": "string"
        },
        {
          "internalType": "string",
          "name": "imageLink",
          "type": "string"
        }
      ],
      "payable": false,
      "stateMutability": "view",
      "type": "function"
    },
    {
      "constant": false,
      "inputs": [
        {
          "internalType": "string",
          "name": "_useraddress",
          "type": "string"
        },
        {
          "internalType": "string",
          "name": "_name",
          "type": "string"
        },
        {
          "internalType": "string",
          "name": "_email",
          "type": "string"
        },
        {
          "internalType": "string",
          "name": "_password",
          "type": "string"
        }
      ],
      "name": "register_User",
      "outputs": [],
      "payable": false,
      "stateMutability": "nonpayable",
      "type": "function"
    },
    {
      "constant": false,
      "inputs": [
        {
          "internalType": "address",
          "name": "_compaddress",
          "type": "address"
        },
        {
          "internalType": "string",
          "name": "_name",
          "type": "string"
        },
        {
          "internalType": "string",
          "name": "_email",
          "type": "string"
        },
        {
          "internalType": "string",
          "name": "_password",
          "type": "string"
        },
        {
          "internalType": "uint256",
          "name": "_cert_num",
          "type": "uint256"
        }
      ],
      "name": "register_Company",
      "outputs": [],
      "payable": false,
      "stateMutability": "nonpayable",
      "type": "function"
    },
    {
      "constant": true,
      "inputs": [
        {
          "internalType": "string",
          "name": "user_add",
          "type": "string"
        },
        {
          "internalType": "string",
          "name": "_name",
          "type": "string"
        },
        {
          "internalType": "string",
          "name": "_password",
          "type": "string"
        }
      ],
      "name": "login_user",
      "outputs": [
        {
          "internalType": "bool",
          "name": "found",
          "type": "bool"
        }
      ],
      "payable": false,
      "stateMutability": "view",
      "type": "function"
    },
    {
      "constant": true,
      "inputs": [
        {
          "internalType": "address",
          "name": "company_add",
          "type": "address"
        },
        {
          "internalType": "string",
          "name": "_name",
          "type": "string"
        },
        {
          "internalType": "string",
          "name": "_password",
          "type": "string"
        }
      ],
      "name": "login_company",
      "outputs": [
        {
          "internalType": "bool",
          "name": "found",
          "type": "bool"
        }
      ],
      "payable": false,
      "stateMutability": "view",
      "type": "function"
    },
    {
      "constant": false,
      "inputs": [
        {
          "components": [
            {
              "internalType": "uint256",
              "name": "id",
              "type": "uint256"
            },
            {
              "internalType": "string",
              "name": "name",
              "type": "string"
            },
            {
              "internalType": "string",
              "name": "model",
              "type": "string"
            },
            {
              "internalType": "string",
              "name": "description",
              "type": "string"
            },
            {
              "internalType": "string",
              "name": "companyName",
              "type": "string"
            },
            {
              "internalType": "string",
              "name": "imageLink",
              "type": "string"
            }
          ],
          "internalType": "struct System.Product[]",
          "name": "_products",
          "type": "tuple[]"
        }
      ],
      "name": "upload_Products",
      "outputs": [
        {
          "internalType": "bytes32[]",
          "name": "hashedArray",
          "type": "bytes32[]"
        }
      ],
      "payable": false,
      "stateMutability": "nonpayable",
      "type": "function"
    },
    {
      "constant": true,
      "inputs": [
        {
          "internalType": "bytes32",
          "name": "product_add",
          "type": "bytes32"
        }
      ],
      "name": "get_product",
      "outputs": [
        {
          "components": [
            {
              "internalType": "uint256",
              "name": "id",
              "type": "uint256"
            },
            {
              "internalType": "string",
              "name": "name",
              "type": "string"
            },
            {
              "internalType": "string",
              "name": "model",
              "type": "string"
            },
            {
              "internalType": "string",
              "name": "description",
              "type": "string"
            },
            {
              "internalType": "string",
              "name": "companyName",
              "type": "string"
            },
            {
              "internalType": "string",
              "name": "imageLink",
              "type": "string"
            }
          ],
          "internalType": "struct System.Product",
          "name": "Prod",
          "type": "tuple"
        }
      ],
      "payable": false,
      "stateMutability": "view",
      "type": "function"
    },
    {
      "constant": true,
      "inputs": [
        {
          "internalType": "string",
          "name": "Company_name",
          "type": "string"
        }
      ],
      "name": "retrieve_company_products",
      "outputs": [
        {
          "components": [
            {
              "internalType": "uint256",
              "name": "id",
              "type": "uint256"
            },
            {
              "internalType": "string",
              "name": "name",
              "type": "string"
            },
            {
              "internalType": "string",
              "name": "model",
              "type": "string"
            },
            {
              "internalType": "string",
              "name": "description",
              "type": "string"
            },
            {
              "internalType": "string",
              "name": "companyName",
              "type": "string"
            },
            {
              "internalType": "string",
              "name": "imageLink",
              "type": "string"
            }
          ],
          "internalType": "struct System.Product[]",
          "name": "products_array",
          "type": "tuple[]"
        }
      ],
      "payable": false,
      "stateMutability": "view",
      "type": "function"
    },
    {
      "constant": true,
      "inputs": [
        {
          "internalType": "bytes32",
          "name": "product_add",
          "type": "bytes32"
        }
      ],
      "name": "verify_product",
      "outputs": [
        {
          "internalType": "uint256",
          "name": "",
          "type": "uint256"
        },
        {
          "internalType": "string",
          "name": "",
          "type": "string"
        },
        {
          "internalType": "string",
          "name": "",
          "type": "string"
        },
        {
          "internalType": "string",
          "name": "",
          "type": "string"
        },
        {
          "internalType": "string",
          "name": "",
          "type": "string"
        },
        {
          "internalType": "string",
          "name": "",
          "type": "string"
        }
      ],
      "payable": false,
      "stateMutability": "view",
      "type": "function"
    },
    {
      "constant": false,
      "inputs": [
        {
          "internalType": "string",
          "name": "linkimage",
          "type": "string"
        },
        {
          "internalType": "string",
          "name": "location",
          "type": "string"
        },
        {
          "internalType": "string",
          "name": "description",
          "type": "string"
        },
        {
          "internalType": "string",
          "name": "companyname",
          "type": "string"
        }
      ],
      "name": "send_report",
      "outputs": [],
      "payable": false,
      "stateMutability": "nonpayable",
      "type": "function"
    },
    {
      "constant": true,
      "inputs": [],
      "name": "get_companies_names",
      "outputs": [
        {
          "internalType": "string[]",
          "name": "",
          "type": "string[]"
        }
      ],
      "payable": false,
      "stateMutability": "view",
      "type": "function"
    },
    {
      "constant": true,
      "inputs": [
        {
          "internalType": "string",
          "name": "company_name",
          "type": "string"
        }
      ],
      "name": "get_function_report",
      "outputs": [
        {
          "components": [
            {
              "internalType": "string",
              "name": "imageLink",
              "type": "string"
            },
            {
              "internalType": "string",
              "name": "Location",
              "type": "string"
            },
            {
              "internalType": "string",
              "name": "description",
              "type": "string"
            }
          ],
          "internalType": "struct System.Report[]",
          "name": "",
          "type": "tuple[]"
        }
      ],
      "payable": false,
      "stateMutability": "view",
      "type": "function"
    }
  ],
  "bytecode": "0x608060405234801561001057600080fd5b50612ea9806100206000396000f3fe608060405234801561001057600080fd5b50600436106100b45760003560e01c8063af87729e11610071578063af87729e146101b8578063c03d28c3146101ed578063c25d2c9314610209578063ce2aae3414610239578063d23c91f514610255578063f087260814610285576100b4565b8063133af958146100b95780631ee6851c146100d557806379054391146101055780638ace7b9b1461013a578063950081a81461016a578063a91dd13514610188575b600080fd5b6100d360048036036100ce9190810190612118565b6102b5565b005b6100ef60048036036100ea9190810190612218565b610380565b6040516100fc9190612a0f565b60405180910390f35b61011f600480360361011a9190810190612218565b6106e1565b60405161013196959493929190612b24565b60405180910390f35b610154600480360361014f9190810190612099565b610a15565b60405161016191906129d4565b60405180910390f35b610172610ca9565b60405161017f919061296e565b60405180910390f35b6101a2600480360361019d91908101906121d7565b610e3b565b6040516101af919061294c565b60405180910390f35b6101d260048036036101cd9190810190612218565b611015565b6040516101e496959493929190612a31565b60405180910390f35b61020760048036036102029190810190612319565b611433565b005b610223600480360361021e9190810190612241565b611503565b6040516102309190612990565b60405180910390f35b610253600480360361024e9190810190612319565b6116aa565b005b61026f600480360361026a9190810190612282565b611743565b60405161027c91906129d4565b60405180910390f35b61029f600480360361029a9190810190612241565b6119ac565b6040516102ac91906129b2565b60405180910390f35b604051806080016040528085815260200184815260200183815260200182815250600160008773ffffffffffffffffffffffffffffffffffffffff1673ffffffffffffffffffffffffffffffffffffffff1681526020019081526020016000206000820151816000019080519060200190610331929190611caf565b50602082015181600101908051906020019061034e929190611caf565b50604082015181600201908051906020019061036b929190611caf565b50606082015181600301559050505050505050565b610388611d2f565b600360008381526020019081526020016000206040518060c001604052908160008201548152602001600182018054600181600116156101000203166002900480601f0160208091040260200160405190810160405280929190818152602001828054600181600116156101000203166002900480156104495780601f1061041e57610100808354040283529160200191610449565b820191906000526020600020905b81548152906001019060200180831161042c57829003601f168201915b50505050508152602001600282018054600181600116156101000203166002900480601f0160208091040260200160405190810160405280929190818152602001828054600181600116156101000203166002900480156104eb5780601f106104c0576101008083540402835291602001916104eb565b820191906000526020600020905b8154815290600101906020018083116104ce57829003601f168201915b50505050508152602001600382018054600181600116156101000203166002900480601f01602080910402602001604051908101604052809291908181526020018280546001816001161561010002031660029004801561058d5780601f106105625761010080835404028352916020019161058d565b820191906000526020600020905b81548152906001019060200180831161057057829003601f168201915b50505050508152602001600482018054600181600116156101000203166002900480601f01602080910402602001604051908101604052809291908181526020018280546001816001161561010002031660029004801561062f5780601f106106045761010080835404028352916020019161062f565b820191906000526020600020905b81548152906001019060200180831161061257829003601f168201915b50505050508152602001600582018054600181600116156101000203166002900480601f0160208091040260200160405190810160405280929190818152602001828054600181600116156101000203166002900480156106d15780601f106106a6576101008083540402835291602001916106d1565b820191906000526020600020905b8154815290600101906020018083116106b457829003601f168201915b5050505050815250509050919050565b6003602052806000526040600020600091509050806000015490806001018054600181600116156101000203166002900480601f0160208091040260200160405190810160405280929190818152602001828054600181600116156101000203166002900480156107935780601f1061076857610100808354040283529160200191610793565b820191906000526020600020905b81548152906001019060200180831161077657829003601f168201915b505050505090806002018054600181600116156101000203166002900480601f0160208091040260200160405190810160405280929190818152602001828054600181600116156101000203166002900480156108315780601f1061080657610100808354040283529160200191610831565b820191906000526020600020905b81548152906001019060200180831161081457829003601f168201915b505050505090806003018054600181600116156101000203166002900480601f0160208091040260200160405190810160405280929190818152602001828054600181600116156101000203166002900480156108cf5780601f106108a4576101008083540402835291602001916108cf565b820191906000526020600020905b8154815290600101906020018083116108b257829003601f168201915b505050505090806004018054600181600116156101000203166002900480601f01602080910402602001604051908101604052809291908181526020018280546001816001161561010002031660029004801561096d5780601f106109425761010080835404028352916020019161096d565b820191906000526020600020905b81548152906001019060200180831161095057829003601f168201915b505050505090806005018054600181600116156101000203166002900480601f016020809104026020016040519081016040528092919081815260200182805460018160011615610100020316600290048015610a0b5780601f106109e057610100808354040283529160200191610a0b565b820191906000526020600020905b8154815290600101906020018083116109ee57829003601f168201915b5050505050905086565b6000610a1f611d65565b600160008673ffffffffffffffffffffffffffffffffffffffff1673ffffffffffffffffffffffffffffffffffffffff168152602001908152602001600020604051806080016040529081600082018054600181600116156101000203166002900480601f016020809104026020016040519081016040528092919081815260200182805460018160011615610100020316600290048015610b025780601f10610ad757610100808354040283529160200191610b02565b820191906000526020600020905b815481529060010190602001808311610ae557829003601f168201915b50505050508152602001600182018054600181600116156101000203166002900480601f016020809104026020016040519081016040528092919081815260200182805460018160011615610100020316600290048015610ba45780601f10610b7957610100808354040283529160200191610ba4565b820191906000526020600020905b815481529060010190602001808311610b8757829003601f168201915b50505050508152602001600282018054600181600116156101000203166002900480601f016020809104026020016040519081016040528092919081815260200182805460018160011615610100020316600290048015610c465780601f10610c1b57610100808354040283529160200191610c46565b820191906000526020600020905b815481529060010190602001808311610c2957829003601f168201915b5050505050815260200160038201548152505090508380519060200120816000015180519060200120148015610c8d57508280519060200120816040015180519060200120145b15610c9c576001915050610ca2565b60009150505b9392505050565b606060006002805490509050606081604051908082528060200260200182016040528015610ceb57816020015b6060815260200190600190039081610cd65790505b50905060008090505b82811015610e32576001600060028381548110610d0d57fe5b9060005260206000200160009054906101000a900473ffffffffffffffffffffffffffffffffffffffff1673ffffffffffffffffffffffffffffffffffffffff1673ffffffffffffffffffffffffffffffffffffffff1681526020019081526020016000206000018054600181600116156101000203166002900480601f016020809104026020016040519081016040528092919081815260200182805460018160011615610100020316600290048015610e095780601f10610dde57610100808354040283529160200191610e09565b820191906000526020600020905b815481529060010190602001808311610dec57829003601f168201915b5050505050828281518110610e1a57fe5b60200260200101819052508080600101915050610cf4565b50809250505090565b6060808251604051908082528060200260200182016040528015610e6e5781602001602082028038833980820191505090505b50905060008090505b835181101561100b57610e88611d2f565b848281518110610e9457fe5b60200260200101519050600081600001518260200151836040015184606001518560800151604051602001610ecd959493929190612ab5565b6040516020818303038152906040528051906020012090508160036000838152602001908152602001600020600082015181600001556020820151816001019080519060200190610f1f929190611caf565b506040820151816002019080519060200190610f3c929190611caf565b506060820151816003019080519060200190610f59929190611caf565b506080820151816004019080519060200190610f76929190611caf565b5060a0820151816005019080519060200190610f93929190611caf565b5090505060048260800151604051610fab919061291e565b908152602001604051809103902081908060018154018082558091505090600182039060005260206000200160009091929091909150555080848481518110610ff057fe5b60200260200101818152505050508080600101915050610e77565b5080915050919050565b60006060806060806060611027611d2f565b600360008981526020019081526020016000206040518060c001604052908160008201548152602001600182018054600181600116156101000203166002900480601f0160208091040260200160405190810160405280929190818152602001828054600181600116156101000203166002900480156110e85780601f106110bd576101008083540402835291602001916110e8565b820191906000526020600020905b8154815290600101906020018083116110cb57829003601f168201915b50505050508152602001600282018054600181600116156101000203166002900480601f01602080910402602001604051908101604052809291908181526020018280546001816001161561010002031660029004801561118a5780601f1061115f5761010080835404028352916020019161118a565b820191906000526020600020905b81548152906001019060200180831161116d57829003601f168201915b50505050508152602001600382018054600181600116156101000203166002900480601f01602080910402602001604051908101604052809291908181526020018280546001816001161561010002031660029004801561122c5780601f106112015761010080835404028352916020019161122c565b820191906000526020600020905b81548152906001019060200180831161120f57829003601f168201915b50505050508152602001600482018054600181600116156101000203166002900480601f0160208091040260200160405190810160405280929190818152602001828054600181600116156101000203166002900480156112ce5780601f106112a3576101008083540402835291602001916112ce565b820191906000526020600020905b8154815290600101906020018083116112b157829003601f168201915b50505050508152602001600582018054600181600116156101000203166002900480601f0160208091040260200160405190810160405280929190818152602001828054600181600116156101000203166002900480156113705780601f1061134557610100808354040283529160200191611370565b820191906000526020600020905b81548152906001019060200180831161135357829003601f168201915b50505050508152505090506000816000015114156113ef57600080905060405180602001604052806000815250604051806020016040528060008152506040518060200160405280600081525060405180602001604052806000815250604051806020016040528060008152509650965096509650965096505061142a565b806000015181602001518260400151836060015184608001518560a00151849450839350829250819150809050965096509650965096509650505b91939550919395565b61143b611d8d565b60405180606001604052808681526020018581526020018481525090506005826040516114689190612935565b9081526020016040518091039020819080600181540180825580915050906001820390600052602060002090600302016000909192909190915060008201518160000190805190602001906114be929190611caf565b5060208201518160010190805190602001906114db929190611caf565b5060408201518160020190805190602001906114f8929190611caf565b505050505050505050565b60606000600160003373ffffffffffffffffffffffffffffffffffffffff1673ffffffffffffffffffffffffffffffffffffffff168152602001908152602001600020600001805460018160011615610100020316600290049050141561159f576040517f08c379a0000000000000000000000000000000000000000000000000000000008152600401611596906129ef565b60405180910390fd5b60606004836040516115b19190612935565b908152602001604051809103902080548060200260200160405190810160405280929190818152602001828054801561160957602002820191906000526020600020905b8154815260200190600101908083116115f5575b505050505090506060815160405190808252806020026020018201604052801561164d57816020015b61163a611dae565b8152602001906001900390816116325790505b50905060008090505b825181101561169f5761167b83828151811061166e57fe5b6020026020010151610380565b82828151811061168757fe5b60200260200101819052508080600101915050611656565b508092505050919050565b6040518060600160405280848152602001838152602001828152506000856040516116d59190612935565b908152602001604051809103902060008201518160000190805190602001906116ff929190611caf565b50602082015181600101908051906020019061171c929190611caf565b506040820151816002019080519060200190611739929190611caf565b5090505050505050565b600061174d611de4565b60008560405161175d9190612935565b9081526020016040518091039020604051806060016040529081600082018054600181600116156101000203166002900480601f01602080910402602001604051908101604052809291908181526020018280546001816001161561010002031660029004801561180f5780601f106117e45761010080835404028352916020019161180f565b820191906000526020600020905b8154815290600101906020018083116117f257829003601f168201915b50505050508152602001600182018054600181600116156101000203166002900480601f0160208091040260200160405190810160405280929190818152602001828054600181600116156101000203166002900480156118b15780601f10611886576101008083540402835291602001916118b1565b820191906000526020600020905b81548152906001019060200180831161189457829003601f168201915b50505050508152602001600282018054600181600116156101000203166002900480601f0160208091040260200160405190810160405280929190818152602001828054600181600116156101000203166002900480156119535780601f1061192857610100808354040283529160200191611953565b820191906000526020600020905b81548152906001019060200180831161193657829003601f168201915b5050505050815250509050838051906020012081600001518051906020012014801561199057508280519060200120816040015180519060200120145b1561199f5760019150506119a5565b60009150505b9392505050565b60606000600160003373ffffffffffffffffffffffffffffffffffffffff1673ffffffffffffffffffffffffffffffffffffffff1681526020019081526020016000206000018054600181600116156101000203166002900490501415611a48576040517f08c379a0000000000000000000000000000000000000000000000000000000008152600401611a3f906129ef565b60405180910390fd5b6060600583604051611a5a9190612935565b9081526020016040518091039020805480602002602001604051908101604052809291908181526020016000905b82821015611ca05783829060005260206000209060030201604051806060016040529081600082018054600181600116156101000203166002900480601f016020809104026020016040519081016040528092919081815260200182805460018160011615610100020316600290048015611b445780601f10611b1957610100808354040283529160200191611b44565b820191906000526020600020905b815481529060010190602001808311611b2757829003601f168201915b50505050508152602001600182018054600181600116156101000203166002900480601f016020809104026020016040519081016040528092919081815260200182805460018160011615610100020316600290048015611be65780601f10611bbb57610100808354040283529160200191611be6565b820191906000526020600020905b815481529060010190602001808311611bc957829003601f168201915b50505050508152602001600282018054600181600116156101000203166002900480601f016020809104026020016040519081016040528092919081815260200182805460018160011615610100020316600290048015611c885780601f10611c5d57610100808354040283529160200191611c88565b820191906000526020600020905b815481529060010190602001808311611c6b57829003601f168201915b50505050508152505081526020019060010190611a88565b50505050905080915050919050565b828054600181600116156101000203166002900490600052602060002090601f016020900481019282601f10611cf057805160ff1916838001178555611d1e565b82800160010185558215611d1e579182015b82811115611d1d578251825591602001919060010190611d02565b5b509050611d2b9190611e05565b5090565b6040518060c001604052806000815260200160608152602001606081526020016060815260200160608152602001606081525090565b6040518060800160405280606081526020016060815260200160608152602001600081525090565b60405180606001604052806060815260200160608152602001606081525090565b6040518060c001604052806000815260200160608152602001606081526020016060815260200160608152602001606081525090565b60405180606001604052806060815260200160608152602001606081525090565b611e2791905b80821115611e23576000816000905550600101611e0b565b5090565b90565b600081359050611e3981612e21565b92915050565b600082601f830112611e5057600080fd5b8135611e63611e5e82612bd5565b612ba8565b9150818183526020840193506020810190508360005b83811015611ea95781358601611e8f8882611f70565b845260208401935060208301925050600181019050611e79565b5050505092915050565b600081359050611ec281612e38565b92915050565b600082601f830112611ed957600080fd5b8135611eec611ee782612bfd565b612ba8565b91508082526020830160208301858383011115611f0857600080fd5b611f13838284612dce565b50505092915050565b600082601f830112611f2d57600080fd5b8135611f40611f3b82612c29565b612ba8565b91508082526020830160208301858383011115611f5c57600080fd5b611f67838284612dce565b50505092915050565b600060c08284031215611f8257600080fd5b611f8c60c0612ba8565b90506000611f9c84828501612084565b600083015250602082013567ffffffffffffffff811115611fbc57600080fd5b611fc884828501611ec8565b602083015250604082013567ffffffffffffffff811115611fe857600080fd5b611ff484828501611ec8565b604083015250606082013567ffffffffffffffff81111561201457600080fd5b61202084828501611ec8565b606083015250608082013567ffffffffffffffff81111561204057600080fd5b61204c84828501611ec8565b60808301525060a082013567ffffffffffffffff81111561206c57600080fd5b61207884828501611ec8565b60a08301525092915050565b60008135905061209381612e4f565b92915050565b6000806000606084860312156120ae57600080fd5b60006120bc86828701611e2a565b935050602084013567ffffffffffffffff8111156120d957600080fd5b6120e586828701611f1c565b925050604084013567ffffffffffffffff81111561210257600080fd5b61210e86828701611f1c565b9150509250925092565b600080600080600060a0868803121561213057600080fd5b600061213e88828901611e2a565b955050602086013567ffffffffffffffff81111561215b57600080fd5b61216788828901611f1c565b945050604086013567ffffffffffffffff81111561218457600080fd5b61219088828901611f1c565b935050606086013567ffffffffffffffff8111156121ad57600080fd5b6121b988828901611f1c565b92505060806121ca88828901612084565b9150509295509295909350565b6000602082840312156121e957600080fd5b600082013567ffffffffffffffff81111561220357600080fd5b61220f84828501611e3f565b91505092915050565b60006020828403121561222a57600080fd5b600061223884828501611eb3565b91505092915050565b60006020828403121561225357600080fd5b600082013567ffffffffffffffff81111561226d57600080fd5b61227984828501611f1c565b91505092915050565b60008060006060848603121561229757600080fd5b600084013567ffffffffffffffff8111156122b157600080fd5b6122bd86828701611f1c565b935050602084013567ffffffffffffffff8111156122da57600080fd5b6122e686828701611f1c565b925050604084013567ffffffffffffffff81111561230357600080fd5b61230f86828701611f1c565b9150509250925092565b6000806000806080858703121561232f57600080fd5b600085013567ffffffffffffffff81111561234957600080fd5b61235587828801611f1c565b945050602085013567ffffffffffffffff81111561237257600080fd5b61237e87828801611f1c565b935050604085013567ffffffffffffffff81111561239b57600080fd5b6123a787828801611f1c565b925050606085013567ffffffffffffffff8111156123c457600080fd5b6123d087828801611f1c565b91505092959194509250565b60006123e883836125fc565b60208301905092915050565b60006124008383612675565b905092915050565b600061241483836127fd565b905092915050565b600061242883836128a2565b905092915050565b600061243b82612c95565b6124458185612d0b565b935061245083612c55565b8060005b8381101561248157815161246888826123dc565b975061247383612cd7565b925050600181019050612454565b5085935050505092915050565b600061249982612ca0565b6124a38185612d1c565b9350836020820285016124b585612c65565b8060005b858110156124f157848403895281516124d285826123f4565b94506124dd83612ce4565b925060208a019950506001810190506124b9565b50829750879550505050505092915050565b600061250e82612cab565b6125188185612d2d565b93508360208202850161252a85612c75565b8060005b8581101561256657848403895281516125478582612408565b945061255283612cf1565b925060208a0199505060018101905061252e565b50829750879550505050505092915050565b600061258382612cb6565b61258d8185612d3e565b93508360208202850161259f85612c85565b8060005b858110156125db57848403895281516125bc858261241c565b94506125c783612cfe565b925060208a019950506001810190506125a3565b50829750879550505050505092915050565b6125f681612d8e565b82525050565b61260581612d9a565b82525050565b600061261682612ccc565b6126208185612d60565b9350612630818560208601612ddd565b61263981612e10565b840191505092915050565b600061264f82612ccc565b6126598185612d71565b9350612669818560208601612ddd565b80840191505092915050565b600061268082612cc1565b61268a8185612d4f565b935061269a818560208601612ddd565b6126a381612e10565b840191505092915050565b60006126b982612cc1565b6126c38185612d60565b93506126d3818560208601612ddd565b6126dc81612e10565b840191505092915050565b60006126f282612cc1565b6126fc8185612d71565b935061270c818560208601612ddd565b80840191505092915050565b6000612725601583612d60565b91507f596f7520617265206e6f74206120436f6d70616e7900000000000000000000006000830152602082019050919050565b600060c0830160008301516127706000860182612900565b50602083015184820360208601526127888282612675565b915050604083015184820360408601526127a28282612675565b915050606083015184820360608601526127bc8282612675565b915050608083015184820360808601526127d68282612675565b91505060a083015184820360a08601526127f08282612675565b9150508091505092915050565b600060c0830160008301516128156000860182612900565b506020830151848203602086015261282d8282612675565b915050604083015184820360408601526128478282612675565b915050606083015184820360608601526128618282612675565b9150506080830151848203608086015261287b8282612675565b91505060a083015184820360a08601526128958282612675565b9150508091505092915050565b600060608301600083015184820360008601526128bf8282612675565b915050602083015184820360208601526128d98282612675565b915050604083015184820360408601526128f38282612675565b9150508091505092915050565b61290981612dc4565b82525050565b61291881612dc4565b82525050565b600061292a82846126e7565b915081905092915050565b60006129418284612644565b915081905092915050565b600060208201905081810360008301526129668184612430565b905092915050565b60006020820190508181036000830152612988818461248e565b905092915050565b600060208201905081810360008301526129aa8184612503565b905092915050565b600060208201905081810360008301526129cc8184612578565b905092915050565b60006020820190506129e960008301846125ed565b92915050565b60006020820190508181036000830152612a0881612718565b9050919050565b60006020820190508181036000830152612a298184612758565b905092915050565b600060c082019050612a46600083018961290f565b8181036020830152612a58818861260b565b90508181036040830152612a6c818761260b565b90508181036060830152612a80818661260b565b90508181036080830152612a94818561260b565b905081810360a0830152612aa8818461260b565b9050979650505050505050565b600060a082019050612aca600083018861290f565b8181036020830152612adc81876126ae565b90508181036040830152612af081866126ae565b90508181036060830152612b0481856126ae565b90508181036080830152612b1881846126ae565b90509695505050505050565b600060c082019050612b39600083018961290f565b8181036020830152612b4b81886126ae565b90508181036040830152612b5f81876126ae565b90508181036060830152612b7381866126ae565b90508181036080830152612b8781856126ae565b905081810360a0830152612b9b81846126ae565b9050979650505050505050565b6000604051905081810181811067ffffffffffffffff82111715612bcb57600080fd5b8060405250919050565b600067ffffffffffffffff821115612bec57600080fd5b602082029050602081019050919050565b600067ffffffffffffffff821115612c1457600080fd5b601f19601f8301169050602081019050919050565b600067ffffffffffffffff821115612c4057600080fd5b601f19601f8301169050602081019050919050565b6000819050602082019050919050565b6000819050602082019050919050565b6000819050602082019050919050565b6000819050602082019050919050565b600081519050919050565b600081519050919050565b600081519050919050565b600081519050919050565b600081519050919050565b600081519050919050565b6000602082019050919050565b6000602082019050919050565b6000602082019050919050565b6000602082019050919050565b600082825260208201905092915050565b600082825260208201905092915050565b600082825260208201905092915050565b600082825260208201905092915050565b600082825260208201905092915050565b600082825260208201905092915050565b600081905092915050565b6000612d8782612da4565b9050919050565b60008115159050919050565b6000819050919050565b600073ffffffffffffffffffffffffffffffffffffffff82169050919050565b6000819050919050565b82818337600083830152505050565b60005b83811015612dfb578082015181840152602081019050612de0565b83811115612e0a576000848401525b50505050565b6000601f19601f8301169050919050565b612e2a81612d7c565b8114612e3557600080fd5b50565b612e4181612d9a565b8114612e4c57600080fd5b50565b612e5881612dc4565b8114612e6357600080fd5b5056fea365627a7a72315820111204968dfc4657c311623e75a5d97d36f483591bcb3558038cf169086c50786c6578706572696d656e74616cf564736f6c63430005100040",
  "source": "// SPDX-License-Identifier: MIT\r\npragma experimental ABIEncoderV2;\r\npragma solidity >=0.4.17<0.9.0;\r\n\r\ncontract System {\r\n\r\n    // Company Information (Certificate Number for Identity Management)\r\n    struct Company {\r\n        string name;\r\n        string email;\r\n        string password;\r\n        uint256 certificate_num;\r\n    }\r\n\r\n        struct User {\r\n        string name;\r\n        string email;\r\n        string password;\r\n    }\r\n    // Product Information (Image Link not the Actual Image Bytes)\r\n    // Company Name for Filteration\r\n    struct Product {\r\n        uint id;\r\n        string name;\r\n        string model;\r\n        string description;\r\n        string companyName;\r\n        string imageLink;\r\n    }\r\n\r\n    struct Report {\r\n        string imageLink;\r\n        string Location;\r\n        string description;\r\n    }\r\n\r\n    //Product public prod;\r\n\r\n    mapping(string => User) users;\r\n    mapping(address => Company) companies;\r\n    address[] private companyAddresses;\r\n    \r\n    mapping(bytes32 => Product) public products;\r\n    mapping(string => bytes32[]) private companyProducts;\r\n    mapping(string => Report[]) private companyReports;\r\n\r\n\r\n\r\n\r\n\r\n    function register_User(string memory _useraddress,string memory _name, string memory _email, string memory _password) public {\r\n        users[_useraddress] = User(_name,_email,_password);\r\n    }\r\n\r\n    function register_Company(address _compaddress,string memory _name, string memory _email, string memory _password,uint256 _cert_num) public {\r\n        companies[_compaddress] = Company(_name,_email,_password,_cert_num);\r\n    }\r\n\r\n    function login_user (string memory user_add , string memory _name , string memory _password) public view returns (bool found)\r\n    {\r\n            User memory user = users[user_add];\r\n            \r\n            // str compare keccak256(bytes(a)) == keccak256(bytes(b));\r\n            if(keccak256(bytes(user.name)) == keccak256(bytes(_name)) && keccak256(bytes(user.password)) == keccak256(bytes(_password)))\r\n                return true;\r\n            else\r\n                return false;\r\n    }\r\n\r\n    function login_company(address company_add, string memory _name, string memory _password) public view returns (bool found) {\r\n        Company memory company = companies[company_add];\r\n        // Compare company name and password using keccak256\r\n        if (keccak256(bytes(company.name)) == keccak256(bytes(_name)) && keccak256(bytes(company.password)) == keccak256(bytes(_password)))\r\n            return true;\r\n        else\r\n            return false;\r\n    }\r\n\r\n\r\n    function upload_Products(Product[] memory _products) public returns (bytes32[] memory hashedArray) {\r\n        bytes32[] memory productHashes = new bytes32[](_products.length);\r\n        \r\n        for (uint256 i = 0; i < _products.length; i++) {\r\n            Product memory p = _products[i];\r\n            \r\n            // Encoding Using the Four Attributes (Image Link Not Included)\r\n            bytes32 p_hashed = keccak256(abi.encode(p.id, p.name, p.model, p.description, p.companyName));\r\n            products[p_hashed] = p;\r\n            \r\n            // Add the product ID to the array of product IDs for the respective company\r\n            companyProducts[p.companyName].push(p_hashed);\r\n            \r\n            productHashes[i] = p_hashed;\r\n        }\r\n    \r\n    return productHashes;\r\n}\r\n    \r\n        // Get a Product by its Hash\r\n    function get_product(bytes32 product_add) public view returns (Product memory Prod) {\r\n        return products[product_add];\r\n    }\r\n\r\n    function retrieve_company_products(string memory Company_name) public onlyCompany() view returns (Product[] memory products_array) {\r\n        bytes32[] memory products_hashes = companyProducts[Company_name];\r\n        Product[] memory products_of_company = new Product[](products_hashes.length);\r\n        for (uint256 index = 0; index < products_hashes.length; index++) {\r\n            products_of_company[index] = get_product(products_hashes[index]);\r\n        }\r\n\r\n        return products_of_company;\r\n    }\r\n\r\n    // Verify a product and return its attributes or null values if not found\r\n    function verify_product(bytes32 product_add) external view returns (uint, string memory, string memory, string memory, string memory, string memory) {\r\n        // Get the product using the Company_Con contract's get_product function\r\n        System.Product memory product = products[product_add];\r\n\r\n        // Check if the product exists\r\n        if (product.id == 0) {\r\n            // Return null values if the product does not exist\r\n            return (0, \"\", \"\", \"\", \"\", \"\");\r\n        }\r\n        else {\r\n            // Return the product attributes if the product exists\r\n            return (product.id, product.name, product.model, product.description, product.companyName, product.imageLink);\r\n        }\r\n    }\r\n\r\n\r\n    function send_report(string memory linkimage, string memory location, string memory  description,string memory companyname) public\r\n    {\r\n        Report memory report = Report(linkimage,location,description);\r\n        companyReports[companyname].push(report);\r\n    } \r\n\r\n    function get_companies_names() public view returns(string[] memory)\r\n    {\r\n        uint256 length = companyAddresses.length;\r\n        string[] memory allCompanies = new string[](length);\r\n    \r\n        for (uint256 i = 0; i < length; i++) {\r\n            allCompanies[i] = companies[companyAddresses[i]].name;\r\n        }\r\n\r\n        return allCompanies;\r\n    }\r\n\r\n    function get_function_report(string memory company_name) public onlyCompany() view returns(Report[] memory) {\r\n        Report[] memory reports_of_company = companyReports[company_name];\r\n\r\n        return reports_of_company;\r\n    }\r\n\r\n\r\n    //----------------modifers------------\r\n\r\n    modifier onlyCompany() {\r\n        require(bytes(companies[msg.sender].name).length != 0, \"You are not a Company\");\r\n        _;\r\n    }\r\n\r\n    \r\n}\r\n\r\n",
  "sourcePath": "C:\\Users\\MSI-PC\\Desktop\\Fake Products Detection\\contracts\\System.sol",
  "compiler": {
    "name": "solc",
    "version": "0.5.16+commit.9c3226ce.Emscripten.clang"
  },
  "schemaVersion": "3.4.13",
  "updatedAt": "2023-07-02T19:14:52.601Z",
  "networkType": "ethereum",
  "devdoc": {
    "methods": {}
  },
  "userdoc": {
    "methods": {}
  }
}