{
  "contractName": "System",
  "abi": [
    {
      "constant": false,
      "inputs": [
        {
          "internalType": "string",
          "name": "_useraddress",
          "type": "string"
        },
        {
          "internalType": "string",
          "name": "_name",
          "type": "string"
        },
        {
          "internalType": "string",
          "name": "_email",
          "type": "string"
        },
        {
          "internalType": "string",
          "name": "_password",
          "type": "string"
        }
      ],
      "name": "register_User",
      "outputs": [],
      "payable": false,
      "stateMutability": "nonpayable",
      "type": "function"
    },
    {
      "constant": false,
      "inputs": [
        {
          "internalType": "address",
          "name": "_compaddress",
          "type": "address"
        },
        {
          "internalType": "string",
          "name": "_name",
          "type": "string"
        },
        {
          "internalType": "string",
          "name": "_email",
          "type": "string"
        },
        {
          "internalType": "string",
          "name": "_password",
          "type": "string"
        },
        {
          "internalType": "uint256",
          "name": "_cert_num",
          "type": "uint256"
        }
      ],
      "name": "register_Company",
      "outputs": [],
      "payable": false,
      "stateMutability": "nonpayable",
      "type": "function"
    },
    {
      "constant": true,
      "inputs": [
        {
          "internalType": "string",
          "name": "user_add",
          "type": "string"
        },
        {
          "internalType": "string",
          "name": "_name",
          "type": "string"
        },
        {
          "internalType": "string",
          "name": "_password",
          "type": "string"
        }
      ],
      "name": "login_user",
      "outputs": [
        {
          "internalType": "bool",
          "name": "found",
          "type": "bool"
        }
      ],
      "payable": false,
      "stateMutability": "view",
      "type": "function"
    },
    {
      "constant": true,
      "inputs": [
        {
          "internalType": "address",
          "name": "company_add",
          "type": "address"
        },
        {
          "internalType": "string",
          "name": "_name",
          "type": "string"
        },
        {
          "internalType": "string",
          "name": "_password",
          "type": "string"
        }
      ],
      "name": "login_company",
      "outputs": [
        {
          "internalType": "bool",
          "name": "found",
          "type": "bool"
        }
      ],
      "payable": false,
      "stateMutability": "view",
      "type": "function"
    },
    {
      "constant": false,
      "inputs": [
        {
          "components": [
            {
              "internalType": "uint256",
              "name": "id",
              "type": "uint256"
            },
            {
              "internalType": "string",
              "name": "name",
              "type": "string"
            },
            {
              "internalType": "string",
              "name": "model",
              "type": "string"
            },
            {
              "internalType": "string",
              "name": "description",
              "type": "string"
            },
            {
              "internalType": "string",
              "name": "companyName",
              "type": "string"
            },
            {
              "internalType": "string",
              "name": "imageLink",
              "type": "string"
            }
          ],
          "internalType": "struct System.Product[]",
          "name": "_products",
          "type": "tuple[]"
        }
      ],
      "name": "upload_Products",
      "outputs": [
        {
          "internalType": "bytes32[]",
          "name": "hashedArray",
          "type": "bytes32[]"
        }
      ],
      "payable": false,
      "stateMutability": "nonpayable",
      "type": "function"
    },
    {
      "constant": true,
      "inputs": [
        {
          "internalType": "string",
          "name": "Company_name",
          "type": "string"
        }
      ],
      "name": "retrieve_company_products",
      "outputs": [
        {
          "components": [
            {
              "internalType": "uint256",
              "name": "id",
              "type": "uint256"
            },
            {
              "internalType": "string",
              "name": "name",
              "type": "string"
            },
            {
              "internalType": "string",
              "name": "model",
              "type": "string"
            },
            {
              "internalType": "string",
              "name": "description",
              "type": "string"
            },
            {
              "internalType": "string",
              "name": "companyName",
              "type": "string"
            },
            {
              "internalType": "string",
              "name": "imageLink",
              "type": "string"
            }
          ],
          "internalType": "struct System.Product[]",
          "name": "products_array",
          "type": "tuple[]"
        }
      ],
      "payable": false,
      "stateMutability": "view",
      "type": "function"
    },
    {
      "constant": true,
      "inputs": [
        {
          "internalType": "bytes32",
          "name": "product_add",
          "type": "bytes32"
        }
      ],
      "name": "verify_product",
      "outputs": [
        {
          "internalType": "uint256",
          "name": "",
          "type": "uint256"
        },
        {
          "internalType": "string",
          "name": "",
          "type": "string"
        },
        {
          "internalType": "string",
          "name": "",
          "type": "string"
        },
        {
          "internalType": "string",
          "name": "",
          "type": "string"
        },
        {
          "internalType": "string",
          "name": "",
          "type": "string"
        },
        {
          "internalType": "string",
          "name": "",
          "type": "string"
        }
      ],
      "payable": false,
      "stateMutability": "view",
      "type": "function"
    },
    {
      "constant": false,
      "inputs": [
        {
          "internalType": "string",
          "name": "location",
          "type": "string"
        },
        {
          "internalType": "string",
          "name": "description",
          "type": "string"
        },
        {
          "internalType": "string",
          "name": "companyname",
          "type": "string"
        }
      ],
      "name": "send_report",
      "outputs": [],
      "payable": false,
      "stateMutability": "nonpayable",
      "type": "function"
    },
    {
      "constant": true,
      "inputs": [],
      "name": "get_companies_names",
      "outputs": [
        {
          "internalType": "string[]",
          "name": "",
          "type": "string[]"
        }
      ],
      "payable": false,
      "stateMutability": "view",
      "type": "function"
    },
    {
      "constant": true,
      "inputs": [
        {
          "internalType": "string",
          "name": "company_name",
          "type": "string"
        }
      ],
      "name": "get_function_report",
      "outputs": [
        {
          "components": [
            {
              "internalType": "string",
              "name": "Location",
              "type": "string"
            },
            {
              "internalType": "string",
              "name": "description",
              "type": "string"
            }
          ],
          "internalType": "struct System.Report[]",
          "name": "",
          "type": "tuple[]"
        }
      ],
      "payable": false,
      "stateMutability": "view",
      "type": "function"
    },
    {
      "constant": false,
      "inputs": [
        {
          "internalType": "string",
          "name": "companyname",
          "type": "string"
        },
        {
          "internalType": "uint256",
          "name": "index",
          "type": "uint256"
        }
      ],
      "name": "deleteReport",
      "outputs": [],
      "payable": false,
      "stateMutability": "nonpayable",
      "type": "function"
    },
    {
      "constant": false,
      "inputs": [
        {
          "internalType": "string",
          "name": "companyname",
          "type": "string"
        }
      ],
      "name": "delete_allReport",
      "outputs": [],
      "payable": false,
      "stateMutability": "nonpayable",
      "type": "function"
    }
  ],
  "bytecode": "0x608060405234801561001057600080fd5b50612e6f806100206000396000f3fe608060405234801561001057600080fd5b50600436106100b45760003560e01c8063a91dd13511610071578063a91dd13514610177578063af87729e146101a7578063c25d2c93146101dc578063ce2aae341461020c578063d23c91f514610228578063f087260814610258576100b4565b8063133af958146100b95780631d3be9bf146100d557806374139a16146100f15780638ace7b9b1461010d578063950081a81461013d578063a6524d761461015b575b600080fd5b6100d360048036036100ce919081019061218f565b610288565b005b6100ef60048036036100ea91908101906122b8565b6103b9565b005b61010b600480360361010691908101906122f9565b610480565b005b61012760048036036101229190810190612110565b61052c565b6040516101349190612a20565b60405180910390f35b6101456107c0565b60405161015291906129ba565b60405180910390f35b61017560048036036101709190810190612453565b610952565b005b610191600480360361018c919081019061224e565b610b98565b60405161019e9190612998565b60405180910390f35b6101c160048036036101bc919081019061228f565b610d72565b6040516101d396959493929190612a7b565b60405180910390f35b6101f660048036036101f191908101906122b8565b611190565b60405161020391906129dc565b60405180910390f35b61022660048036036102219190810190612390565b611337565b005b610242600480360361023d91908101906122f9565b6113d0565b60405161024f9190612a20565b60405180910390f35b610272600480360361026d91908101906122b8565b611639565b60405161027f91906129fe565b60405180910390f35b604051806080016040528085815260200184815260200183815260200182815250600160008773ffffffffffffffffffffffffffffffffffffffff1673ffffffffffffffffffffffffffffffffffffffff1681526020019081526020016000206000820151816000019080519060200190610304929190611bfb565b506020820151816001019080519060200190610321929190611bfb565b50604082015181600201908051906020019061033e929190611bfb565b506060820151816003015590505060028590806001815401808255809150509060018203906000526020600020016000909192909190916101000a81548173ffffffffffffffffffffffffffffffffffffffff021916908373ffffffffffffffffffffffffffffffffffffffff160217905550505050505050565b6000600160003373ffffffffffffffffffffffffffffffffffffffff1673ffffffffffffffffffffffffffffffffffffffff1681526020019081526020016000206000018054600181600116156101000203166002900490501415610453576040517f08c379a000000000000000000000000000000000000000000000000000000000815260040161044a90612a5b565b60405180910390fd5b6005816040516104639190612981565b9081526020016040518091039020600061047d9190611c7b565b50565b610488611c9f565b60405180604001604052808581526020018481525090506005826040516104af9190612981565b908152602001604051809103902081908060018154018082558091505090600182039060005260206000209060020201600090919290919091506000820151816000019080519060200190610505929190611bfb565b506020820151816001019080519060200190610522929190611bfb565b5050505050505050565b6000610536611cb9565b600160008673ffffffffffffffffffffffffffffffffffffffff1673ffffffffffffffffffffffffffffffffffffffff168152602001908152602001600020604051806080016040529081600082018054600181600116156101000203166002900480601f0160208091040260200160405190810160405280929190818152602001828054600181600116156101000203166002900480156106195780601f106105ee57610100808354040283529160200191610619565b820191906000526020600020905b8154815290600101906020018083116105fc57829003601f168201915b50505050508152602001600182018054600181600116156101000203166002900480601f0160208091040260200160405190810160405280929190818152602001828054600181600116156101000203166002900480156106bb5780601f10610690576101008083540402835291602001916106bb565b820191906000526020600020905b81548152906001019060200180831161069e57829003601f168201915b50505050508152602001600282018054600181600116156101000203166002900480601f01602080910402602001604051908101604052809291908181526020018280546001816001161561010002031660029004801561075d5780601f106107325761010080835404028352916020019161075d565b820191906000526020600020905b81548152906001019060200180831161074057829003601f168201915b50505050508152602001600382015481525050905083805190602001208160000151805190602001201480156107a457508280519060200120816040015180519060200120145b156107b35760019150506107b9565b60009150505b9392505050565b60606000600280549050905060608160405190808252806020026020018201604052801561080257816020015b60608152602001906001900390816107ed5790505b50905060008090505b8281101561094957600160006002838154811061082457fe5b9060005260206000200160009054906101000a900473ffffffffffffffffffffffffffffffffffffffff1673ffffffffffffffffffffffffffffffffffffffff1673ffffffffffffffffffffffffffffffffffffffff1681526020019081526020016000206000018054600181600116156101000203166002900480601f0160208091040260200160405190810160405280929190818152602001828054600181600116156101000203166002900480156109205780601f106108f557610100808354040283529160200191610920565b820191906000526020600020905b81548152906001019060200180831161090357829003601f168201915b505050505082828151811061093157fe5b6020026020010181905250808060010191505061080b565b50809250505090565b6000600160003373ffffffffffffffffffffffffffffffffffffffff1673ffffffffffffffffffffffffffffffffffffffff16815260200190815260200160002060000180546001816001161561010002031660029004905014156109ec576040517f08c379a00000000000000000000000000000000000000000000000000000000081526004016109e390612a5b565b60405180910390fd5b6005826040516109fc9190612981565b9081526020016040518091039020805490508110610a4f576040517f08c379a0000000000000000000000000000000000000000000000000000000008152600401610a4690612a3b565b60405180910390fd5b600582604051610a5f9190612981565b90815260200160405180910390206001600584604051610a7f9190612981565b9081526020016040518091039020805490500381548110610a9c57fe5b9060005260206000209060020201600583604051610aba9190612981565b90815260200160405180910390208281548110610ad357fe5b906000526020600020906002020160008201816000019080546001816001161561010002031660029004610b08929190611ce1565b5060018201816001019080546001816001161561010002031660029004610b30929190611ce1565b50905050600582604051610b449190612981565b9081526020016040518091039020805480610b5b57fe5b600190038181906000526020600020906002020160008082016000610b809190611d68565b600182016000610b909190611d68565b505090555050565b6060808251604051908082528060200260200182016040528015610bcb5781602001602082028038833980820191505090505b50905060008090505b8351811015610d6857610be5611db0565b848281518110610bf157fe5b60200260200101519050600081600001518260200151836040015184606001518560800151604051602001610c2a959493929190612aff565b6040516020818303038152906040528051906020012090508160036000838152602001908152602001600020600082015181600001556020820151816001019080519060200190610c7c929190611bfb565b506040820151816002019080519060200190610c99929190611bfb565b506060820151816003019080519060200190610cb6929190611bfb565b506080820151816004019080519060200190610cd3929190611bfb565b5060a0820151816005019080519060200190610cf0929190611bfb565b5090505060048260800151604051610d08919061296a565b908152602001604051809103902081908060018154018082558091505090600182039060005260206000200160009091929091909150555080848481518110610d4d57fe5b60200260200101818152505050508080600101915050610bd4565b5080915050919050565b60006060806060806060610d84611db0565b600360008981526020019081526020016000206040518060c001604052908160008201548152602001600182018054600181600116156101000203166002900480601f016020809104026020016040519081016040528092919081815260200182805460018160011615610100020316600290048015610e455780601f10610e1a57610100808354040283529160200191610e45565b820191906000526020600020905b815481529060010190602001808311610e2857829003601f168201915b50505050508152602001600282018054600181600116156101000203166002900480601f016020809104026020016040519081016040528092919081815260200182805460018160011615610100020316600290048015610ee75780601f10610ebc57610100808354040283529160200191610ee7565b820191906000526020600020905b815481529060010190602001808311610eca57829003601f168201915b50505050508152602001600382018054600181600116156101000203166002900480601f016020809104026020016040519081016040528092919081815260200182805460018160011615610100020316600290048015610f895780601f10610f5e57610100808354040283529160200191610f89565b820191906000526020600020905b815481529060010190602001808311610f6c57829003601f168201915b50505050508152602001600482018054600181600116156101000203166002900480601f01602080910402602001604051908101604052809291908181526020018280546001816001161561010002031660029004801561102b5780601f106110005761010080835404028352916020019161102b565b820191906000526020600020905b81548152906001019060200180831161100e57829003601f168201915b50505050508152602001600582018054600181600116156101000203166002900480601f0160208091040260200160405190810160405280929190818152602001828054600181600116156101000203166002900480156110cd5780601f106110a2576101008083540402835291602001916110cd565b820191906000526020600020905b8154815290600101906020018083116110b057829003601f168201915b505050505081525050905060008160000151141561114c576000809050604051806020016040528060008152506040518060200160405280600081525060405180602001604052806000815250604051806020016040528060008152506040518060200160405280600081525096509650965096509650965050611187565b806000015181602001518260400151836060015184608001518560a00151849450839350829250819150809050965096509650965096509650505b91939550919395565b60606000600160003373ffffffffffffffffffffffffffffffffffffffff1673ffffffffffffffffffffffffffffffffffffffff168152602001908152602001600020600001805460018160011615610100020316600290049050141561122c576040517f08c379a000000000000000000000000000000000000000000000000000000000815260040161122390612a5b565b60405180910390fd5b606060048360405161123e9190612981565b908152602001604051809103902080548060200260200160405190810160405280929190818152602001828054801561129657602002820191906000526020600020905b815481526020019060010190808311611282575b50505050509050606081516040519080825280602002602001820160405280156112da57816020015b6112c7611de6565b8152602001906001900390816112bf5790505b50905060008090505b825181101561132c576113088382815181106112fb57fe5b602002602001015161189a565b82828151811061131457fe5b602002602001018190525080806001019150506112e3565b508092505050919050565b6040518060600160405280848152602001838152602001828152506000856040516113629190612981565b9081526020016040518091039020600082015181600001908051906020019061138c929190611bfb565b5060208201518160010190805190602001906113a9929190611bfb565b5060408201518160020190805190602001906113c6929190611bfb565b5090505050505050565b60006113da611e1c565b6000856040516113ea9190612981565b9081526020016040518091039020604051806060016040529081600082018054600181600116156101000203166002900480601f01602080910402602001604051908101604052809291908181526020018280546001816001161561010002031660029004801561149c5780601f106114715761010080835404028352916020019161149c565b820191906000526020600020905b81548152906001019060200180831161147f57829003601f168201915b50505050508152602001600182018054600181600116156101000203166002900480601f01602080910402602001604051908101604052809291908181526020018280546001816001161561010002031660029004801561153e5780601f106115135761010080835404028352916020019161153e565b820191906000526020600020905b81548152906001019060200180831161152157829003601f168201915b50505050508152602001600282018054600181600116156101000203166002900480601f0160208091040260200160405190810160405280929190818152602001828054600181600116156101000203166002900480156115e05780601f106115b5576101008083540402835291602001916115e0565b820191906000526020600020905b8154815290600101906020018083116115c357829003601f168201915b5050505050815250509050838051906020012081600001518051906020012014801561161d57508280519060200120816040015180519060200120145b1561162c576001915050611632565b60009150505b9392505050565b60606000600160003373ffffffffffffffffffffffffffffffffffffffff1673ffffffffffffffffffffffffffffffffffffffff16815260200190815260200160002060000180546001816001161561010002031660029004905014156116d5576040517f08c379a00000000000000000000000000000000000000000000000000000000081526004016116cc90612a5b565b60405180910390fd5b60606005836040516116e79190612981565b9081526020016040518091039020805480602002602001604051908101604052809291908181526020016000905b8282101561188b5783829060005260206000209060020201604051806040016040529081600082018054600181600116156101000203166002900480601f0160208091040260200160405190810160405280929190818152602001828054600181600116156101000203166002900480156117d15780601f106117a6576101008083540402835291602001916117d1565b820191906000526020600020905b8154815290600101906020018083116117b457829003601f168201915b50505050508152602001600182018054600181600116156101000203166002900480601f0160208091040260200160405190810160405280929190818152602001828054600181600116156101000203166002900480156118735780601f1061184857610100808354040283529160200191611873565b820191906000526020600020905b81548152906001019060200180831161185657829003601f168201915b50505050508152505081526020019060010190611715565b50505050905080915050919050565b6118a2611db0565b600360008381526020019081526020016000206040518060c001604052908160008201548152602001600182018054600181600116156101000203166002900480601f0160208091040260200160405190810160405280929190818152602001828054600181600116156101000203166002900480156119635780601f1061193857610100808354040283529160200191611963565b820191906000526020600020905b81548152906001019060200180831161194657829003601f168201915b50505050508152602001600282018054600181600116156101000203166002900480601f016020809104026020016040519081016040528092919081815260200182805460018160011615610100020316600290048015611a055780601f106119da57610100808354040283529160200191611a05565b820191906000526020600020905b8154815290600101906020018083116119e857829003601f168201915b50505050508152602001600382018054600181600116156101000203166002900480601f016020809104026020016040519081016040528092919081815260200182805460018160011615610100020316600290048015611aa75780601f10611a7c57610100808354040283529160200191611aa7565b820191906000526020600020905b815481529060010190602001808311611a8a57829003601f168201915b50505050508152602001600482018054600181600116156101000203166002900480601f016020809104026020016040519081016040528092919081815260200182805460018160011615610100020316600290048015611b495780601f10611b1e57610100808354040283529160200191611b49565b820191906000526020600020905b815481529060010190602001808311611b2c57829003601f168201915b50505050508152602001600582018054600181600116156101000203166002900480601f016020809104026020016040519081016040528092919081815260200182805460018160011615610100020316600290048015611beb5780601f10611bc057610100808354040283529160200191611beb565b820191906000526020600020905b815481529060010190602001808311611bce57829003601f168201915b5050505050815250509050919050565b828054600181600116156101000203166002900490600052602060002090601f016020900481019282601f10611c3c57805160ff1916838001178555611c6a565b82800160010185558215611c6a579182015b82811115611c69578251825591602001919060010190611c4e565b5b509050611c779190611e3d565b5090565b5080546000825560020290600052602060002090810190611c9c9190611e62565b50565b604051806040016040528060608152602001606081525090565b6040518060800160405280606081526020016060815260200160608152602001600081525090565b828054600181600116156101000203166002900490600052602060002090601f016020900481019282601f10611d1a5780548555611d57565b82800160010185558215611d5757600052602060002091601f016020900482015b82811115611d56578254825591600101919060010190611d3b565b5b509050611d649190611e3d565b5090565b50805460018160011615610100020316600290046000825580601f10611d8e5750611dad565b601f016020900490600052602060002090810190611dac9190611e3d565b5b50565b6040518060c001604052806000815260200160608152602001606081526020016060815260200160608152602001606081525090565b6040518060c001604052806000815260200160608152602001606081526020016060815260200160608152602001606081525090565b60405180606001604052806060815260200160608152602001606081525090565b611e5f91905b80821115611e5b576000816000905550600101611e43565b5090565b90565b611e9e91905b80821115611e9a5760008082016000611e819190611d68565b600182016000611e919190611d68565b50600201611e68565b5090565b90565b600081359050611eb081612de7565b92915050565b600082601f830112611ec757600080fd5b8135611eda611ed582612b9b565b612b6e565b9150818183526020840193506020810190508360005b83811015611f205781358601611f068882611fe7565b845260208401935060208301925050600181019050611ef0565b5050505092915050565b600081359050611f3981612dfe565b92915050565b600082601f830112611f5057600080fd5b8135611f63611f5e82612bc3565b612b6e565b91508082526020830160208301858383011115611f7f57600080fd5b611f8a838284612d94565b50505092915050565b600082601f830112611fa457600080fd5b8135611fb7611fb282612bef565b612b6e565b91508082526020830160208301858383011115611fd357600080fd5b611fde838284612d94565b50505092915050565b600060c08284031215611ff957600080fd5b61200360c0612b6e565b90506000612013848285016120fb565b600083015250602082013567ffffffffffffffff81111561203357600080fd5b61203f84828501611f3f565b602083015250604082013567ffffffffffffffff81111561205f57600080fd5b61206b84828501611f3f565b604083015250606082013567ffffffffffffffff81111561208b57600080fd5b61209784828501611f3f565b606083015250608082013567ffffffffffffffff8111156120b757600080fd5b6120c384828501611f3f565b60808301525060a082013567ffffffffffffffff8111156120e357600080fd5b6120ef84828501611f3f565b60a08301525092915050565b60008135905061210a81612e15565b92915050565b60008060006060848603121561212557600080fd5b600061213386828701611ea1565b935050602084013567ffffffffffffffff81111561215057600080fd5b61215c86828701611f93565b925050604084013567ffffffffffffffff81111561217957600080fd5b61218586828701611f93565b9150509250925092565b600080600080600060a086880312156121a757600080fd5b60006121b588828901611ea1565b955050602086013567ffffffffffffffff8111156121d257600080fd5b6121de88828901611f93565b945050604086013567ffffffffffffffff8111156121fb57600080fd5b61220788828901611f93565b935050606086013567ffffffffffffffff81111561222457600080fd5b61223088828901611f93565b9250506080612241888289016120fb565b9150509295509295909350565b60006020828403121561226057600080fd5b600082013567ffffffffffffffff81111561227a57600080fd5b61228684828501611eb6565b91505092915050565b6000602082840312156122a157600080fd5b60006122af84828501611f2a565b91505092915050565b6000602082840312156122ca57600080fd5b600082013567ffffffffffffffff8111156122e457600080fd5b6122f084828501611f93565b91505092915050565b60008060006060848603121561230e57600080fd5b600084013567ffffffffffffffff81111561232857600080fd5b61233486828701611f93565b935050602084013567ffffffffffffffff81111561235157600080fd5b61235d86828701611f93565b925050604084013567ffffffffffffffff81111561237a57600080fd5b61238686828701611f93565b9150509250925092565b600080600080608085870312156123a657600080fd5b600085013567ffffffffffffffff8111156123c057600080fd5b6123cc87828801611f93565b945050602085013567ffffffffffffffff8111156123e957600080fd5b6123f587828801611f93565b935050604085013567ffffffffffffffff81111561241257600080fd5b61241e87828801611f93565b925050606085013567ffffffffffffffff81111561243b57600080fd5b61244787828801611f93565b91505092959194509250565b6000806040838503121561246657600080fd5b600083013567ffffffffffffffff81111561248057600080fd5b61248c85828601611f93565b925050602061249d858286016120fb565b9150509250929050565b60006124b383836126c7565b60208301905092915050565b60006124cb8383612740565b905092915050565b60006124df8383612863565b905092915050565b60006124f38383612908565b905092915050565b600061250682612c5b565b6125108185612cd1565b935061251b83612c1b565b8060005b8381101561254c57815161253388826124a7565b975061253e83612c9d565b92505060018101905061251f565b5085935050505092915050565b600061256482612c66565b61256e8185612ce2565b93508360208202850161258085612c2b565b8060005b858110156125bc578484038952815161259d85826124bf565b94506125a883612caa565b925060208a01995050600181019050612584565b50829750879550505050505092915050565b60006125d982612c71565b6125e38185612cf3565b9350836020820285016125f585612c3b565b8060005b85811015612631578484038952815161261285826124d3565b945061261d83612cb7565b925060208a019950506001810190506125f9565b50829750879550505050505092915050565b600061264e82612c7c565b6126588185612d04565b93508360208202850161266a85612c4b565b8060005b858110156126a6578484038952815161268785826124e7565b945061269283612cc4565b925060208a0199505060018101905061266e565b50829750879550505050505092915050565b6126c181612d54565b82525050565b6126d081612d60565b82525050565b60006126e182612c92565b6126eb8185612d26565b93506126fb818560208601612da3565b61270481612dd6565b840191505092915050565b600061271a82612c92565b6127248185612d37565b9350612734818560208601612da3565b80840191505092915050565b600061274b82612c87565b6127558185612d15565b9350612765818560208601612da3565b61276e81612dd6565b840191505092915050565b600061278482612c87565b61278e8185612d26565b935061279e818560208601612da3565b6127a781612dd6565b840191505092915050565b60006127bd82612c87565b6127c78185612d37565b93506127d7818560208601612da3565b80840191505092915050565b60006127f0600d83612d26565b91507f496e76616c696420696e646578000000000000000000000000000000000000006000830152602082019050919050565b6000612830601583612d26565b91507f596f7520617265206e6f74206120436f6d70616e7900000000000000000000006000830152602082019050919050565b600060c08301600083015161287b600086018261294c565b50602083015184820360208601526128938282612740565b915050604083015184820360408601526128ad8282612740565b915050606083015184820360608601526128c78282612740565b915050608083015184820360808601526128e18282612740565b91505060a083015184820360a08601526128fb8282612740565b9150508091505092915050565b600060408301600083015184820360008601526129258282612740565b9150506020830151848203602086015261293f8282612740565b9150508091505092915050565b61295581612d8a565b82525050565b61296481612d8a565b82525050565b600061297682846127b2565b915081905092915050565b600061298d828461270f565b915081905092915050565b600060208201905081810360008301526129b281846124fb565b905092915050565b600060208201905081810360008301526129d48184612559565b905092915050565b600060208201905081810360008301526129f681846125ce565b905092915050565b60006020820190508181036000830152612a188184612643565b905092915050565b6000602082019050612a3560008301846126b8565b92915050565b60006020820190508181036000830152612a54816127e3565b9050919050565b60006020820190508181036000830152612a7481612823565b9050919050565b600060c082019050612a90600083018961295b565b8181036020830152612aa281886126d6565b90508181036040830152612ab681876126d6565b90508181036060830152612aca81866126d6565b90508181036080830152612ade81856126d6565b905081810360a0830152612af281846126d6565b9050979650505050505050565b600060a082019050612b14600083018861295b565b8181036020830152612b268187612779565b90508181036040830152612b3a8186612779565b90508181036060830152612b4e8185612779565b90508181036080830152612b628184612779565b90509695505050505050565b6000604051905081810181811067ffffffffffffffff82111715612b9157600080fd5b8060405250919050565b600067ffffffffffffffff821115612bb257600080fd5b602082029050602081019050919050565b600067ffffffffffffffff821115612bda57600080fd5b601f19601f8301169050602081019050919050565b600067ffffffffffffffff821115612c0657600080fd5b601f19601f8301169050602081019050919050565b6000819050602082019050919050565b6000819050602082019050919050565b6000819050602082019050919050565b6000819050602082019050919050565b600081519050919050565b600081519050919050565b600081519050919050565b600081519050919050565b600081519050919050565b600081519050919050565b6000602082019050919050565b6000602082019050919050565b6000602082019050919050565b6000602082019050919050565b600082825260208201905092915050565b600082825260208201905092915050565b600082825260208201905092915050565b600082825260208201905092915050565b600082825260208201905092915050565b600082825260208201905092915050565b600081905092915050565b6000612d4d82612d6a565b9050919050565b60008115159050919050565b6000819050919050565b600073ffffffffffffffffffffffffffffffffffffffff82169050919050565b6000819050919050565b82818337600083830152505050565b60005b83811015612dc1578082015181840152602081019050612da6565b83811115612dd0576000848401525b50505050565b6000601f19601f8301169050919050565b612df081612d42565b8114612dfb57600080fd5b50565b612e0781612d60565b8114612e1257600080fd5b50565b612e1e81612d8a565b8114612e2957600080fd5b5056fea365627a7a72315820989cbafd4f06ec10a8ae61ad92572d209f6f33413494ea015086713862c2c5156c6578706572696d656e74616cf564736f6c63430005100040",
  "source": "// SPDX-License-Identifier: MIT\r\npragma experimental ABIEncoderV2;\r\npragma solidity >=0.4.17<0.9.0;\r\n\r\ncontract System {\r\n\r\n    // Company Information (Certificate Number for Identity Management)\r\n    struct Company {\r\n        string name;\r\n        string email;\r\n        string password;\r\n        uint256 certificate_num;\r\n    }\r\n\r\n        struct User {\r\n        string name;\r\n        string email;\r\n        string password;\r\n    }\r\n    // Product Information (Image Link not the Actual Image Bytes)\r\n    // Company Name for Filteration\r\n    struct Product {\r\n        uint id;\r\n        string name;\r\n        string model;\r\n        string description;\r\n        string companyName;\r\n        string imageLink;\r\n    }\r\n\r\n    struct Report {\r\n        // string imageLink;\r\n        string Location;\r\n        string description;\r\n    }\r\n\r\n    //Product public prod;\r\n\r\n    mapping(string => User) users;\r\n    mapping(address => Company) companies;\r\n    address[] private companyAddresses;\r\n    \r\n    mapping(bytes32 => Product) private products;\r\n    mapping(string => bytes32[]) private companyProducts;\r\n    mapping(string => Report[]) private companyReports;\r\n\r\n\r\n\r\n\r\n\r\n    function register_User(string memory _useraddress,string memory _name, string memory _email, string memory _password) public {\r\n        users[_useraddress] = User(_name,_email,_password);\r\n    }\r\n\r\n    function register_Company(address _compaddress,string memory _name, string memory _email, string memory _password,uint256 _cert_num) public {\r\n        companies[_compaddress] = Company(_name,_email,_password,_cert_num);\r\n        companyAddresses.push(_compaddress);\r\n    }\r\n\r\n    function login_user (string memory user_add , string memory _name , string memory _password) public view returns (bool found)\r\n    {\r\n            User memory user = users[user_add];\r\n            \r\n            // str compare keccak256(bytes(a)) == keccak256(bytes(b));\r\n            if(keccak256(bytes(user.name)) == keccak256(bytes(_name)) && keccak256(bytes(user.password)) == keccak256(bytes(_password)))\r\n                return true;\r\n            else\r\n                return false;\r\n    }\r\n\r\n    function login_company(address company_add, string memory _name, string memory _password) public view returns (bool found) {\r\n        Company memory company = companies[company_add];\r\n        // Compare company name and password using keccak256\r\n        if (keccak256(bytes(company.name)) == keccak256(bytes(_name)) && keccak256(bytes(company.password)) == keccak256(bytes(_password)))\r\n            return true;\r\n        else\r\n            return false;\r\n    }\r\n\r\n\r\n    function upload_Products(Product[] memory _products) public returns (bytes32[] memory hashedArray) {\r\n        bytes32[] memory productHashes = new bytes32[](_products.length);\r\n        \r\n        for (uint256 i = 0; i < _products.length; i++) {\r\n            Product memory p = _products[i];\r\n            \r\n            // Encoding Using the Four Attributes (Image Link Not Included)\r\n            bytes32 p_hashed = keccak256(abi.encode(p.id, p.name, p.model, p.description, p.companyName));\r\n            products[p_hashed] = p;\r\n            \r\n            // Add the product ID to the array of product IDs for the respective company\r\n            companyProducts[p.companyName].push(p_hashed);\r\n            \r\n            productHashes[i] = p_hashed;\r\n        }\r\n    \r\n    return productHashes;\r\n}\r\n    \r\n        // Get a Product by its Hash\r\n    function get_product(bytes32 product_add) internal view returns (Product memory Prod) {\r\n        return products[product_add];\r\n    }\r\n\r\n    function retrieve_company_products(string memory Company_name) public onlyCompany() view returns (Product[] memory products_array) {\r\n        bytes32[] memory products_hashes = companyProducts[Company_name];\r\n        Product[] memory products_of_company = new Product[](products_hashes.length);\r\n        for (uint256 index = 0; index < products_hashes.length; index++) {\r\n            products_of_company[index] = get_product(products_hashes[index]);\r\n        }\r\n\r\n        return products_of_company;\r\n    }\r\n\r\n    // Verify a product and return its attributes or null values if not found\r\n    function verify_product(bytes32 product_add) external view returns (uint, string memory, string memory, string memory, string memory, string memory) {\r\n        // Get the product using the Company_Con contract's get_product function\r\n        System.Product memory product = products[product_add];\r\n\r\n        // Check if the product exists\r\n        if (product.id == 0) {\r\n            // Return null values if the product does not exist\r\n            return (0, \"\", \"\", \"\", \"\", \"\");\r\n        }\r\n        else {\r\n            // Return the product attributes if the product exists\r\n            return (product.id, product.name, product.model, product.description, product.companyName, product.imageLink);\r\n        }\r\n    }\r\n\r\n\r\n    function send_report(string memory location, string memory  description,string memory companyname) public\r\n    {\r\n        Report memory report = Report(location,description);\r\n        companyReports[companyname].push(report);\r\n    }\r\n\r\n    function get_companies_names() public view returns(string[] memory)\r\n    {\r\n        uint256 length = companyAddresses.length;\r\n        string[] memory allCompanies = new string[](length);\r\n    \r\n        for (uint256 i = 0; i < length; i++) {\r\n            allCompanies[i] = companies[companyAddresses[i]].name;\r\n        }\r\n\r\n        return allCompanies;\r\n    }\r\n\r\n    function get_function_report(string memory company_name) public onlyCompany() view returns(Report[] memory) {\r\n        Report[] memory reports_of_company = companyReports[company_name];\r\n\r\n        return reports_of_company;\r\n    }\r\n\r\n    function deleteReport(string memory companyname, uint index) public onlyCompany() {\r\n        require(index < companyReports[companyname].length, \"Invalid index\");\r\n\r\n        // Move the last element to the index being deleted\r\n        companyReports[companyname][index] = companyReports[companyname][companyReports[companyname].length - 1];\r\n\r\n        // Remove the last element\r\n        companyReports[companyname].pop();\r\n    }\r\n    \r\n    function delete_allReport(string memory companyname) public onlyCompany() {\r\n    \r\n    // Remove the last element\r\n    delete companyReports[companyname];\r\n    }\r\n    \r\n\r\n\r\n    //----------------modifers------------\r\n\r\n    modifier onlyCompany() {\r\n        require(bytes(companies[msg.sender].name).length != 0, \"You are not a Company\");\r\n        _;\r\n    }\r\n\r\n    \r\n}\r\n\r\n",
  "sourcePath": "C:\\Users\\Philip\\Desktop\\Fake-Products-Detection\\contracts\\System.sol",
  "compiler": {
    "name": "solc",
    "version": "0.5.16+commit.9c3226ce.Emscripten.clang"
  },
  "schemaVersion": "3.4.13",
  "updatedAt": "2023-07-03T14:26:15.585Z",
  "networkType": "ethereum",
  "devdoc": {
    "methods": {}
  },
  "userdoc": {
    "methods": {}
  }
}