{
  "contractName": "System",
  "abi": [
    {
      "constant": false,
      "inputs": [
        {
          "internalType": "string",
          "name": "_useraddress",
          "type": "string"
        },
        {
          "internalType": "string",
          "name": "_name",
          "type": "string"
        },
        {
          "internalType": "string",
          "name": "_email",
          "type": "string"
        },
        {
          "internalType": "string",
          "name": "_password",
          "type": "string"
        }
      ],
      "name": "register_User",
      "outputs": [],
      "payable": false,
      "stateMutability": "nonpayable",
      "type": "function"
    },
    {
      "constant": false,
      "inputs": [
        {
          "internalType": "address",
          "name": "_compaddress",
          "type": "address"
        },
        {
          "internalType": "string",
          "name": "_name",
          "type": "string"
        },
        {
          "internalType": "string",
          "name": "_email",
          "type": "string"
        },
        {
          "internalType": "string",
          "name": "_password",
          "type": "string"
        },
        {
          "internalType": "uint256",
          "name": "_cert_num",
          "type": "uint256"
        }
      ],
      "name": "register_Company",
      "outputs": [],
      "payable": false,
      "stateMutability": "nonpayable",
      "type": "function"
    },
    {
      "constant": true,
      "inputs": [
        {
          "internalType": "string",
          "name": "user_add",
          "type": "string"
        },
        {
          "internalType": "string",
          "name": "_name",
          "type": "string"
        },
        {
          "internalType": "string",
          "name": "_password",
          "type": "string"
        }
      ],
      "name": "login_user",
      "outputs": [
        {
          "internalType": "bool",
          "name": "found",
          "type": "bool"
        }
      ],
      "payable": false,
      "stateMutability": "view",
      "type": "function"
    },
    {
      "constant": true,
      "inputs": [
        {
          "internalType": "address",
          "name": "company_add",
          "type": "address"
        },
        {
          "internalType": "string",
          "name": "_name",
          "type": "string"
        },
        {
          "internalType": "string",
          "name": "_password",
          "type": "string"
        }
      ],
      "name": "login_company",
      "outputs": [
        {
          "internalType": "bool",
          "name": "found",
          "type": "bool"
        }
      ],
      "payable": false,
      "stateMutability": "view",
      "type": "function"
    },
    {
      "constant": false,
      "inputs": [
        {
          "components": [
            {
              "internalType": "uint256",
              "name": "id",
              "type": "uint256"
            },
            {
              "internalType": "string",
              "name": "name",
              "type": "string"
            },
            {
              "internalType": "string",
              "name": "model",
              "type": "string"
            },
            {
              "internalType": "string",
              "name": "description",
              "type": "string"
            },
            {
              "internalType": "string",
              "name": "companyName",
              "type": "string"
            },
            {
              "internalType": "string",
              "name": "imageLink",
              "type": "string"
            }
          ],
          "internalType": "struct System.Product[]",
          "name": "_products",
          "type": "tuple[]"
        }
      ],
      "name": "upload_Products",
      "outputs": [
        {
          "internalType": "bytes32[]",
          "name": "hashedArray",
          "type": "bytes32[]"
        }
      ],
      "payable": false,
      "stateMutability": "nonpayable",
      "type": "function"
    },
    {
      "constant": true,
      "inputs": [
        {
          "internalType": "string",
          "name": "Company_name",
          "type": "string"
        }
      ],
      "name": "retrieve_company_products",
      "outputs": [
        {
          "components": [
            {
              "internalType": "uint256",
              "name": "id",
              "type": "uint256"
            },
            {
              "internalType": "string",
              "name": "name",
              "type": "string"
            },
            {
              "internalType": "string",
              "name": "model",
              "type": "string"
            },
            {
              "internalType": "string",
              "name": "description",
              "type": "string"
            },
            {
              "internalType": "string",
              "name": "companyName",
              "type": "string"
            },
            {
              "internalType": "string",
              "name": "imageLink",
              "type": "string"
            }
          ],
          "internalType": "struct System.Product[]",
          "name": "products_array",
          "type": "tuple[]"
        }
      ],
      "payable": false,
      "stateMutability": "view",
      "type": "function"
    },
    {
      "constant": true,
      "inputs": [
        {
          "internalType": "bytes32",
          "name": "product_add",
          "type": "bytes32"
        }
      ],
      "name": "verify_product",
      "outputs": [
        {
          "internalType": "uint256",
          "name": "",
          "type": "uint256"
        },
        {
          "internalType": "string",
          "name": "",
          "type": "string"
        },
        {
          "internalType": "string",
          "name": "",
          "type": "string"
        },
        {
          "internalType": "string",
          "name": "",
          "type": "string"
        },
        {
          "internalType": "string",
          "name": "",
          "type": "string"
        },
        {
          "internalType": "string",
          "name": "",
          "type": "string"
        }
      ],
      "payable": false,
      "stateMutability": "view",
      "type": "function"
    },
    {
      "constant": false,
      "inputs": [
        {
          "internalType": "string",
          "name": "location",
          "type": "string"
        },
        {
          "internalType": "string",
          "name": "description",
          "type": "string"
        },
        {
          "internalType": "string",
          "name": "companyname",
          "type": "string"
        }
      ],
      "name": "send_report",
      "outputs": [],
      "payable": false,
      "stateMutability": "nonpayable",
      "type": "function"
    },
    {
      "constant": true,
      "inputs": [],
      "name": "get_companies_names",
      "outputs": [
        {
          "internalType": "string[]",
          "name": "",
          "type": "string[]"
        }
      ],
      "payable": false,
      "stateMutability": "view",
      "type": "function"
    },
    {
      "constant": true,
      "inputs": [
        {
          "internalType": "string",
          "name": "company_name",
          "type": "string"
        }
      ],
      "name": "get_function_report",
      "outputs": [
        {
          "components": [
            {
              "internalType": "string",
              "name": "Location",
              "type": "string"
            },
            {
              "internalType": "string",
              "name": "description",
              "type": "string"
            }
          ],
          "internalType": "struct System.Report[]",
          "name": "",
          "type": "tuple[]"
        }
      ],
      "payable": false,
      "stateMutability": "view",
      "type": "function"
    }
  ],
  "bytecode": "0x608060405234801561001057600080fd5b5061292e806100206000396000f3fe608060405234801561001057600080fd5b506004361061009e5760003560e01c8063af87729e11610066578063af87729e14610159578063c25d2c931461018e578063ce2aae34146101be578063d23c91f5146101da578063f08726081461020a5761009e565b8063133af958146100a357806374139a16146100bf5780638ace7b9b146100db578063950081a81461010b578063a91dd13514610129575b600080fd5b6100bd60048036036100b89190810190611d02565b61023a565b005b6100d960048036036100d49190810190611e6c565b61036b565b005b6100f560048036036100f09190810190611c83565b610417565b60405161010291906124ff565b60405180910390f35b6101136106ab565b6040516101209190612499565b60405180910390f35b610143600480360361013e9190810190611dc1565b61083d565b6040516101509190612477565b60405180910390f35b610173600480360361016e9190810190611e02565b610a17565b6040516101859695949392919061253a565b60405180910390f35b6101a860048036036101a39190810190611e2b565b610e35565b6040516101b591906124bb565b60405180910390f35b6101d860048036036101d39190810190611f03565b610fdc565b005b6101f460048036036101ef9190810190611e6c565b611075565b60405161020191906124ff565b60405180910390f35b610224600480360361021f9190810190611e2b565b6112de565b60405161023191906124dd565b60405180910390f35b604051806080016040528085815260200184815260200183815260200182815250600160008773ffffffffffffffffffffffffffffffffffffffff1673ffffffffffffffffffffffffffffffffffffffff16815260200190815260200160002060008201518160000190805190602001906102b69291906118a0565b5060208201518160010190805190602001906102d39291906118a0565b5060408201518160020190805190602001906102f09291906118a0565b506060820151816003015590505060028590806001815401808255809150509060018203906000526020600020016000909192909190916101000a81548173ffffffffffffffffffffffffffffffffffffffff021916908373ffffffffffffffffffffffffffffffffffffffff160217905550505050505050565b610373611920565b604051806040016040528085815260200184815250905060058260405161039a9190612460565b9081526020016040518091039020819080600181540180825580915050906001820390600052602060002090600202016000909192909190915060008201518160000190805190602001906103f09291906118a0565b50602082015181600101908051906020019061040d9291906118a0565b5050505050505050565b600061042161193a565b600160008673ffffffffffffffffffffffffffffffffffffffff1673ffffffffffffffffffffffffffffffffffffffff168152602001908152602001600020604051806080016040529081600082018054600181600116156101000203166002900480601f0160208091040260200160405190810160405280929190818152602001828054600181600116156101000203166002900480156105045780601f106104d957610100808354040283529160200191610504565b820191906000526020600020905b8154815290600101906020018083116104e757829003601f168201915b50505050508152602001600182018054600181600116156101000203166002900480601f0160208091040260200160405190810160405280929190818152602001828054600181600116156101000203166002900480156105a65780601f1061057b576101008083540402835291602001916105a6565b820191906000526020600020905b81548152906001019060200180831161058957829003601f168201915b50505050508152602001600282018054600181600116156101000203166002900480601f0160208091040260200160405190810160405280929190818152602001828054600181600116156101000203166002900480156106485780601f1061061d57610100808354040283529160200191610648565b820191906000526020600020905b81548152906001019060200180831161062b57829003601f168201915b505050505081526020016003820154815250509050838051906020012081600001518051906020012014801561068f57508280519060200120816040015180519060200120145b1561069e5760019150506106a4565b60009150505b9392505050565b6060600060028054905090506060816040519080825280602002602001820160405280156106ed57816020015b60608152602001906001900390816106d85790505b50905060008090505b8281101561083457600160006002838154811061070f57fe5b9060005260206000200160009054906101000a900473ffffffffffffffffffffffffffffffffffffffff1673ffffffffffffffffffffffffffffffffffffffff1673ffffffffffffffffffffffffffffffffffffffff1681526020019081526020016000206000018054600181600116156101000203166002900480601f01602080910402602001604051908101604052809291908181526020018280546001816001161561010002031660029004801561080b5780601f106107e05761010080835404028352916020019161080b565b820191906000526020600020905b8154815290600101906020018083116107ee57829003601f168201915b505050505082828151811061081c57fe5b602002602001018190525080806001019150506106f6565b50809250505090565b60608082516040519080825280602002602001820160405280156108705781602001602082028038833980820191505090505b50905060008090505b8351811015610a0d5761088a611962565b84828151811061089657fe5b602002602001015190506000816000015182602001518360400151846060015185608001516040516020016108cf9594939291906125be565b60405160208183030381529060405280519060200120905081600360008381526020019081526020016000206000820151816000015560208201518160010190805190602001906109219291906118a0565b50604082015181600201908051906020019061093e9291906118a0565b50606082015181600301908051906020019061095b9291906118a0565b5060808201518160040190805190602001906109789291906118a0565b5060a08201518160050190805190602001906109959291906118a0565b50905050600482608001516040516109ad9190612449565b9081526020016040518091039020819080600181540180825580915050906001820390600052602060002001600090919290919091505550808484815181106109f257fe5b60200260200101818152505050508080600101915050610879565b5080915050919050565b60006060806060806060610a29611962565b600360008981526020019081526020016000206040518060c001604052908160008201548152602001600182018054600181600116156101000203166002900480601f016020809104026020016040519081016040528092919081815260200182805460018160011615610100020316600290048015610aea5780601f10610abf57610100808354040283529160200191610aea565b820191906000526020600020905b815481529060010190602001808311610acd57829003601f168201915b50505050508152602001600282018054600181600116156101000203166002900480601f016020809104026020016040519081016040528092919081815260200182805460018160011615610100020316600290048015610b8c5780601f10610b6157610100808354040283529160200191610b8c565b820191906000526020600020905b815481529060010190602001808311610b6f57829003601f168201915b50505050508152602001600382018054600181600116156101000203166002900480601f016020809104026020016040519081016040528092919081815260200182805460018160011615610100020316600290048015610c2e5780601f10610c0357610100808354040283529160200191610c2e565b820191906000526020600020905b815481529060010190602001808311610c1157829003601f168201915b50505050508152602001600482018054600181600116156101000203166002900480601f016020809104026020016040519081016040528092919081815260200182805460018160011615610100020316600290048015610cd05780601f10610ca557610100808354040283529160200191610cd0565b820191906000526020600020905b815481529060010190602001808311610cb357829003601f168201915b50505050508152602001600582018054600181600116156101000203166002900480601f016020809104026020016040519081016040528092919081815260200182805460018160011615610100020316600290048015610d725780601f10610d4757610100808354040283529160200191610d72565b820191906000526020600020905b815481529060010190602001808311610d5557829003601f168201915b5050505050815250509050600081600001511415610df1576000809050604051806020016040528060008152506040518060200160405280600081525060405180602001604052806000815250604051806020016040528060008152506040518060200160405280600081525096509650965096509650965050610e2c565b806000015181602001518260400151836060015184608001518560a00151849450839350829250819150809050965096509650965096509650505b91939550919395565b60606000600160003373ffffffffffffffffffffffffffffffffffffffff1673ffffffffffffffffffffffffffffffffffffffff1681526020019081526020016000206000018054600181600116156101000203166002900490501415610ed1576040517f08c379a0000000000000000000000000000000000000000000000000000000008152600401610ec89061251a565b60405180910390fd5b6060600483604051610ee39190612460565b9081526020016040518091039020805480602002602001604051908101604052809291908181526020018280548015610f3b57602002820191906000526020600020905b815481526020019060010190808311610f27575b5050505050905060608151604051908082528060200260200182016040528015610f7f57816020015b610f6c611998565b815260200190600190039081610f645790505b50905060008090505b8251811015610fd157610fad838281518110610fa057fe5b602002602001015161153f565b828281518110610fb957fe5b60200260200101819052508080600101915050610f88565b508092505050919050565b6040518060600160405280848152602001838152602001828152506000856040516110079190612460565b908152602001604051809103902060008201518160000190805190602001906110319291906118a0565b50602082015181600101908051906020019061104e9291906118a0565b50604082015181600201908051906020019061106b9291906118a0565b5090505050505050565b600061107f6119ce565b60008560405161108f9190612460565b9081526020016040518091039020604051806060016040529081600082018054600181600116156101000203166002900480601f0160208091040260200160405190810160405280929190818152602001828054600181600116156101000203166002900480156111415780601f1061111657610100808354040283529160200191611141565b820191906000526020600020905b81548152906001019060200180831161112457829003601f168201915b50505050508152602001600182018054600181600116156101000203166002900480601f0160208091040260200160405190810160405280929190818152602001828054600181600116156101000203166002900480156111e35780601f106111b8576101008083540402835291602001916111e3565b820191906000526020600020905b8154815290600101906020018083116111c657829003601f168201915b50505050508152602001600282018054600181600116156101000203166002900480601f0160208091040260200160405190810160405280929190818152602001828054600181600116156101000203166002900480156112855780601f1061125a57610100808354040283529160200191611285565b820191906000526020600020905b81548152906001019060200180831161126857829003601f168201915b505050505081525050905083805190602001208160000151805190602001201480156112c257508280519060200120816040015180519060200120145b156112d15760019150506112d7565b60009150505b9392505050565b60606000600160003373ffffffffffffffffffffffffffffffffffffffff1673ffffffffffffffffffffffffffffffffffffffff168152602001908152602001600020600001805460018160011615610100020316600290049050141561137a576040517f08c379a00000000000000000000000000000000000000000000000000000000081526004016113719061251a565b60405180910390fd5b606060058360405161138c9190612460565b9081526020016040518091039020805480602002602001604051908101604052809291908181526020016000905b828210156115305783829060005260206000209060020201604051806040016040529081600082018054600181600116156101000203166002900480601f0160208091040260200160405190810160405280929190818152602001828054600181600116156101000203166002900480156114765780601f1061144b57610100808354040283529160200191611476565b820191906000526020600020905b81548152906001019060200180831161145957829003601f168201915b50505050508152602001600182018054600181600116156101000203166002900480601f0160208091040260200160405190810160405280929190818152602001828054600181600116156101000203166002900480156115185780601f106114ed57610100808354040283529160200191611518565b820191906000526020600020905b8154815290600101906020018083116114fb57829003601f168201915b505050505081525050815260200190600101906113ba565b50505050905080915050919050565b611547611962565b600360008381526020019081526020016000206040518060c001604052908160008201548152602001600182018054600181600116156101000203166002900480601f0160208091040260200160405190810160405280929190818152602001828054600181600116156101000203166002900480156116085780601f106115dd57610100808354040283529160200191611608565b820191906000526020600020905b8154815290600101906020018083116115eb57829003601f168201915b50505050508152602001600282018054600181600116156101000203166002900480601f0160208091040260200160405190810160405280929190818152602001828054600181600116156101000203166002900480156116aa5780601f1061167f576101008083540402835291602001916116aa565b820191906000526020600020905b81548152906001019060200180831161168d57829003601f168201915b50505050508152602001600382018054600181600116156101000203166002900480601f01602080910402602001604051908101604052809291908181526020018280546001816001161561010002031660029004801561174c5780601f106117215761010080835404028352916020019161174c565b820191906000526020600020905b81548152906001019060200180831161172f57829003601f168201915b50505050508152602001600482018054600181600116156101000203166002900480601f0160208091040260200160405190810160405280929190818152602001828054600181600116156101000203166002900480156117ee5780601f106117c3576101008083540402835291602001916117ee565b820191906000526020600020905b8154815290600101906020018083116117d157829003601f168201915b50505050508152602001600582018054600181600116156101000203166002900480601f0160208091040260200160405190810160405280929190818152602001828054600181600116156101000203166002900480156118905780601f1061186557610100808354040283529160200191611890565b820191906000526020600020905b81548152906001019060200180831161187357829003601f168201915b5050505050815250509050919050565b828054600181600116156101000203166002900490600052602060002090601f016020900481019282601f106118e157805160ff191683800117855561190f565b8280016001018555821561190f579182015b8281111561190e5782518255916020019190600101906118f3565b5b50905061191c91906119ef565b5090565b604051806040016040528060608152602001606081525090565b6040518060800160405280606081526020016060815260200160608152602001600081525090565b6040518060c001604052806000815260200160608152602001606081526020016060815260200160608152602001606081525090565b6040518060c001604052806000815260200160608152602001606081526020016060815260200160608152602001606081525090565b60405180606001604052806060815260200160608152602001606081525090565b611a1191905b80821115611a0d5760008160009055506001016119f5565b5090565b90565b600081359050611a23816128a6565b92915050565b600082601f830112611a3a57600080fd5b8135611a4d611a488261265a565b61262d565b9150818183526020840193506020810190508360005b83811015611a935781358601611a798882611b5a565b845260208401935060208301925050600181019050611a63565b5050505092915050565b600081359050611aac816128bd565b92915050565b600082601f830112611ac357600080fd5b8135611ad6611ad182612682565b61262d565b91508082526020830160208301858383011115611af257600080fd5b611afd838284612853565b50505092915050565b600082601f830112611b1757600080fd5b8135611b2a611b25826126ae565b61262d565b91508082526020830160208301858383011115611b4657600080fd5b611b51838284612853565b50505092915050565b600060c08284031215611b6c57600080fd5b611b7660c061262d565b90506000611b8684828501611c6e565b600083015250602082013567ffffffffffffffff811115611ba657600080fd5b611bb284828501611ab2565b602083015250604082013567ffffffffffffffff811115611bd257600080fd5b611bde84828501611ab2565b604083015250606082013567ffffffffffffffff811115611bfe57600080fd5b611c0a84828501611ab2565b606083015250608082013567ffffffffffffffff811115611c2a57600080fd5b611c3684828501611ab2565b60808301525060a082013567ffffffffffffffff811115611c5657600080fd5b611c6284828501611ab2565b60a08301525092915050565b600081359050611c7d816128d4565b92915050565b600080600060608486031215611c9857600080fd5b6000611ca686828701611a14565b935050602084013567ffffffffffffffff811115611cc357600080fd5b611ccf86828701611b06565b925050604084013567ffffffffffffffff811115611cec57600080fd5b611cf886828701611b06565b9150509250925092565b600080600080600060a08688031215611d1a57600080fd5b6000611d2888828901611a14565b955050602086013567ffffffffffffffff811115611d4557600080fd5b611d5188828901611b06565b945050604086013567ffffffffffffffff811115611d6e57600080fd5b611d7a88828901611b06565b935050606086013567ffffffffffffffff811115611d9757600080fd5b611da388828901611b06565b9250506080611db488828901611c6e565b9150509295509295909350565b600060208284031215611dd357600080fd5b600082013567ffffffffffffffff811115611ded57600080fd5b611df984828501611a29565b91505092915050565b600060208284031215611e1457600080fd5b6000611e2284828501611a9d565b91505092915050565b600060208284031215611e3d57600080fd5b600082013567ffffffffffffffff811115611e5757600080fd5b611e6384828501611b06565b91505092915050565b600080600060608486031215611e8157600080fd5b600084013567ffffffffffffffff811115611e9b57600080fd5b611ea786828701611b06565b935050602084013567ffffffffffffffff811115611ec457600080fd5b611ed086828701611b06565b925050604084013567ffffffffffffffff811115611eed57600080fd5b611ef986828701611b06565b9150509250925092565b60008060008060808587031215611f1957600080fd5b600085013567ffffffffffffffff811115611f3357600080fd5b611f3f87828801611b06565b945050602085013567ffffffffffffffff811115611f5c57600080fd5b611f6887828801611b06565b935050604085013567ffffffffffffffff811115611f8557600080fd5b611f9187828801611b06565b925050606085013567ffffffffffffffff811115611fae57600080fd5b611fba87828801611b06565b91505092959194509250565b6000611fd283836121e6565b60208301905092915050565b6000611fea838361225f565b905092915050565b6000611ffe8383612342565b905092915050565b600061201283836123e7565b905092915050565b60006120258261271a565b61202f8185612790565b935061203a836126da565b8060005b8381101561206b5781516120528882611fc6565b975061205d8361275c565b92505060018101905061203e565b5085935050505092915050565b600061208382612725565b61208d81856127a1565b93508360208202850161209f856126ea565b8060005b858110156120db57848403895281516120bc8582611fde565b94506120c783612769565b925060208a019950506001810190506120a3565b50829750879550505050505092915050565b60006120f882612730565b61210281856127b2565b935083602082028501612114856126fa565b8060005b8581101561215057848403895281516121318582611ff2565b945061213c83612776565b925060208a01995050600181019050612118565b50829750879550505050505092915050565b600061216d8261273b565b61217781856127c3565b9350836020820285016121898561270a565b8060005b858110156121c557848403895281516121a68582612006565b94506121b183612783565b925060208a0199505060018101905061218d565b50829750879550505050505092915050565b6121e081612813565b82525050565b6121ef8161281f565b82525050565b600061220082612751565b61220a81856127e5565b935061221a818560208601612862565b61222381612895565b840191505092915050565b600061223982612751565b61224381856127f6565b9350612253818560208601612862565b80840191505092915050565b600061226a82612746565b61227481856127d4565b9350612284818560208601612862565b61228d81612895565b840191505092915050565b60006122a382612746565b6122ad81856127e5565b93506122bd818560208601612862565b6122c681612895565b840191505092915050565b60006122dc82612746565b6122e681856127f6565b93506122f6818560208601612862565b80840191505092915050565b600061230f6015836127e5565b91507f596f7520617265206e6f74206120436f6d70616e7900000000000000000000006000830152602082019050919050565b600060c08301600083015161235a600086018261242b565b5060208301518482036020860152612372828261225f565b9150506040830151848203604086015261238c828261225f565b915050606083015184820360608601526123a6828261225f565b915050608083015184820360808601526123c0828261225f565b91505060a083015184820360a08601526123da828261225f565b9150508091505092915050565b60006040830160008301518482036000860152612404828261225f565b9150506020830151848203602086015261241e828261225f565b9150508091505092915050565b61243481612849565b82525050565b61244381612849565b82525050565b600061245582846122d1565b915081905092915050565b600061246c828461222e565b915081905092915050565b60006020820190508181036000830152612491818461201a565b905092915050565b600060208201905081810360008301526124b38184612078565b905092915050565b600060208201905081810360008301526124d581846120ed565b905092915050565b600060208201905081810360008301526124f78184612162565b905092915050565b600060208201905061251460008301846121d7565b92915050565b6000602082019050818103600083015261253381612302565b9050919050565b600060c08201905061254f600083018961243a565b818103602083015261256181886121f5565b9050818103604083015261257581876121f5565b9050818103606083015261258981866121f5565b9050818103608083015261259d81856121f5565b905081810360a08301526125b181846121f5565b9050979650505050505050565b600060a0820190506125d3600083018861243a565b81810360208301526125e58187612298565b905081810360408301526125f98186612298565b9050818103606083015261260d8185612298565b905081810360808301526126218184612298565b90509695505050505050565b6000604051905081810181811067ffffffffffffffff8211171561265057600080fd5b8060405250919050565b600067ffffffffffffffff82111561267157600080fd5b602082029050602081019050919050565b600067ffffffffffffffff82111561269957600080fd5b601f19601f8301169050602081019050919050565b600067ffffffffffffffff8211156126c557600080fd5b601f19601f8301169050602081019050919050565b6000819050602082019050919050565b6000819050602082019050919050565b6000819050602082019050919050565b6000819050602082019050919050565b600081519050919050565b600081519050919050565b600081519050919050565b600081519050919050565b600081519050919050565b600081519050919050565b6000602082019050919050565b6000602082019050919050565b6000602082019050919050565b6000602082019050919050565b600082825260208201905092915050565b600082825260208201905092915050565b600082825260208201905092915050565b600082825260208201905092915050565b600082825260208201905092915050565b600082825260208201905092915050565b600081905092915050565b600061280c82612829565b9050919050565b60008115159050919050565b6000819050919050565b600073ffffffffffffffffffffffffffffffffffffffff82169050919050565b6000819050919050565b82818337600083830152505050565b60005b83811015612880578082015181840152602081019050612865565b8381111561288f576000848401525b50505050565b6000601f19601f8301169050919050565b6128af81612801565b81146128ba57600080fd5b50565b6128c68161281f565b81146128d157600080fd5b50565b6128dd81612849565b81146128e857600080fd5b5056fea365627a7a7231582093eb39cc5cc4a3f4e0e1eae2b666d58d8dcdd9c0c0e79547b1ed316f4c1611786c6578706572696d656e74616cf564736f6c63430005100040",
  "source": "// SPDX-License-Identifier: MIT\r\npragma experimental ABIEncoderV2;\r\npragma solidity >=0.4.17<0.9.0;\r\n\r\ncontract System {\r\n\r\n    // Company Information (Certificate Number for Identity Management)\r\n    struct Company {\r\n        string name;\r\n        string email;\r\n        string password;\r\n        uint256 certificate_num;\r\n    }\r\n\r\n        struct User {\r\n        string name;\r\n        string email;\r\n        string password;\r\n    }\r\n    // Product Information (Image Link not the Actual Image Bytes)\r\n    // Company Name for Filteration\r\n    struct Product {\r\n        uint id;\r\n        string name;\r\n        string model;\r\n        string description;\r\n        string companyName;\r\n        string imageLink;\r\n    }\r\n\r\n    struct Report {\r\n        // string imageLink;\r\n        string Location;\r\n        string description;\r\n    }\r\n\r\n    //Product public prod;\r\n\r\n    mapping(string => User) users;\r\n    mapping(address => Company) companies;\r\n    address[] private companyAddresses;\r\n    \r\n    mapping(bytes32 => Product) private products;\r\n    mapping(string => bytes32[]) private companyProducts;\r\n    mapping(string => Report[]) private companyReports;\r\n\r\n\r\n\r\n\r\n\r\n    function register_User(string memory _useraddress,string memory _name, string memory _email, string memory _password) public {\r\n        users[_useraddress] = User(_name,_email,_password);\r\n    }\r\n\r\n    function register_Company(address _compaddress,string memory _name, string memory _email, string memory _password,uint256 _cert_num) public {\r\n        companies[_compaddress] = Company(_name,_email,_password,_cert_num);\r\n        companyAddresses.push(_compaddress);\r\n    }\r\n\r\n    function login_user (string memory user_add , string memory _name , string memory _password) public view returns (bool found)\r\n    {\r\n            User memory user = users[user_add];\r\n            \r\n            // str compare keccak256(bytes(a)) == keccak256(bytes(b));\r\n            if(keccak256(bytes(user.name)) == keccak256(bytes(_name)) && keccak256(bytes(user.password)) == keccak256(bytes(_password)))\r\n                return true;\r\n            else\r\n                return false;\r\n    }\r\n\r\n    function login_company(address company_add, string memory _name, string memory _password) public view returns (bool found) {\r\n        Company memory company = companies[company_add];\r\n        // Compare company name and password using keccak256\r\n        if (keccak256(bytes(company.name)) == keccak256(bytes(_name)) && keccak256(bytes(company.password)) == keccak256(bytes(_password)))\r\n            return true;\r\n        else\r\n            return false;\r\n    }\r\n\r\n\r\n    function upload_Products(Product[] memory _products) public returns (bytes32[] memory hashedArray) {\r\n        bytes32[] memory productHashes = new bytes32[](_products.length);\r\n        \r\n        for (uint256 i = 0; i < _products.length; i++) {\r\n            Product memory p = _products[i];\r\n            \r\n            // Encoding Using the Four Attributes (Image Link Not Included)\r\n            bytes32 p_hashed = keccak256(abi.encode(p.id, p.name, p.model, p.description, p.companyName));\r\n            products[p_hashed] = p;\r\n            \r\n            // Add the product ID to the array of product IDs for the respective company\r\n            companyProducts[p.companyName].push(p_hashed);\r\n            \r\n            productHashes[i] = p_hashed;\r\n        }\r\n    \r\n    return productHashes;\r\n}\r\n    \r\n        // Get a Product by its Hash\r\n    function get_product(bytes32 product_add) internal view returns (Product memory Prod) {\r\n        return products[product_add];\r\n    }\r\n\r\n    function retrieve_company_products(string memory Company_name) public onlyCompany() view returns (Product[] memory products_array) {\r\n        bytes32[] memory products_hashes = companyProducts[Company_name];\r\n        Product[] memory products_of_company = new Product[](products_hashes.length);\r\n        for (uint256 index = 0; index < products_hashes.length; index++) {\r\n            products_of_company[index] = get_product(products_hashes[index]);\r\n        }\r\n\r\n        return products_of_company;\r\n    }\r\n\r\n    // Verify a product and return its attributes or null values if not found\r\n    function verify_product(bytes32 product_add) external view returns (uint, string memory, string memory, string memory, string memory, string memory) {\r\n        // Get the product using the Company_Con contract's get_product function\r\n        System.Product memory product = products[product_add];\r\n\r\n        // Check if the product exists\r\n        if (product.id == 0) {\r\n            // Return null values if the product does not exist\r\n            return (0, \"\", \"\", \"\", \"\", \"\");\r\n        }\r\n        else {\r\n            // Return the product attributes if the product exists\r\n            return (product.id, product.name, product.model, product.description, product.companyName, product.imageLink);\r\n        }\r\n    }\r\n\r\n\r\n    function send_report(string memory location, string memory  description,string memory companyname) public\r\n    {\r\n        Report memory report = Report(location,description);\r\n        companyReports[companyname].push(report);\r\n    }\r\n\r\n    function get_companies_names() public view returns(string[] memory)\r\n    {\r\n        uint256 length = companyAddresses.length;\r\n        string[] memory allCompanies = new string[](length);\r\n    \r\n        for (uint256 i = 0; i < length; i++) {\r\n            allCompanies[i] = companies[companyAddresses[i]].name;\r\n        }\r\n\r\n        return allCompanies;\r\n    }\r\n\r\n    function get_function_report(string memory company_name) public onlyCompany() view returns(Report[] memory) {\r\n        Report[] memory reports_of_company = companyReports[company_name];\r\n\r\n        return reports_of_company;\r\n    }\r\n\r\n\r\n    //----------------modifers------------\r\n\r\n    modifier onlyCompany() {\r\n        require(bytes(companies[msg.sender].name).length != 0, \"You are not a Company\");\r\n        _;\r\n    }\r\n\r\n    \r\n}\r\n\r\n",
  "sourcePath": "C:\\Users\\Philip\\Desktop\\Fake-Products-Detection\\contracts\\System.sol",
  "compiler": {
    "name": "solc",
    "version": "0.5.16+commit.9c3226ce.Emscripten.clang"
  },
  "schemaVersion": "3.4.13",
  "updatedAt": "2023-07-03T13:26:54.080Z",
  "networkType": "ethereum",
  "devdoc": {
    "methods": {}
  },
  "userdoc": {
    "methods": {}
  }
}