{
  "contractName": "System",
  "abi": [
    {
      "constant": false,
      "inputs": [
        {
          "internalType": "string",
          "name": "_useraddress",
          "type": "string"
        },
        {
          "internalType": "string",
          "name": "_name",
          "type": "string"
        },
        {
          "internalType": "string",
          "name": "_email",
          "type": "string"
        },
        {
          "internalType": "string",
          "name": "_password",
          "type": "string"
        }
      ],
      "name": "register_User",
      "outputs": [],
      "payable": false,
      "stateMutability": "nonpayable",
      "type": "function"
    },
    {
      "constant": false,
      "inputs": [
        {
          "internalType": "address",
          "name": "_compaddress",
          "type": "address"
        },
        {
          "internalType": "string",
          "name": "_name",
          "type": "string"
        },
        {
          "internalType": "string",
          "name": "_email",
          "type": "string"
        },
        {
          "internalType": "string",
          "name": "_password",
          "type": "string"
        },
        {
          "internalType": "uint256",
          "name": "_cert_num",
          "type": "uint256"
        }
      ],
      "name": "register_Company",
      "outputs": [],
      "payable": false,
      "stateMutability": "nonpayable",
      "type": "function"
    },
    {
      "constant": true,
      "inputs": [
        {
          "internalType": "string",
          "name": "user_add",
          "type": "string"
        },
        {
          "internalType": "string",
          "name": "_name",
          "type": "string"
        },
        {
          "internalType": "string",
          "name": "_password",
          "type": "string"
        }
      ],
      "name": "login_user",
      "outputs": [
        {
          "internalType": "bool",
          "name": "found",
          "type": "bool"
        }
      ],
      "payable": false,
      "stateMutability": "view",
      "type": "function"
    },
    {
      "constant": true,
      "inputs": [
        {
          "internalType": "address",
          "name": "company_add",
          "type": "address"
        },
        {
          "internalType": "string",
          "name": "_name",
          "type": "string"
        },
        {
          "internalType": "string",
          "name": "_password",
          "type": "string"
        }
      ],
      "name": "login_company",
      "outputs": [
        {
          "internalType": "bool",
          "name": "found",
          "type": "bool"
        }
      ],
      "payable": false,
      "stateMutability": "view",
      "type": "function"
    },
    {
      "constant": false,
      "inputs": [
        {
          "components": [
            {
              "internalType": "uint256",
              "name": "id",
              "type": "uint256"
            },
            {
              "internalType": "string",
              "name": "name",
              "type": "string"
            },
            {
              "internalType": "string",
              "name": "model",
              "type": "string"
            },
            {
              "internalType": "string",
              "name": "description",
              "type": "string"
            },
            {
              "internalType": "string",
              "name": "companyName",
              "type": "string"
            },
            {
              "internalType": "string",
              "name": "imageLink",
              "type": "string"
            }
          ],
          "internalType": "struct System.Product[]",
          "name": "_products",
          "type": "tuple[]"
        }
      ],
      "name": "upload_Products",
      "outputs": [
        {
          "internalType": "bytes32[]",
          "name": "hashedArray",
          "type": "bytes32[]"
        }
      ],
      "payable": false,
      "stateMutability": "nonpayable",
      "type": "function"
    },
    {
      "constant": true,
      "inputs": [
        {
          "internalType": "string",
          "name": "Company_name",
          "type": "string"
        }
      ],
      "name": "retrieve_company_products",
      "outputs": [
        {
          "components": [
            {
              "internalType": "uint256",
              "name": "id",
              "type": "uint256"
            },
            {
              "internalType": "string",
              "name": "name",
              "type": "string"
            },
            {
              "internalType": "string",
              "name": "model",
              "type": "string"
            },
            {
              "internalType": "string",
              "name": "description",
              "type": "string"
            },
            {
              "internalType": "string",
              "name": "companyName",
              "type": "string"
            },
            {
              "internalType": "string",
              "name": "imageLink",
              "type": "string"
            }
          ],
          "internalType": "struct System.Product[]",
          "name": "products_array",
          "type": "tuple[]"
        }
      ],
      "payable": false,
      "stateMutability": "view",
      "type": "function"
    },
    {
      "constant": true,
      "inputs": [
        {
          "internalType": "bytes32",
          "name": "product_add",
          "type": "bytes32"
        }
      ],
      "name": "verify_product",
      "outputs": [
        {
          "internalType": "uint256",
          "name": "",
          "type": "uint256"
        },
        {
          "internalType": "string",
          "name": "",
          "type": "string"
        },
        {
          "internalType": "string",
          "name": "",
          "type": "string"
        },
        {
          "internalType": "string",
          "name": "",
          "type": "string"
        },
        {
          "internalType": "string",
          "name": "",
          "type": "string"
        },
        {
          "internalType": "string",
          "name": "",
          "type": "string"
        }
      ],
      "payable": false,
      "stateMutability": "view",
      "type": "function"
    },
    {
      "constant": false,
      "inputs": [
        {
          "internalType": "string",
          "name": "location",
          "type": "string"
        },
        {
          "internalType": "string",
          "name": "description",
          "type": "string"
        },
        {
          "internalType": "string",
          "name": "companyname",
          "type": "string"
        }
      ],
      "name": "send_report",
      "outputs": [],
      "payable": false,
      "stateMutability": "nonpayable",
      "type": "function"
    },
    {
      "constant": true,
      "inputs": [],
      "name": "get_companies_names",
      "outputs": [
        {
          "internalType": "string[]",
          "name": "",
          "type": "string[]"
        }
      ],
      "payable": false,
      "stateMutability": "view",
      "type": "function"
    },
    {
      "constant": true,
      "inputs": [
        {
          "internalType": "string",
          "name": "company_name",
          "type": "string"
        }
      ],
      "name": "get_function_report",
      "outputs": [
        {
          "components": [
            {
              "internalType": "string",
              "name": "Location",
              "type": "string"
            },
            {
              "internalType": "string",
              "name": "description",
              "type": "string"
            }
          ],
          "internalType": "struct System.Report[]",
          "name": "",
          "type": "tuple[]"
        }
      ],
      "payable": false,
      "stateMutability": "view",
      "type": "function"
    },
    {
      "constant": false,
      "inputs": [
        {
          "internalType": "string",
          "name": "companyname",
          "type": "string"
        },
        {
          "internalType": "uint256",
          "name": "index",
          "type": "uint256"
        }
      ],
      "name": "deleteReport",
      "outputs": [],
      "payable": false,
      "stateMutability": "nonpayable",
      "type": "function"
    },
    {
      "constant": false,
      "inputs": [
        {
          "internalType": "string",
          "name": "companyname",
          "type": "string"
        }
      ],
      "name": "delete_allReport",
      "outputs": [],
      "payable": false,
      "stateMutability": "nonpayable",
      "type": "function"
    },
    {
      "constant": false,
      "inputs": [
        {
          "internalType": "string",
          "name": "companyname",
          "type": "string"
        },
        {
          "internalType": "string",
          "name": "model",
          "type": "string"
        }
      ],
      "name": "deleteProductByModel",
      "outputs": [],
      "payable": false,
      "stateMutability": "nonpayable",
      "type": "function"
    }
  ],
  "bytecode": "0x608060405234801561001057600080fd5b506130d5806100206000396000f3fe608060405234801561001057600080fd5b50600436106100cf5760003560e01c8063a6524d761161008c578063c25d2c9311610066578063c25d2c9314610213578063ce2aae3414610243578063d23c91f51461025f578063f08726081461028f576100cf565b8063a6524d7614610192578063a91dd135146101ae578063af87729e146101de576100cf565b8063133af958146100d45780631d3be9bf146100f05780634b52084d1461010c57806374139a16146101285780638ace7b9b14610144578063950081a814610174575b600080fd5b6100ee60048036036100e9919081019061232f565b6102bf565b005b61010a60048036036101059190810190612458565b6103f0565b005b61012660048036036101219190810190612499565b61041d565b005b610142600480360361013d9190810190612505565b6107a2565b005b61015e600480360361015991908101906122b0565b61084e565b60405161016b9190612c91565b60405180910390f35b61017c610ae2565b6040516101899190612c2b565b60405180910390f35b6101ac60048036036101a7919081019061265f565b610c74565b005b6101c860048036036101c391908101906123ee565b610e20565b6040516101d59190612c09565b60405180910390f35b6101f860048036036101f3919081019061242f565b610ffa565b60405161020a96959493929190612ccc565b60405180910390f35b61022d60048036036102289190810190612458565b611418565b60405161023a9190612c4d565b60405180910390f35b61025d6004803603610258919081019061259c565b611524565b005b61027960048036036102749190810190612505565b6115bd565b6040516102869190612c91565b60405180910390f35b6102a960048036036102a49190810190612458565b611826565b6040516102b69190612c6f565b60405180910390f35b604051806080016040528085815260200184815260200183815260200182815250600160008773ffffffffffffffffffffffffffffffffffffffff1673ffffffffffffffffffffffffffffffffffffffff168152602001908152602001600020600082015181600001908051906020019061033b929190611d9b565b506020820151816001019080519060200190610358929190611d9b565b506040820151816002019080519060200190610375929190611d9b565b506060820151816003015590505060028590806001815401808255809150509060018203906000526020600020016000909192909190916101000a81548173ffffffffffffffffffffffffffffffffffffffff021916908373ffffffffffffffffffffffffffffffffffffffff160217905550505050505050565b6005816040516104009190612bdb565b9081526020016040518091039020600061041a9190611e1b565b50565b606060048360405161042f9190612bdb565b90815260200160405180910390208054905060405190808252806020026020018201604052801561046f5781602001602082028038833980820191505090505b509050600080905060008090505b60048560405161048d9190612bdb565b9081526020016040518091039020805490508110156105775760006004866040516104b89190612bdb565b908152602001604051809103902082815481106104d157fe5b90600052602060002001549050846040516020016104ef9190612bdb565b604051602081830303815290604052805190602001206003600083815260200190815260200160002060020160405160200161052b9190612bf2565b604051602081830303815290604052805190602001201415610569578084848151811061055457fe5b60200260200101818152505082806001019350505b50808060010191505061047d565b5060008090505b8181101561079b576003600084838151811061059657fe5b602002602001015181526020019081526020016000206000808201600090556001820160006105c59190611e3f565b6002820160006105d59190611e3f565b6003820160006105e59190611e3f565b6004820160006105f59190611e3f565b6005820160006106059190611e3f565b5050600061069260048760405161061c9190612bdb565b908152602001604051809103902080548060200260200160405190810160405280929190818152602001828054801561067457602002820191906000526020600020905b815481526020019060010190808311610660575b505050505085848151811061068557fe5b60200260200101516119ec565b905060016004876040516106a69190612bdb565b90815260200160405180910390208054905003811015610750576004866040516106d09190612bdb565b908152602001604051809103902060016004886040516106f09190612bdb565b908152602001604051809103902080549050038154811061070d57fe5b90600052602060002001546004876040516107289190612bdb565b9081526020016040518091039020828154811061074157fe5b90600052602060002001819055505b6004866040516107609190612bdb565b908152602001604051809103902080548061077757fe5b6001900381819060005260206000200160009055905550808060010191505061057e565b5050505050565b6107aa611e87565b60405180604001604052808581526020018481525090506005826040516107d19190612bdb565b908152602001604051809103902081908060018154018082558091505090600182039060005260206000209060020201600090919290919091506000820151816000019080519060200190610827929190611d9b565b506020820151816001019080519060200190610844929190611d9b565b5050505050505050565b6000610858611ea1565b600160008673ffffffffffffffffffffffffffffffffffffffff1673ffffffffffffffffffffffffffffffffffffffff168152602001908152602001600020604051806080016040529081600082018054600181600116156101000203166002900480601f01602080910402602001604051908101604052809291908181526020018280546001816001161561010002031660029004801561093b5780601f106109105761010080835404028352916020019161093b565b820191906000526020600020905b81548152906001019060200180831161091e57829003601f168201915b50505050508152602001600182018054600181600116156101000203166002900480601f0160208091040260200160405190810160405280929190818152602001828054600181600116156101000203166002900480156109dd5780601f106109b2576101008083540402835291602001916109dd565b820191906000526020600020905b8154815290600101906020018083116109c057829003601f168201915b50505050508152602001600282018054600181600116156101000203166002900480601f016020809104026020016040519081016040528092919081815260200182805460018160011615610100020316600290048015610a7f5780601f10610a5457610100808354040283529160200191610a7f565b820191906000526020600020905b815481529060010190602001808311610a6257829003601f168201915b5050505050815260200160038201548152505090508380519060200120816000015180519060200120148015610ac657508280519060200120816040015180519060200120145b15610ad5576001915050610adb565b60009150505b9392505050565b606060006002805490509050606081604051908082528060200260200182016040528015610b2457816020015b6060815260200190600190039081610b0f5790505b50905060008090505b82811015610c6b576001600060028381548110610b4657fe5b9060005260206000200160009054906101000a900473ffffffffffffffffffffffffffffffffffffffff1673ffffffffffffffffffffffffffffffffffffffff1673ffffffffffffffffffffffffffffffffffffffff1681526020019081526020016000206000018054600181600116156101000203166002900480601f016020809104026020016040519081016040528092919081815260200182805460018160011615610100020316600290048015610c425780601f10610c1757610100808354040283529160200191610c42565b820191906000526020600020905b815481529060010190602001808311610c2557829003601f168201915b5050505050828281518110610c5357fe5b60200260200101819052508080600101915050610b2d565b50809250505090565b600582604051610c849190612bdb565b9081526020016040518091039020805490508110610cd7576040517f08c379a0000000000000000000000000000000000000000000000000000000008152600401610cce90612cac565b60405180910390fd5b600582604051610ce79190612bdb565b90815260200160405180910390206001600584604051610d079190612bdb565b9081526020016040518091039020805490500381548110610d2457fe5b9060005260206000209060020201600583604051610d429190612bdb565b90815260200160405180910390208281548110610d5b57fe5b906000526020600020906002020160008201816000019080546001816001161561010002031660029004610d90929190611ec9565b5060018201816001019080546001816001161561010002031660029004610db8929190611ec9565b50905050600582604051610dcc9190612bdb565b9081526020016040518091039020805480610de357fe5b600190038181906000526020600020906002020160008082016000610e089190611e3f565b600182016000610e189190611e3f565b505090555050565b6060808251604051908082528060200260200182016040528015610e535781602001602082028038833980820191505090505b50905060008090505b8351811015610ff057610e6d611f50565b848281518110610e7957fe5b60200260200101519050600081600001518260200151836040015184606001518560800151604051602001610eb2959493929190612d50565b6040516020818303038152906040528051906020012090508160036000838152602001908152602001600020600082015181600001556020820151816001019080519060200190610f04929190611d9b565b506040820151816002019080519060200190610f21929190611d9b565b506060820151816003019080519060200190610f3e929190611d9b565b506080820151816004019080519060200190610f5b929190611d9b565b5060a0820151816005019080519060200190610f78929190611d9b565b5090505060048260800151604051610f909190612bc4565b908152602001604051809103902081908060018154018082558091505090600182039060005260206000200160009091929091909150555080848481518110610fd557fe5b60200260200101818152505050508080600101915050610e5c565b5080915050919050565b6000606080606080606061100c611f50565b600360008981526020019081526020016000206040518060c001604052908160008201548152602001600182018054600181600116156101000203166002900480601f0160208091040260200160405190810160405280929190818152602001828054600181600116156101000203166002900480156110cd5780601f106110a2576101008083540402835291602001916110cd565b820191906000526020600020905b8154815290600101906020018083116110b057829003601f168201915b50505050508152602001600282018054600181600116156101000203166002900480601f01602080910402602001604051908101604052809291908181526020018280546001816001161561010002031660029004801561116f5780601f106111445761010080835404028352916020019161116f565b820191906000526020600020905b81548152906001019060200180831161115257829003601f168201915b50505050508152602001600382018054600181600116156101000203166002900480601f0160208091040260200160405190810160405280929190818152602001828054600181600116156101000203166002900480156112115780601f106111e657610100808354040283529160200191611211565b820191906000526020600020905b8154815290600101906020018083116111f457829003601f168201915b50505050508152602001600482018054600181600116156101000203166002900480601f0160208091040260200160405190810160405280929190818152602001828054600181600116156101000203166002900480156112b35780601f10611288576101008083540402835291602001916112b3565b820191906000526020600020905b81548152906001019060200180831161129657829003601f168201915b50505050508152602001600582018054600181600116156101000203166002900480601f0160208091040260200160405190810160405280929190818152602001828054600181600116156101000203166002900480156113555780601f1061132a57610100808354040283529160200191611355565b820191906000526020600020905b81548152906001019060200180831161133857829003601f168201915b50505050508152505090506000816000015114156113d457600080905060405180602001604052806000815250604051806020016040528060008152506040518060200160405280600081525060405180602001604052806000815250604051806020016040528060008152509650965096509650965096505061140f565b806000015181602001518260400151836060015184608001518560a00151849450839350829250819150809050965096509650965096509650505b91939550919395565b60608060048360405161142b9190612bdb565b908152602001604051809103902080548060200260200160405190810160405280929190818152602001828054801561148357602002820191906000526020600020905b81548152602001906001019080831161146f575b50505050509050606081516040519080825280602002602001820160405280156114c757816020015b6114b4611f86565b8152602001906001900390816114ac5790505b50905060008090505b8251811015611519576114f58382815181106114e857fe5b6020026020010151611a3a565b82828151811061150157fe5b602002602001018190525080806001019150506114d0565b508092505050919050565b60405180606001604052808481526020018381526020018281525060008560405161154f9190612bdb565b90815260200160405180910390206000820151816000019080519060200190611579929190611d9b565b506020820151816001019080519060200190611596929190611d9b565b5060408201518160020190805190602001906115b3929190611d9b565b5090505050505050565b60006115c7611fbc565b6000856040516115d79190612bdb565b9081526020016040518091039020604051806060016040529081600082018054600181600116156101000203166002900480601f0160208091040260200160405190810160405280929190818152602001828054600181600116156101000203166002900480156116895780601f1061165e57610100808354040283529160200191611689565b820191906000526020600020905b81548152906001019060200180831161166c57829003601f168201915b50505050508152602001600182018054600181600116156101000203166002900480601f01602080910402602001604051908101604052809291908181526020018280546001816001161561010002031660029004801561172b5780601f106117005761010080835404028352916020019161172b565b820191906000526020600020905b81548152906001019060200180831161170e57829003601f168201915b50505050508152602001600282018054600181600116156101000203166002900480601f0160208091040260200160405190810160405280929190818152602001828054600181600116156101000203166002900480156117cd5780601f106117a2576101008083540402835291602001916117cd565b820191906000526020600020905b8154815290600101906020018083116117b057829003601f168201915b5050505050815250509050838051906020012081600001518051906020012014801561180a57508280519060200120816040015180519060200120145b1561181957600191505061181f565b60009150505b9392505050565b6060806005836040516118399190612bdb565b9081526020016040518091039020805480602002602001604051908101604052809291908181526020016000905b828210156119dd5783829060005260206000209060020201604051806040016040529081600082018054600181600116156101000203166002900480601f0160208091040260200160405190810160405280929190818152602001828054600181600116156101000203166002900480156119235780601f106118f857610100808354040283529160200191611923565b820191906000526020600020905b81548152906001019060200180831161190657829003601f168201915b50505050508152602001600182018054600181600116156101000203166002900480601f0160208091040260200160405190810160405280929190818152602001828054600181600116156101000203166002900480156119c55780601f1061199a576101008083540402835291602001916119c5565b820191906000526020600020905b8154815290600101906020018083116119a857829003601f168201915b50505050508152505081526020019060010190611867565b50505050905080915050919050565b600080600090505b8351811015611a2e5782848281518110611a0a57fe5b60200260200101511415611a215780915050611a34565b80806001019150506119f4565b50825190505b92915050565b611a42611f50565b600360008381526020019081526020016000206040518060c001604052908160008201548152602001600182018054600181600116156101000203166002900480601f016020809104026020016040519081016040528092919081815260200182805460018160011615610100020316600290048015611b035780601f10611ad857610100808354040283529160200191611b03565b820191906000526020600020905b815481529060010190602001808311611ae657829003601f168201915b50505050508152602001600282018054600181600116156101000203166002900480601f016020809104026020016040519081016040528092919081815260200182805460018160011615610100020316600290048015611ba55780601f10611b7a57610100808354040283529160200191611ba5565b820191906000526020600020905b815481529060010190602001808311611b8857829003601f168201915b50505050508152602001600382018054600181600116156101000203166002900480601f016020809104026020016040519081016040528092919081815260200182805460018160011615610100020316600290048015611c475780601f10611c1c57610100808354040283529160200191611c47565b820191906000526020600020905b815481529060010190602001808311611c2a57829003601f168201915b50505050508152602001600482018054600181600116156101000203166002900480601f016020809104026020016040519081016040528092919081815260200182805460018160011615610100020316600290048015611ce95780601f10611cbe57610100808354040283529160200191611ce9565b820191906000526020600020905b815481529060010190602001808311611ccc57829003601f168201915b50505050508152602001600582018054600181600116156101000203166002900480601f016020809104026020016040519081016040528092919081815260200182805460018160011615610100020316600290048015611d8b5780601f10611d6057610100808354040283529160200191611d8b565b820191906000526020600020905b815481529060010190602001808311611d6e57829003601f168201915b5050505050815250509050919050565b828054600181600116156101000203166002900490600052602060002090601f016020900481019282601f10611ddc57805160ff1916838001178555611e0a565b82800160010185558215611e0a579182015b82811115611e09578251825591602001919060010190611dee565b5b509050611e179190611fdd565b5090565b5080546000825560020290600052602060002090810190611e3c9190612002565b50565b50805460018160011615610100020316600290046000825580601f10611e655750611e84565b601f016020900490600052602060002090810190611e839190611fdd565b5b50565b604051806040016040528060608152602001606081525090565b6040518060800160405280606081526020016060815260200160608152602001600081525090565b828054600181600116156101000203166002900490600052602060002090601f016020900481019282601f10611f025780548555611f3f565b82800160010185558215611f3f57600052602060002091601f016020900482015b82811115611f3e578254825591600101919060010190611f23565b5b509050611f4c9190611fdd565b5090565b6040518060c001604052806000815260200160608152602001606081526020016060815260200160608152602001606081525090565b6040518060c001604052806000815260200160608152602001606081526020016060815260200160608152602001606081525090565b60405180606001604052806060815260200160608152602001606081525090565b611fff91905b80821115611ffb576000816000905550600101611fe3565b5090565b90565b61203e91905b8082111561203a57600080820160006120219190611e3f565b6001820160006120319190611e3f565b50600201612008565b5090565b90565b6000813590506120508161304d565b92915050565b600082601f83011261206757600080fd5b813561207a61207582612dec565b612dbf565b9150818183526020840193506020810190508360005b838110156120c057813586016120a68882612187565b845260208401935060208301925050600181019050612090565b5050505092915050565b6000813590506120d981613064565b92915050565b600082601f8301126120f057600080fd5b81356121036120fe82612e14565b612dbf565b9150808252602083016020830185838301111561211f57600080fd5b61212a838284612ffa565b50505092915050565b600082601f83011261214457600080fd5b813561215761215282612e40565b612dbf565b9150808252602083016020830185838301111561217357600080fd5b61217e838284612ffa565b50505092915050565b600060c0828403121561219957600080fd5b6121a360c0612dbf565b905060006121b38482850161229b565b600083015250602082013567ffffffffffffffff8111156121d357600080fd5b6121df848285016120df565b602083015250604082013567ffffffffffffffff8111156121ff57600080fd5b61220b848285016120df565b604083015250606082013567ffffffffffffffff81111561222b57600080fd5b612237848285016120df565b606083015250608082013567ffffffffffffffff81111561225757600080fd5b612263848285016120df565b60808301525060a082013567ffffffffffffffff81111561228357600080fd5b61228f848285016120df565b60a08301525092915050565b6000813590506122aa8161307b565b92915050565b6000806000606084860312156122c557600080fd5b60006122d386828701612041565b935050602084013567ffffffffffffffff8111156122f057600080fd5b6122fc86828701612133565b925050604084013567ffffffffffffffff81111561231957600080fd5b61232586828701612133565b9150509250925092565b600080600080600060a0868803121561234757600080fd5b600061235588828901612041565b955050602086013567ffffffffffffffff81111561237257600080fd5b61237e88828901612133565b945050604086013567ffffffffffffffff81111561239b57600080fd5b6123a788828901612133565b935050606086013567ffffffffffffffff8111156123c457600080fd5b6123d088828901612133565b92505060806123e18882890161229b565b9150509295509295909350565b60006020828403121561240057600080fd5b600082013567ffffffffffffffff81111561241a57600080fd5b61242684828501612056565b91505092915050565b60006020828403121561244157600080fd5b600061244f848285016120ca565b91505092915050565b60006020828403121561246a57600080fd5b600082013567ffffffffffffffff81111561248457600080fd5b61249084828501612133565b91505092915050565b600080604083850312156124ac57600080fd5b600083013567ffffffffffffffff8111156124c657600080fd5b6124d285828601612133565b925050602083013567ffffffffffffffff8111156124ef57600080fd5b6124fb85828601612133565b9150509250929050565b60008060006060848603121561251a57600080fd5b600084013567ffffffffffffffff81111561253457600080fd5b61254086828701612133565b935050602084013567ffffffffffffffff81111561255d57600080fd5b61256986828701612133565b925050604084013567ffffffffffffffff81111561258657600080fd5b61259286828701612133565b9150509250925092565b600080600080608085870312156125b257600080fd5b600085013567ffffffffffffffff8111156125cc57600080fd5b6125d887828801612133565b945050602085013567ffffffffffffffff8111156125f557600080fd5b61260187828801612133565b935050604085013567ffffffffffffffff81111561261e57600080fd5b61262a87828801612133565b925050606085013567ffffffffffffffff81111561264757600080fd5b61265387828801612133565b91505092959194509250565b6000806040838503121561267257600080fd5b600083013567ffffffffffffffff81111561268c57600080fd5b61269885828601612133565b92505060206126a98582860161229b565b9150509250929050565b60006126bf83836128d3565b60208301905092915050565b60006126d7838361294c565b905092915050565b60006126eb8383612abd565b905092915050565b60006126ff8383612b62565b905092915050565b600061271282612ec1565b61271c8185612f37565b935061272783612e6c565b8060005b8381101561275857815161273f88826126b3565b975061274a83612f03565b92505060018101905061272b565b5085935050505092915050565b600061277082612ecc565b61277a8185612f48565b93508360208202850161278c85612e7c565b8060005b858110156127c857848403895281516127a985826126cb565b94506127b483612f10565b925060208a01995050600181019050612790565b50829750879550505050505092915050565b60006127e582612ed7565b6127ef8185612f59565b93508360208202850161280185612e8c565b8060005b8581101561283d578484038952815161281e85826126df565b945061282983612f1d565b925060208a01995050600181019050612805565b50829750879550505050505092915050565b600061285a82612ee2565b6128648185612f6a565b93508360208202850161287685612e9c565b8060005b858110156128b2578484038952815161289385826126f3565b945061289e83612f2a565b925060208a0199505060018101905061287a565b50829750879550505050505092915050565b6128cd81612fba565b82525050565b6128dc81612fc6565b82525050565b60006128ed82612ef8565b6128f78185612f8c565b9350612907818560208601613009565b6129108161303c565b840191505092915050565b600061292682612ef8565b6129308185612f9d565b9350612940818560208601613009565b80840191505092915050565b600061295782612eed565b6129618185612f7b565b9350612971818560208601613009565b61297a8161303c565b840191505092915050565b600061299082612eed565b61299a8185612f8c565b93506129aa818560208601613009565b6129b38161303c565b840191505092915050565b60006129c982612eed565b6129d38185612f9d565b93506129e3818560208601613009565b80840191505092915050565b600081546001811660008114612a0c5760018114612a3157612a75565b607f6002830416612a1d8187612f9d565b955060ff1983168652808601935050612a75565b60028204612a3f8187612f9d565b9550612a4a85612eac565b60005b82811015612a6c57815481890152600182019150602081019050612a4d565b82880195505050505b505092915050565b6000612a8a600d83612f8c565b91507f496e76616c696420696e646578000000000000000000000000000000000000006000830152602082019050919050565b600060c083016000830151612ad56000860182612ba6565b5060208301518482036020860152612aed828261294c565b91505060408301518482036040860152612b07828261294c565b91505060608301518482036060860152612b21828261294c565b91505060808301518482036080860152612b3b828261294c565b91505060a083015184820360a0860152612b55828261294c565b9150508091505092915050565b60006040830160008301518482036000860152612b7f828261294c565b91505060208301518482036020860152612b99828261294c565b9150508091505092915050565b612baf81612ff0565b82525050565b612bbe81612ff0565b82525050565b6000612bd082846129be565b915081905092915050565b6000612be7828461291b565b915081905092915050565b6000612bfe82846129ef565b915081905092915050565b60006020820190508181036000830152612c238184612707565b905092915050565b60006020820190508181036000830152612c458184612765565b905092915050565b60006020820190508181036000830152612c6781846127da565b905092915050565b60006020820190508181036000830152612c89818461284f565b905092915050565b6000602082019050612ca660008301846128c4565b92915050565b60006020820190508181036000830152612cc581612a7d565b9050919050565b600060c082019050612ce16000830189612bb5565b8181036020830152612cf381886128e2565b90508181036040830152612d0781876128e2565b90508181036060830152612d1b81866128e2565b90508181036080830152612d2f81856128e2565b905081810360a0830152612d4381846128e2565b9050979650505050505050565b600060a082019050612d656000830188612bb5565b8181036020830152612d778187612985565b90508181036040830152612d8b8186612985565b90508181036060830152612d9f8185612985565b90508181036080830152612db38184612985565b90509695505050505050565b6000604051905081810181811067ffffffffffffffff82111715612de257600080fd5b8060405250919050565b600067ffffffffffffffff821115612e0357600080fd5b602082029050602081019050919050565b600067ffffffffffffffff821115612e2b57600080fd5b601f19601f8301169050602081019050919050565b600067ffffffffffffffff821115612e5757600080fd5b601f19601f8301169050602081019050919050565b6000819050602082019050919050565b6000819050602082019050919050565b6000819050602082019050919050565b6000819050602082019050919050565b60008190508160005260206000209050919050565b600081519050919050565b600081519050919050565b600081519050919050565b600081519050919050565b600081519050919050565b600081519050919050565b6000602082019050919050565b6000602082019050919050565b6000602082019050919050565b6000602082019050919050565b600082825260208201905092915050565b600082825260208201905092915050565b600082825260208201905092915050565b600082825260208201905092915050565b600082825260208201905092915050565b600082825260208201905092915050565b600081905092915050565b6000612fb382612fd0565b9050919050565b60008115159050919050565b6000819050919050565b600073ffffffffffffffffffffffffffffffffffffffff82169050919050565b6000819050919050565b82818337600083830152505050565b60005b8381101561302757808201518184015260208101905061300c565b83811115613036576000848401525b50505050565b6000601f19601f8301169050919050565b61305681612fa8565b811461306157600080fd5b50565b61306d81612fc6565b811461307857600080fd5b50565b61308481612ff0565b811461308f57600080fd5b5056fea365627a7a72315820122ddbe9abb07eaf1f4cb2d5d2495e34dd7c85594540f3063d3ee30d42868b4a6c6578706572696d656e74616cf564736f6c63430005100040",
  "source": "// SPDX-License-Identifier: MIT\r\npragma experimental ABIEncoderV2;\r\npragma solidity >=0.4.17<0.9.0;\r\n\r\ncontract System {\r\n\r\n    // Company Information (Certificate Number for Identity Management)\r\n    struct Company {\r\n        string name;\r\n        string email;\r\n        string password;\r\n        uint256 certificate_num;\r\n    }\r\n\r\n        struct User {\r\n        string name;\r\n        string email;\r\n        string password;\r\n    }\r\n    // Product Information (Image Link not the Actual Image Bytes)\r\n    // Company Name for Filteration\r\n    struct Product {\r\n        uint id;\r\n        string name;\r\n        string model;\r\n        string description;\r\n        string companyName;\r\n        string imageLink;\r\n    }\r\n\r\n    struct Report {\r\n        // string imageLink;\r\n        string Location;\r\n        string description;\r\n    }\r\n\r\n    //Product public prod;\r\n\r\n    mapping(string => User) users;\r\n    mapping(address => Company) companies;\r\n    address[] private companyAddresses;\r\n    \r\n    mapping(bytes32 => Product) private products;\r\n    mapping(string => bytes32[]) private companyProducts;\r\n    mapping(string => Report[]) private companyReports;\r\n\r\n\r\n\r\n\r\n\r\n    function register_User(string memory _useraddress,string memory _name, string memory _email, string memory _password) public {\r\n        users[_useraddress] = User(_name,_email,_password);\r\n    }\r\n\r\n    function register_Company(address _compaddress,string memory _name, string memory _email, string memory _password,uint256 _cert_num) public {\r\n        companies[_compaddress] = Company(_name,_email,_password,_cert_num);\r\n        companyAddresses.push(_compaddress);\r\n    }\r\n\r\n    function login_user (string memory user_add , string memory _name , string memory _password) public view returns (bool found)\r\n    {\r\n            User memory user = users[user_add];\r\n            \r\n            // str compare keccak256(bytes(a)) == keccak256(bytes(b));\r\n            if(keccak256(bytes(user.name)) == keccak256(bytes(_name)) && keccak256(bytes(user.password)) == keccak256(bytes(_password)))\r\n                return true;\r\n            else\r\n                return false;\r\n    }\r\n\r\n    function login_company(address company_add, string memory _name, string memory _password) public view returns (bool found) {\r\n        Company memory company = companies[company_add];\r\n        // Compare company name and password using keccak256\r\n        if (keccak256(bytes(company.name)) == keccak256(bytes(_name)) && keccak256(bytes(company.password)) == keccak256(bytes(_password)))\r\n            return true;\r\n        else\r\n            return false;\r\n    }\r\n\r\n\r\n    function upload_Products(Product[] memory _products) public returns (bytes32[] memory hashedArray) {\r\n        bytes32[] memory productHashes = new bytes32[](_products.length);\r\n        \r\n        for (uint256 i = 0; i < _products.length; i++) {\r\n            Product memory p = _products[i];\r\n            \r\n            // Encoding Using the Four Attributes (Image Link Not Included)\r\n            bytes32 p_hashed = keccak256(abi.encode(p.id, p.name, p.model, p.description, p.companyName));\r\n            products[p_hashed] = p;\r\n            \r\n            // Add the product ID to the array of product IDs for the respective company\r\n            companyProducts[p.companyName].push(p_hashed);\r\n            \r\n            productHashes[i] = p_hashed;\r\n        }\r\n    \r\n    return productHashes;\r\n}\r\n    \r\n        // Get a Product by its Hash\r\n    function get_product(bytes32 product_add) internal view returns (Product memory Prod) {\r\n        return products[product_add];\r\n    }\r\n\r\n    function retrieve_company_products(string memory Company_name) public view returns (Product[] memory products_array) {\r\n        bytes32[] memory products_hashes = companyProducts[Company_name];\r\n        Product[] memory products_of_company = new Product[](products_hashes.length);\r\n        for (uint256 index = 0; index < products_hashes.length; index++) {\r\n            products_of_company[index] = get_product(products_hashes[index]);\r\n        }\r\n\r\n        return products_of_company;\r\n    }\r\n\r\n    // Verify a product and return its attributes or null values if not found\r\n    function verify_product(bytes32 product_add) external view returns (uint, string memory, string memory, string memory, string memory, string memory) {\r\n        // Get the product using the Company_Con contract's get_product function\r\n        System.Product memory product = products[product_add];\r\n\r\n        // Check if the product exists\r\n        if (product.id == 0) {\r\n            // Return null values if the product does not exist\r\n            return (0, \"\", \"\", \"\", \"\", \"\");\r\n        }\r\n        else {\r\n            // Return the product attributes if the product exists\r\n            return (product.id, product.name, product.model, product.description, product.companyName, product.imageLink);\r\n        }\r\n    }\r\n\r\n\r\n    function send_report(string memory location, string memory  description,string memory companyname) public\r\n    {\r\n        Report memory report = Report(location,description);\r\n        companyReports[companyname].push(report);\r\n    }\r\n\r\n    function get_companies_names() public view returns(string[] memory)\r\n    {\r\n        uint256 length = companyAddresses.length;\r\n        string[] memory allCompanies = new string[](length);\r\n    \r\n        for (uint256 i = 0; i < length; i++) {\r\n            allCompanies[i] = companies[companyAddresses[i]].name;\r\n        }\r\n\r\n        return allCompanies;\r\n    }\r\n\r\n    function get_function_report(string memory company_name) public  view returns(Report[] memory) {\r\n        Report[] memory reports_of_company = companyReports[company_name];\r\n\r\n        return reports_of_company;\r\n    }\r\n\r\n    function deleteReport(string memory companyname, uint index) public  {\r\n        require(index < companyReports[companyname].length, \"Invalid index\");\r\n\r\n        // Move the last element to the index being deleted\r\n        companyReports[companyname][index] = companyReports[companyname][companyReports[companyname].length - 1];\r\n\r\n        // Remove the last element\r\n        companyReports[companyname].pop();\r\n    }\r\n    \r\n    function delete_allReport(string memory companyname) public {\r\n    \r\n    // Remove the last element\r\n    delete companyReports[companyname];\r\n    }\r\n    \r\n\r\n    function deleteProductByModel(string memory companyname, string memory model) public {\r\n        bytes32[] memory keysToDelete = new bytes32[](companyProducts[companyname].length);\r\n        uint256 deleteCount = 0;\r\n\r\n        // Identify the keys of the products to delete\r\n        for (uint256 i = 0; i < companyProducts[companyname].length; i++) {\r\n            bytes32 productKey = companyProducts[companyname][i];\r\n            if (keccak256(abi.encodePacked(products[productKey].model)) == keccak256(abi.encodePacked(model))) {\r\n                keysToDelete[deleteCount] = productKey;\r\n                deleteCount++;\r\n            }\r\n        }\r\n\r\n        // Delete the identified products from the mappings\r\n        for (uint256 i = 0; i < deleteCount; i++) {\r\n            delete products[keysToDelete[i]];\r\n\r\n            // Delete the product hash from the companyProducts mapping\r\n            uint256 index = findIndex(companyProducts[companyname], keysToDelete[i]);\r\n            if (index < companyProducts[companyname].length - 1) {\r\n                companyProducts[companyname][index] = companyProducts[companyname][companyProducts[companyname].length - 1];\r\n            }\r\n            companyProducts[companyname].pop();\r\n        }\r\n    }\r\n\r\n\r\n    // Helper function to find the index of an element in an array\r\n    function findIndex(bytes32[] memory array, bytes32 element) private pure returns (uint256) {\r\n        for (uint256 i = 0; i < array.length; i++) {\r\n            if (array[i] == element) {\r\n                return i;\r\n            }\r\n        }\r\n        return array.length;\r\n    }\r\n\r\n    //----------------modifers------------\r\n\r\n    modifier onlyCompany() {\r\n        require(bytes(companies[msg.sender].name).length != 0, \"You are not a Company\");\r\n        _;\r\n    }\r\n\r\n    \r\n}\r\n\r\n",
  "sourcePath": "C:\\Users\\MSI-PC\\Desktop\\Fake Products Detection\\contracts\\System.sol",
  "compiler": {
    "name": "solc",
    "version": "0.5.16+commit.9c3226ce.Emscripten.clang"
  },
  "schemaVersion": "3.4.13",
  "updatedAt": "2023-07-04T12:41:23.233Z",
  "networkType": "ethereum",
  "devdoc": {
    "methods": {}
  },
  "userdoc": {
    "methods": {}
  }
}