{
  "contractName": "System",
  "abi": [
    {
      "constant": false,
      "inputs": [
        {
          "internalType": "string",
          "name": "_useraddress",
          "type": "string"
        },
        {
          "internalType": "string",
          "name": "_name",
          "type": "string"
        },
        {
          "internalType": "string",
          "name": "_email",
          "type": "string"
        },
        {
          "internalType": "string",
          "name": "_password",
          "type": "string"
        }
      ],
      "name": "register_User",
      "outputs": [],
      "payable": false,
      "stateMutability": "nonpayable",
      "type": "function"
    },
    {
      "constant": false,
      "inputs": [
        {
          "internalType": "address",
          "name": "_compaddress",
          "type": "address"
        },
        {
          "internalType": "string",
          "name": "_name",
          "type": "string"
        },
        {
          "internalType": "string",
          "name": "_email",
          "type": "string"
        },
        {
          "internalType": "string",
          "name": "_password",
          "type": "string"
        },
        {
          "internalType": "uint256",
          "name": "_cert_num",
          "type": "uint256"
        }
      ],
      "name": "register_Company",
      "outputs": [],
      "payable": false,
      "stateMutability": "nonpayable",
      "type": "function"
    },
    {
      "constant": true,
      "inputs": [
        {
          "internalType": "string",
          "name": "user_add",
          "type": "string"
        },
        {
          "internalType": "string",
          "name": "_name",
          "type": "string"
        },
        {
          "internalType": "string",
          "name": "_password",
          "type": "string"
        }
      ],
      "name": "login_user",
      "outputs": [
        {
          "internalType": "bool",
          "name": "found",
          "type": "bool"
        }
      ],
      "payable": false,
      "stateMutability": "view",
      "type": "function"
    },
    {
      "constant": true,
      "inputs": [
        {
          "internalType": "address",
          "name": "company_add",
          "type": "address"
        },
        {
          "internalType": "string",
          "name": "_name",
          "type": "string"
        },
        {
          "internalType": "string",
          "name": "_password",
          "type": "string"
        }
      ],
      "name": "login_company",
      "outputs": [
        {
          "internalType": "bool",
          "name": "found",
          "type": "bool"
        }
      ],
      "payable": false,
      "stateMutability": "view",
      "type": "function"
    },
    {
      "constant": false,
      "inputs": [
        {
          "components": [
            {
              "internalType": "uint256",
              "name": "id",
              "type": "uint256"
            },
            {
              "internalType": "string",
              "name": "name",
              "type": "string"
            },
            {
              "internalType": "string",
              "name": "model",
              "type": "string"
            },
            {
              "internalType": "string",
              "name": "description",
              "type": "string"
            },
            {
              "internalType": "string",
              "name": "companyName",
              "type": "string"
            },
            {
              "internalType": "string",
              "name": "imageLink",
              "type": "string"
            }
          ],
          "internalType": "struct System.Product[]",
          "name": "_products",
          "type": "tuple[]"
        }
      ],
      "name": "upload_Products",
      "outputs": [
        {
          "internalType": "bytes32[]",
          "name": "hashedArray",
          "type": "bytes32[]"
        }
      ],
      "payable": false,
      "stateMutability": "nonpayable",
      "type": "function"
    },
    {
      "constant": true,
      "inputs": [
        {
          "internalType": "string",
          "name": "Company_name",
          "type": "string"
        }
      ],
      "name": "retrieve_company_products",
      "outputs": [
        {
          "components": [
            {
              "internalType": "uint256",
              "name": "id",
              "type": "uint256"
            },
            {
              "internalType": "string",
              "name": "name",
              "type": "string"
            },
            {
              "internalType": "string",
              "name": "model",
              "type": "string"
            },
            {
              "internalType": "string",
              "name": "description",
              "type": "string"
            },
            {
              "internalType": "string",
              "name": "companyName",
              "type": "string"
            },
            {
              "internalType": "string",
              "name": "imageLink",
              "type": "string"
            }
          ],
          "internalType": "struct System.Product[]",
          "name": "products_array",
          "type": "tuple[]"
        }
      ],
      "payable": false,
      "stateMutability": "view",
      "type": "function"
    },
    {
      "constant": true,
      "inputs": [
        {
          "internalType": "bytes32",
          "name": "product_add",
          "type": "bytes32"
        }
      ],
      "name": "verify_product",
      "outputs": [
        {
          "internalType": "uint256",
          "name": "",
          "type": "uint256"
        },
        {
          "internalType": "string",
          "name": "",
          "type": "string"
        },
        {
          "internalType": "string",
          "name": "",
          "type": "string"
        },
        {
          "internalType": "string",
          "name": "",
          "type": "string"
        },
        {
          "internalType": "string",
          "name": "",
          "type": "string"
        },
        {
          "internalType": "string",
          "name": "",
          "type": "string"
        }
      ],
      "payable": false,
      "stateMutability": "view",
      "type": "function"
    },
    {
      "constant": false,
      "inputs": [
        {
          "internalType": "string",
          "name": "location",
          "type": "string"
        },
        {
          "internalType": "string",
          "name": "description",
          "type": "string"
        },
        {
          "internalType": "string",
          "name": "companyname",
          "type": "string"
        }
      ],
      "name": "send_report",
      "outputs": [],
      "payable": false,
      "stateMutability": "nonpayable",
      "type": "function"
    },
    {
      "constant": true,
      "inputs": [],
      "name": "get_companies_names",
      "outputs": [
        {
          "internalType": "string[]",
          "name": "",
          "type": "string[]"
        }
      ],
      "payable": false,
      "stateMutability": "view",
      "type": "function"
    },
    {
      "constant": true,
      "inputs": [
        {
          "internalType": "string",
          "name": "company_name",
          "type": "string"
        }
      ],
      "name": "get_function_report",
      "outputs": [
        {
          "components": [
            {
              "internalType": "string",
              "name": "Location",
              "type": "string"
            },
            {
              "internalType": "string",
              "name": "description",
              "type": "string"
            }
          ],
          "internalType": "struct System.Report[]",
          "name": "",
          "type": "tuple[]"
        }
      ],
      "payable": false,
      "stateMutability": "view",
      "type": "function"
    },
    {
      "constant": false,
      "inputs": [
        {
          "internalType": "string",
          "name": "companyname",
          "type": "string"
        },
        {
          "internalType": "uint256",
          "name": "index",
          "type": "uint256"
        }
      ],
      "name": "deleteReport",
      "outputs": [],
      "payable": false,
      "stateMutability": "nonpayable",
      "type": "function"
    },
    {
      "constant": false,
      "inputs": [
        {
          "internalType": "string",
          "name": "companyname",
          "type": "string"
        }
      ],
      "name": "delete_allReport",
      "outputs": [],
      "payable": false,
      "stateMutability": "nonpayable",
      "type": "function"
    }
  ],
  "bytecode": "0x608060405234801561001057600080fd5b50612dd4806100206000396000f3fe608060405234801561001057600080fd5b50600436106100b45760003560e01c8063a91dd13511610071578063a91dd13514610177578063af87729e146101a7578063c25d2c93146101dc578063ce2aae341461020c578063d23c91f514610228578063f087260814610258576100b4565b8063133af958146100b95780631d3be9bf146100d557806374139a16146100f15780638ace7b9b1461010d578063950081a81461013d578063a6524d761461015b575b600080fd5b6100d360048036036100ce91908101906120f4565b610288565b005b6100ef60048036036100ea919081019061221d565b6103b9565b005b61010b6004803603610106919081019061225e565b610480565b005b61012760048036036101229190810190612075565b61052c565b6040516101349190612985565b60405180910390f35b6101456107c0565b604051610152919061291f565b60405180910390f35b610175600480360361017091908101906123b8565b610952565b005b610191600480360361018c91908101906121b3565b610b98565b60405161019e91906128fd565b60405180910390f35b6101c160048036036101bc91908101906121f4565b610d72565b6040516101d3969594939291906129e0565b60405180910390f35b6101f660048036036101f1919081019061221d565b611190565b6040516102039190612941565b60405180910390f35b610226600480360361022191908101906122f5565b61129c565b005b610242600480360361023d919081019061225e565b611335565b60405161024f9190612985565b60405180910390f35b610272600480360361026d919081019061221d565b61159e565b60405161027f9190612963565b60405180910390f35b604051806080016040528085815260200184815260200183815260200182815250600160008773ffffffffffffffffffffffffffffffffffffffff1673ffffffffffffffffffffffffffffffffffffffff1681526020019081526020016000206000820151816000019080519060200190610304929190611b60565b506020820151816001019080519060200190610321929190611b60565b50604082015181600201908051906020019061033e929190611b60565b506060820151816003015590505060028590806001815401808255809150509060018203906000526020600020016000909192909190916101000a81548173ffffffffffffffffffffffffffffffffffffffff021916908373ffffffffffffffffffffffffffffffffffffffff160217905550505050505050565b6000600160003373ffffffffffffffffffffffffffffffffffffffff1673ffffffffffffffffffffffffffffffffffffffff1681526020019081526020016000206000018054600181600116156101000203166002900490501415610453576040517f08c379a000000000000000000000000000000000000000000000000000000000815260040161044a906129c0565b60405180910390fd5b60058160405161046391906128e6565b9081526020016040518091039020600061047d9190611be0565b50565b610488611c04565b60405180604001604052808581526020018481525090506005826040516104af91906128e6565b908152602001604051809103902081908060018154018082558091505090600182039060005260206000209060020201600090919290919091506000820151816000019080519060200190610505929190611b60565b506020820151816001019080519060200190610522929190611b60565b5050505050505050565b6000610536611c1e565b600160008673ffffffffffffffffffffffffffffffffffffffff1673ffffffffffffffffffffffffffffffffffffffff168152602001908152602001600020604051806080016040529081600082018054600181600116156101000203166002900480601f0160208091040260200160405190810160405280929190818152602001828054600181600116156101000203166002900480156106195780601f106105ee57610100808354040283529160200191610619565b820191906000526020600020905b8154815290600101906020018083116105fc57829003601f168201915b50505050508152602001600182018054600181600116156101000203166002900480601f0160208091040260200160405190810160405280929190818152602001828054600181600116156101000203166002900480156106bb5780601f10610690576101008083540402835291602001916106bb565b820191906000526020600020905b81548152906001019060200180831161069e57829003601f168201915b50505050508152602001600282018054600181600116156101000203166002900480601f01602080910402602001604051908101604052809291908181526020018280546001816001161561010002031660029004801561075d5780601f106107325761010080835404028352916020019161075d565b820191906000526020600020905b81548152906001019060200180831161074057829003601f168201915b50505050508152602001600382015481525050905083805190602001208160000151805190602001201480156107a457508280519060200120816040015180519060200120145b156107b35760019150506107b9565b60009150505b9392505050565b60606000600280549050905060608160405190808252806020026020018201604052801561080257816020015b60608152602001906001900390816107ed5790505b50905060008090505b8281101561094957600160006002838154811061082457fe5b9060005260206000200160009054906101000a900473ffffffffffffffffffffffffffffffffffffffff1673ffffffffffffffffffffffffffffffffffffffff1673ffffffffffffffffffffffffffffffffffffffff1681526020019081526020016000206000018054600181600116156101000203166002900480601f0160208091040260200160405190810160405280929190818152602001828054600181600116156101000203166002900480156109205780601f106108f557610100808354040283529160200191610920565b820191906000526020600020905b81548152906001019060200180831161090357829003601f168201915b505050505082828151811061093157fe5b6020026020010181905250808060010191505061080b565b50809250505090565b6000600160003373ffffffffffffffffffffffffffffffffffffffff1673ffffffffffffffffffffffffffffffffffffffff16815260200190815260200160002060000180546001816001161561010002031660029004905014156109ec576040517f08c379a00000000000000000000000000000000000000000000000000000000081526004016109e3906129c0565b60405180910390fd5b6005826040516109fc91906128e6565b9081526020016040518091039020805490508110610a4f576040517f08c379a0000000000000000000000000000000000000000000000000000000008152600401610a46906129a0565b60405180910390fd5b600582604051610a5f91906128e6565b90815260200160405180910390206001600584604051610a7f91906128e6565b9081526020016040518091039020805490500381548110610a9c57fe5b9060005260206000209060020201600583604051610aba91906128e6565b90815260200160405180910390208281548110610ad357fe5b906000526020600020906002020160008201816000019080546001816001161561010002031660029004610b08929190611c46565b5060018201816001019080546001816001161561010002031660029004610b30929190611c46565b50905050600582604051610b4491906128e6565b9081526020016040518091039020805480610b5b57fe5b600190038181906000526020600020906002020160008082016000610b809190611ccd565b600182016000610b909190611ccd565b505090555050565b6060808251604051908082528060200260200182016040528015610bcb5781602001602082028038833980820191505090505b50905060008090505b8351811015610d6857610be5611d15565b848281518110610bf157fe5b60200260200101519050600081600001518260200151836040015184606001518560800151604051602001610c2a959493929190612a64565b6040516020818303038152906040528051906020012090508160036000838152602001908152602001600020600082015181600001556020820151816001019080519060200190610c7c929190611b60565b506040820151816002019080519060200190610c99929190611b60565b506060820151816003019080519060200190610cb6929190611b60565b506080820151816004019080519060200190610cd3929190611b60565b5060a0820151816005019080519060200190610cf0929190611b60565b5090505060048260800151604051610d0891906128cf565b908152602001604051809103902081908060018154018082558091505090600182039060005260206000200160009091929091909150555080848481518110610d4d57fe5b60200260200101818152505050508080600101915050610bd4565b5080915050919050565b60006060806060806060610d84611d15565b600360008981526020019081526020016000206040518060c001604052908160008201548152602001600182018054600181600116156101000203166002900480601f016020809104026020016040519081016040528092919081815260200182805460018160011615610100020316600290048015610e455780601f10610e1a57610100808354040283529160200191610e45565b820191906000526020600020905b815481529060010190602001808311610e2857829003601f168201915b50505050508152602001600282018054600181600116156101000203166002900480601f016020809104026020016040519081016040528092919081815260200182805460018160011615610100020316600290048015610ee75780601f10610ebc57610100808354040283529160200191610ee7565b820191906000526020600020905b815481529060010190602001808311610eca57829003601f168201915b50505050508152602001600382018054600181600116156101000203166002900480601f016020809104026020016040519081016040528092919081815260200182805460018160011615610100020316600290048015610f895780601f10610f5e57610100808354040283529160200191610f89565b820191906000526020600020905b815481529060010190602001808311610f6c57829003601f168201915b50505050508152602001600482018054600181600116156101000203166002900480601f01602080910402602001604051908101604052809291908181526020018280546001816001161561010002031660029004801561102b5780601f106110005761010080835404028352916020019161102b565b820191906000526020600020905b81548152906001019060200180831161100e57829003601f168201915b50505050508152602001600582018054600181600116156101000203166002900480601f0160208091040260200160405190810160405280929190818152602001828054600181600116156101000203166002900480156110cd5780601f106110a2576101008083540402835291602001916110cd565b820191906000526020600020905b8154815290600101906020018083116110b057829003601f168201915b505050505081525050905060008160000151141561114c576000809050604051806020016040528060008152506040518060200160405280600081525060405180602001604052806000815250604051806020016040528060008152506040518060200160405280600081525096509650965096509650965050611187565b806000015181602001518260400151836060015184608001518560a00151849450839350829250819150809050965096509650965096509650505b91939550919395565b6060806004836040516111a391906128e6565b90815260200160405180910390208054806020026020016040519081016040528092919081815260200182805480156111fb57602002820191906000526020600020905b8154815260200190600101908083116111e7575b505050505090506060815160405190808252806020026020018201604052801561123f57816020015b61122c611d4b565b8152602001906001900390816112245790505b50905060008090505b82518110156112915761126d83828151811061126057fe5b60200260200101516117ff565b82828151811061127957fe5b60200260200101819052508080600101915050611248565b508092505050919050565b6040518060600160405280848152602001838152602001828152506000856040516112c791906128e6565b908152602001604051809103902060008201518160000190805190602001906112f1929190611b60565b50602082015181600101908051906020019061130e929190611b60565b50604082015181600201908051906020019061132b929190611b60565b5090505050505050565b600061133f611d81565b60008560405161134f91906128e6565b9081526020016040518091039020604051806060016040529081600082018054600181600116156101000203166002900480601f0160208091040260200160405190810160405280929190818152602001828054600181600116156101000203166002900480156114015780601f106113d657610100808354040283529160200191611401565b820191906000526020600020905b8154815290600101906020018083116113e457829003601f168201915b50505050508152602001600182018054600181600116156101000203166002900480601f0160208091040260200160405190810160405280929190818152602001828054600181600116156101000203166002900480156114a35780601f10611478576101008083540402835291602001916114a3565b820191906000526020600020905b81548152906001019060200180831161148657829003601f168201915b50505050508152602001600282018054600181600116156101000203166002900480601f0160208091040260200160405190810160405280929190818152602001828054600181600116156101000203166002900480156115455780601f1061151a57610100808354040283529160200191611545565b820191906000526020600020905b81548152906001019060200180831161152857829003601f168201915b5050505050815250509050838051906020012081600001518051906020012014801561158257508280519060200120816040015180519060200120145b15611591576001915050611597565b60009150505b9392505050565b60606000600160003373ffffffffffffffffffffffffffffffffffffffff1673ffffffffffffffffffffffffffffffffffffffff168152602001908152602001600020600001805460018160011615610100020316600290049050141561163a576040517f08c379a0000000000000000000000000000000000000000000000000000000008152600401611631906129c0565b60405180910390fd5b606060058360405161164c91906128e6565b9081526020016040518091039020805480602002602001604051908101604052809291908181526020016000905b828210156117f05783829060005260206000209060020201604051806040016040529081600082018054600181600116156101000203166002900480601f0160208091040260200160405190810160405280929190818152602001828054600181600116156101000203166002900480156117365780601f1061170b57610100808354040283529160200191611736565b820191906000526020600020905b81548152906001019060200180831161171957829003601f168201915b50505050508152602001600182018054600181600116156101000203166002900480601f0160208091040260200160405190810160405280929190818152602001828054600181600116156101000203166002900480156117d85780601f106117ad576101008083540402835291602001916117d8565b820191906000526020600020905b8154815290600101906020018083116117bb57829003601f168201915b5050505050815250508152602001906001019061167a565b50505050905080915050919050565b611807611d15565b600360008381526020019081526020016000206040518060c001604052908160008201548152602001600182018054600181600116156101000203166002900480601f0160208091040260200160405190810160405280929190818152602001828054600181600116156101000203166002900480156118c85780601f1061189d576101008083540402835291602001916118c8565b820191906000526020600020905b8154815290600101906020018083116118ab57829003601f168201915b50505050508152602001600282018054600181600116156101000203166002900480601f01602080910402602001604051908101604052809291908181526020018280546001816001161561010002031660029004801561196a5780601f1061193f5761010080835404028352916020019161196a565b820191906000526020600020905b81548152906001019060200180831161194d57829003601f168201915b50505050508152602001600382018054600181600116156101000203166002900480601f016020809104026020016040519081016040528092919081815260200182805460018160011615610100020316600290048015611a0c5780601f106119e157610100808354040283529160200191611a0c565b820191906000526020600020905b8154815290600101906020018083116119ef57829003601f168201915b50505050508152602001600482018054600181600116156101000203166002900480601f016020809104026020016040519081016040528092919081815260200182805460018160011615610100020316600290048015611aae5780601f10611a8357610100808354040283529160200191611aae565b820191906000526020600020905b815481529060010190602001808311611a9157829003601f168201915b50505050508152602001600582018054600181600116156101000203166002900480601f016020809104026020016040519081016040528092919081815260200182805460018160011615610100020316600290048015611b505780601f10611b2557610100808354040283529160200191611b50565b820191906000526020600020905b815481529060010190602001808311611b3357829003601f168201915b5050505050815250509050919050565b828054600181600116156101000203166002900490600052602060002090601f016020900481019282601f10611ba157805160ff1916838001178555611bcf565b82800160010185558215611bcf579182015b82811115611bce578251825591602001919060010190611bb3565b5b509050611bdc9190611da2565b5090565b5080546000825560020290600052602060002090810190611c019190611dc7565b50565b604051806040016040528060608152602001606081525090565b6040518060800160405280606081526020016060815260200160608152602001600081525090565b828054600181600116156101000203166002900490600052602060002090601f016020900481019282601f10611c7f5780548555611cbc565b82800160010185558215611cbc57600052602060002091601f016020900482015b82811115611cbb578254825591600101919060010190611ca0565b5b509050611cc99190611da2565b5090565b50805460018160011615610100020316600290046000825580601f10611cf35750611d12565b601f016020900490600052602060002090810190611d119190611da2565b5b50565b6040518060c001604052806000815260200160608152602001606081526020016060815260200160608152602001606081525090565b6040518060c001604052806000815260200160608152602001606081526020016060815260200160608152602001606081525090565b60405180606001604052806060815260200160608152602001606081525090565b611dc491905b80821115611dc0576000816000905550600101611da8565b5090565b90565b611e0391905b80821115611dff5760008082016000611de69190611ccd565b600182016000611df69190611ccd565b50600201611dcd565b5090565b90565b600081359050611e1581612d4c565b92915050565b600082601f830112611e2c57600080fd5b8135611e3f611e3a82612b00565b612ad3565b9150818183526020840193506020810190508360005b83811015611e855781358601611e6b8882611f4c565b845260208401935060208301925050600181019050611e55565b5050505092915050565b600081359050611e9e81612d63565b92915050565b600082601f830112611eb557600080fd5b8135611ec8611ec382612b28565b612ad3565b91508082526020830160208301858383011115611ee457600080fd5b611eef838284612cf9565b50505092915050565b600082601f830112611f0957600080fd5b8135611f1c611f1782612b54565b612ad3565b91508082526020830160208301858383011115611f3857600080fd5b611f43838284612cf9565b50505092915050565b600060c08284031215611f5e57600080fd5b611f6860c0612ad3565b90506000611f7884828501612060565b600083015250602082013567ffffffffffffffff811115611f9857600080fd5b611fa484828501611ea4565b602083015250604082013567ffffffffffffffff811115611fc457600080fd5b611fd084828501611ea4565b604083015250606082013567ffffffffffffffff811115611ff057600080fd5b611ffc84828501611ea4565b606083015250608082013567ffffffffffffffff81111561201c57600080fd5b61202884828501611ea4565b60808301525060a082013567ffffffffffffffff81111561204857600080fd5b61205484828501611ea4565b60a08301525092915050565b60008135905061206f81612d7a565b92915050565b60008060006060848603121561208a57600080fd5b600061209886828701611e06565b935050602084013567ffffffffffffffff8111156120b557600080fd5b6120c186828701611ef8565b925050604084013567ffffffffffffffff8111156120de57600080fd5b6120ea86828701611ef8565b9150509250925092565b600080600080600060a0868803121561210c57600080fd5b600061211a88828901611e06565b955050602086013567ffffffffffffffff81111561213757600080fd5b61214388828901611ef8565b945050604086013567ffffffffffffffff81111561216057600080fd5b61216c88828901611ef8565b935050606086013567ffffffffffffffff81111561218957600080fd5b61219588828901611ef8565b92505060806121a688828901612060565b9150509295509295909350565b6000602082840312156121c557600080fd5b600082013567ffffffffffffffff8111156121df57600080fd5b6121eb84828501611e1b565b91505092915050565b60006020828403121561220657600080fd5b600061221484828501611e8f565b91505092915050565b60006020828403121561222f57600080fd5b600082013567ffffffffffffffff81111561224957600080fd5b61225584828501611ef8565b91505092915050565b60008060006060848603121561227357600080fd5b600084013567ffffffffffffffff81111561228d57600080fd5b61229986828701611ef8565b935050602084013567ffffffffffffffff8111156122b657600080fd5b6122c286828701611ef8565b925050604084013567ffffffffffffffff8111156122df57600080fd5b6122eb86828701611ef8565b9150509250925092565b6000806000806080858703121561230b57600080fd5b600085013567ffffffffffffffff81111561232557600080fd5b61233187828801611ef8565b945050602085013567ffffffffffffffff81111561234e57600080fd5b61235a87828801611ef8565b935050604085013567ffffffffffffffff81111561237757600080fd5b61238387828801611ef8565b925050606085013567ffffffffffffffff8111156123a057600080fd5b6123ac87828801611ef8565b91505092959194509250565b600080604083850312156123cb57600080fd5b600083013567ffffffffffffffff8111156123e557600080fd5b6123f185828601611ef8565b925050602061240285828601612060565b9150509250929050565b6000612418838361262c565b60208301905092915050565b600061243083836126a5565b905092915050565b600061244483836127c8565b905092915050565b6000612458838361286d565b905092915050565b600061246b82612bc0565b6124758185612c36565b935061248083612b80565b8060005b838110156124b1578151612498888261240c565b97506124a383612c02565b925050600181019050612484565b5085935050505092915050565b60006124c982612bcb565b6124d38185612c47565b9350836020820285016124e585612b90565b8060005b8581101561252157848403895281516125028582612424565b945061250d83612c0f565b925060208a019950506001810190506124e9565b50829750879550505050505092915050565b600061253e82612bd6565b6125488185612c58565b93508360208202850161255a85612ba0565b8060005b8581101561259657848403895281516125778582612438565b945061258283612c1c565b925060208a0199505060018101905061255e565b50829750879550505050505092915050565b60006125b382612be1565b6125bd8185612c69565b9350836020820285016125cf85612bb0565b8060005b8581101561260b57848403895281516125ec858261244c565b94506125f783612c29565b925060208a019950506001810190506125d3565b50829750879550505050505092915050565b61262681612cb9565b82525050565b61263581612cc5565b82525050565b600061264682612bf7565b6126508185612c8b565b9350612660818560208601612d08565b61266981612d3b565b840191505092915050565b600061267f82612bf7565b6126898185612c9c565b9350612699818560208601612d08565b80840191505092915050565b60006126b082612bec565b6126ba8185612c7a565b93506126ca818560208601612d08565b6126d381612d3b565b840191505092915050565b60006126e982612bec565b6126f38185612c8b565b9350612703818560208601612d08565b61270c81612d3b565b840191505092915050565b600061272282612bec565b61272c8185612c9c565b935061273c818560208601612d08565b80840191505092915050565b6000612755600d83612c8b565b91507f496e76616c696420696e646578000000000000000000000000000000000000006000830152602082019050919050565b6000612795601583612c8b565b91507f596f7520617265206e6f74206120436f6d70616e7900000000000000000000006000830152602082019050919050565b600060c0830160008301516127e060008601826128b1565b50602083015184820360208601526127f882826126a5565b9150506040830151848203604086015261281282826126a5565b9150506060830151848203606086015261282c82826126a5565b9150506080830151848203608086015261284682826126a5565b91505060a083015184820360a086015261286082826126a5565b9150508091505092915050565b6000604083016000830151848203600086015261288a82826126a5565b915050602083015184820360208601526128a482826126a5565b9150508091505092915050565b6128ba81612cef565b82525050565b6128c981612cef565b82525050565b60006128db8284612717565b915081905092915050565b60006128f28284612674565b915081905092915050565b600060208201905081810360008301526129178184612460565b905092915050565b6000602082019050818103600083015261293981846124be565b905092915050565b6000602082019050818103600083015261295b8184612533565b905092915050565b6000602082019050818103600083015261297d81846125a8565b905092915050565b600060208201905061299a600083018461261d565b92915050565b600060208201905081810360008301526129b981612748565b9050919050565b600060208201905081810360008301526129d981612788565b9050919050565b600060c0820190506129f560008301896128c0565b8181036020830152612a07818861263b565b90508181036040830152612a1b818761263b565b90508181036060830152612a2f818661263b565b90508181036080830152612a43818561263b565b905081810360a0830152612a57818461263b565b9050979650505050505050565b600060a082019050612a7960008301886128c0565b8181036020830152612a8b81876126de565b90508181036040830152612a9f81866126de565b90508181036060830152612ab381856126de565b90508181036080830152612ac781846126de565b90509695505050505050565b6000604051905081810181811067ffffffffffffffff82111715612af657600080fd5b8060405250919050565b600067ffffffffffffffff821115612b1757600080fd5b602082029050602081019050919050565b600067ffffffffffffffff821115612b3f57600080fd5b601f19601f8301169050602081019050919050565b600067ffffffffffffffff821115612b6b57600080fd5b601f19601f8301169050602081019050919050565b6000819050602082019050919050565b6000819050602082019050919050565b6000819050602082019050919050565b6000819050602082019050919050565b600081519050919050565b600081519050919050565b600081519050919050565b600081519050919050565b600081519050919050565b600081519050919050565b6000602082019050919050565b6000602082019050919050565b6000602082019050919050565b6000602082019050919050565b600082825260208201905092915050565b600082825260208201905092915050565b600082825260208201905092915050565b600082825260208201905092915050565b600082825260208201905092915050565b600082825260208201905092915050565b600081905092915050565b6000612cb282612ccf565b9050919050565b60008115159050919050565b6000819050919050565b600073ffffffffffffffffffffffffffffffffffffffff82169050919050565b6000819050919050565b82818337600083830152505050565b60005b83811015612d26578082015181840152602081019050612d0b565b83811115612d35576000848401525b50505050565b6000601f19601f8301169050919050565b612d5581612ca7565b8114612d6057600080fd5b50565b612d6c81612cc5565b8114612d7757600080fd5b50565b612d8381612cef565b8114612d8e57600080fd5b5056fea365627a7a72315820f45d67cf7af84f7dd8284910a3585d6870a34a57e1955af79f2e53c85f3f00ad6c6578706572696d656e74616cf564736f6c63430005100040",
  "source": "// SPDX-License-Identifier: MIT\r\npragma experimental ABIEncoderV2;\r\npragma solidity >=0.4.17<0.9.0;\r\n\r\ncontract System {\r\n\r\n    // Company Information (Certificate Number for Identity Management)\r\n    struct Company {\r\n        string name;\r\n        string email;\r\n        string password;\r\n        uint256 certificate_num;\r\n    }\r\n\r\n        struct User {\r\n        string name;\r\n        string email;\r\n        string password;\r\n    }\r\n    // Product Information (Image Link not the Actual Image Bytes)\r\n    // Company Name for Filteration\r\n    struct Product {\r\n        uint id;\r\n        string name;\r\n        string model;\r\n        string description;\r\n        string companyName;\r\n        string imageLink;\r\n    }\r\n\r\n    struct Report {\r\n        // string imageLink;\r\n        string Location;\r\n        string description;\r\n    }\r\n\r\n    //Product public prod;\r\n\r\n    mapping(string => User) users;\r\n    mapping(address => Company) companies;\r\n    address[] private companyAddresses;\r\n    \r\n    mapping(bytes32 => Product) private products;\r\n    mapping(string => bytes32[]) private companyProducts;\r\n    mapping(string => Report[]) private companyReports;\r\n\r\n\r\n\r\n\r\n\r\n    function register_User(string memory _useraddress,string memory _name, string memory _email, string memory _password) public {\r\n        users[_useraddress] = User(_name,_email,_password);\r\n    }\r\n\r\n    function register_Company(address _compaddress,string memory _name, string memory _email, string memory _password,uint256 _cert_num) public {\r\n        companies[_compaddress] = Company(_name,_email,_password,_cert_num);\r\n        companyAddresses.push(_compaddress);\r\n    }\r\n\r\n    function login_user (string memory user_add , string memory _name , string memory _password) public view returns (bool found)\r\n    {\r\n            User memory user = users[user_add];\r\n            \r\n            // str compare keccak256(bytes(a)) == keccak256(bytes(b));\r\n            if(keccak256(bytes(user.name)) == keccak256(bytes(_name)) && keccak256(bytes(user.password)) == keccak256(bytes(_password)))\r\n                return true;\r\n            else\r\n                return false;\r\n    }\r\n\r\n    function login_company(address company_add, string memory _name, string memory _password) public view returns (bool found) {\r\n        Company memory company = companies[company_add];\r\n        // Compare company name and password using keccak256\r\n        if (keccak256(bytes(company.name)) == keccak256(bytes(_name)) && keccak256(bytes(company.password)) == keccak256(bytes(_password)))\r\n            return true;\r\n        else\r\n            return false;\r\n    }\r\n\r\n\r\n    function upload_Products(Product[] memory _products) public returns (bytes32[] memory hashedArray) {\r\n        bytes32[] memory productHashes = new bytes32[](_products.length);\r\n        \r\n        for (uint256 i = 0; i < _products.length; i++) {\r\n            Product memory p = _products[i];\r\n            \r\n            // Encoding Using the Four Attributes (Image Link Not Included)\r\n            bytes32 p_hashed = keccak256(abi.encode(p.id, p.name, p.model, p.description, p.companyName));\r\n            products[p_hashed] = p;\r\n            \r\n            // Add the product ID to the array of product IDs for the respective company\r\n            companyProducts[p.companyName].push(p_hashed);\r\n            \r\n            productHashes[i] = p_hashed;\r\n        }\r\n    \r\n    return productHashes;\r\n}\r\n    \r\n        // Get a Product by its Hash\r\n    function get_product(bytes32 product_add) internal view returns (Product memory Prod) {\r\n        return products[product_add];\r\n    }\r\n\r\n    function retrieve_company_products(string memory Company_name) public view returns (Product[] memory products_array) {\r\n        bytes32[] memory products_hashes = companyProducts[Company_name];\r\n        Product[] memory products_of_company = new Product[](products_hashes.length);\r\n        for (uint256 index = 0; index < products_hashes.length; index++) {\r\n            products_of_company[index] = get_product(products_hashes[index]);\r\n        }\r\n\r\n        return products_of_company;\r\n    }\r\n\r\n    // Verify a product and return its attributes or null values if not found\r\n    function verify_product(bytes32 product_add) external view returns (uint, string memory, string memory, string memory, string memory, string memory) {\r\n        // Get the product using the Company_Con contract's get_product function\r\n        System.Product memory product = products[product_add];\r\n\r\n        // Check if the product exists\r\n        if (product.id == 0) {\r\n            // Return null values if the product does not exist\r\n            return (0, \"\", \"\", \"\", \"\", \"\");\r\n        }\r\n        else {\r\n            // Return the product attributes if the product exists\r\n            return (product.id, product.name, product.model, product.description, product.companyName, product.imageLink);\r\n        }\r\n    }\r\n\r\n\r\n    function send_report(string memory location, string memory  description,string memory companyname) public\r\n    {\r\n        Report memory report = Report(location,description);\r\n        companyReports[companyname].push(report);\r\n    }\r\n\r\n    function get_companies_names() public view returns(string[] memory)\r\n    {\r\n        uint256 length = companyAddresses.length;\r\n        string[] memory allCompanies = new string[](length);\r\n    \r\n        for (uint256 i = 0; i < length; i++) {\r\n            allCompanies[i] = companies[companyAddresses[i]].name;\r\n        }\r\n\r\n        return allCompanies;\r\n    }\r\n\r\n    function get_function_report(string memory company_name) public onlyCompany() view returns(Report[] memory) {\r\n        Report[] memory reports_of_company = companyReports[company_name];\r\n\r\n        return reports_of_company;\r\n    }\r\n\r\n    function deleteReport(string memory companyname, uint index) public onlyCompany() {\r\n        require(index < companyReports[companyname].length, \"Invalid index\");\r\n\r\n        // Move the last element to the index being deleted\r\n        companyReports[companyname][index] = companyReports[companyname][companyReports[companyname].length - 1];\r\n\r\n        // Remove the last element\r\n        companyReports[companyname].pop();\r\n    }\r\n    \r\n    function delete_allReport(string memory companyname) public onlyCompany() {\r\n    \r\n    // Remove the last element\r\n    delete companyReports[companyname];\r\n    }\r\n    \r\n\r\n\r\n    //----------------modifers------------\r\n\r\n    modifier onlyCompany() {\r\n        require(bytes(companies[msg.sender].name).length != 0, \"You are not a Company\");\r\n        _;\r\n    }\r\n\r\n    \r\n}\r\n\r\n",
  "sourcePath": "C:\\Users\\MSI-PC\\Desktop\\Fake Products Detection\\contracts\\System.sol",
  "compiler": {
    "name": "solc",
    "version": "0.5.16+commit.9c3226ce.Emscripten.clang"
  },
  "schemaVersion": "3.4.13",
  "updatedAt": "2023-07-03T22:48:25.525Z",
  "networkType": "ethereum",
  "devdoc": {
    "methods": {}
  },
  "userdoc": {
    "methods": {}
  }
}