{
  "contractName": "User_Con",
  "abi": [
    {
      "constant": true,
      "inputs": [],
      "name": "_company",
      "outputs": [
        {
          "internalType": "contract Company_Con",
          "name": "",
          "type": "address"
        }
      ],
      "payable": false,
      "stateMutability": "view",
      "type": "function"
    },
    {
      "constant": false,
      "inputs": [
        {
          "internalType": "address",
          "name": "_useraddress",
          "type": "address"
        },
        {
          "internalType": "string",
          "name": "_name",
          "type": "string"
        },
        {
          "internalType": "string",
          "name": "_email",
          "type": "string"
        },
        {
          "internalType": "string",
          "name": "_password",
          "type": "string"
        }
      ],
      "name": "register_User",
      "outputs": [],
      "payable": false,
      "stateMutability": "nonpayable",
      "type": "function"
    },
    {
      "constant": true,
      "inputs": [
        {
          "internalType": "address",
          "name": "user_add",
          "type": "address"
        },
        {
          "internalType": "string",
          "name": "_name",
          "type": "string"
        },
        {
          "internalType": "string",
          "name": "_password",
          "type": "string"
        }
      ],
      "name": "login_user",
      "outputs": [
        {
          "internalType": "bool",
          "name": "found",
          "type": "bool"
        }
      ],
      "payable": false,
      "stateMutability": "view",
      "type": "function"
    },
    {
      "constant": true,
      "inputs": [
        {
          "internalType": "bytes32",
          "name": "product_add",
          "type": "bytes32"
        }
      ],
      "name": "verify_product",
      "outputs": [
        {
          "internalType": "uint256",
          "name": "",
          "type": "uint256"
        },
        {
          "internalType": "string",
          "name": "",
          "type": "string"
        },
        {
          "internalType": "string",
          "name": "",
          "type": "string"
        },
        {
          "internalType": "string",
          "name": "",
          "type": "string"
        },
        {
          "internalType": "string",
          "name": "",
          "type": "string"
        }
      ],
      "payable": false,
      "stateMutability": "view",
      "type": "function"
    }
  ],
  "bytecode": "0x608060405234801561001057600080fd5b50610d34806100206000396000f3fe608060405234801561001057600080fd5b506004361061004c5760003560e01c8063610bb23814610051578063720e32351461006d578063a4e2a16e1461009d578063af87729e146100bb575b600080fd5b61006b600480360361006691908101906108f8565b6100ef565b005b61008760048036036100829190810190610879565b6101a9565b6040516100949190610a82565b60405180910390f35b6100a5610433565b6040516100b29190610ab8565b60405180910390f35b6100d560048036036100d091908101906109a3565b610458565b6040516100e6959493929190610ad3565b60405180910390f35b604051806060016040528084815260200183815260200182815250600160008673ffffffffffffffffffffffffffffffffffffffff1673ffffffffffffffffffffffffffffffffffffffff16815260200190815260200160002060008201518160000190805190602001906101659291906105b5565b5060208201518160010190805190602001906101829291906105b5565b50604082015181600201908051906020019061019f9291906105b5565b5090505050505050565b60006101b3610635565b600160008673ffffffffffffffffffffffffffffffffffffffff1673ffffffffffffffffffffffffffffffffffffffff168152602001908152602001600020604051806060016040529081600082018054600181600116156101000203166002900480601f0160208091040260200160405190810160405280929190818152602001828054600181600116156101000203166002900480156102965780601f1061026b57610100808354040283529160200191610296565b820191906000526020600020905b81548152906001019060200180831161027957829003601f168201915b50505050508152602001600182018054600181600116156101000203166002900480601f0160208091040260200160405190810160405280929190818152602001828054600181600116156101000203166002900480156103385780601f1061030d57610100808354040283529160200191610338565b820191906000526020600020905b81548152906001019060200180831161031b57829003601f168201915b50505050508152602001600282018054600181600116156101000203166002900480601f0160208091040260200160405190810160405280929190818152602001828054600181600116156101000203166002900480156103da5780601f106103af576101008083540402835291602001916103da565b820191906000526020600020905b8154815290600101906020018083116103bd57829003601f168201915b5050505050815250509050838051906020012081600001518051906020012014801561041757508280519060200120816040015180519060200120145b1561042657600191505061042c565b60009150505b9392505050565b6000809054906101000a900473ffffffffffffffffffffffffffffffffffffffff1681565b6000606080606080610468610656565b6000809054906101000a900473ffffffffffffffffffffffffffffffffffffffff1673ffffffffffffffffffffffffffffffffffffffff16631ee6851c886040518263ffffffff1660e01b81526004016104c29190610a9d565b60006040518083038186803b1580156104da57600080fd5b505afa1580156104ee573d6000803e3d6000fd5b505050506040513d6000823e3d601f19601f8201168201806040525061051791908101906109cc565b905060008160000151141561057b5760008090506040518060200160405280600081525060405180602001604052806000815250604051806020016040528060008152506040518060200160405280600081525095509550955095509550506105ac565b8060000151816020015182604001518360600151846080015183935082925081915080905095509550955095509550505b91939590929450565b828054600181600116156101000203166002900490600052602060002090601f016020900481019282601f106105f657805160ff1916838001178555610624565b82800160010185558215610624579182015b82811115610623578251825591602001919060010190610608565b5b5090506106319190610685565b5090565b60405180606001604052806060815260200160608152602001606081525090565b6040518060a0016040528060008152602001606081526020016060815260200160608152602001606081525090565b6106a791905b808211156106a357600081600090555060010161068b565b5090565b90565b6000813590506106b981610cac565b92915050565b6000813590506106ce81610cc3565b92915050565b600082601f8301126106e557600080fd5b81516106f86106f382610b6f565b610b42565b9150808252602083016020830185838301111561071457600080fd5b61071f838284610c68565b50505092915050565b600082601f83011261073957600080fd5b813561074c61074782610b9b565b610b42565b9150808252602083016020830185838301111561076857600080fd5b610773838284610c59565b50505092915050565b600060a0828403121561078e57600080fd5b61079860a0610b42565b905060006107a884828501610864565b600083015250602082015167ffffffffffffffff8111156107c857600080fd5b6107d4848285016106d4565b602083015250604082015167ffffffffffffffff8111156107f457600080fd5b610800848285016106d4565b604083015250606082015167ffffffffffffffff81111561082057600080fd5b61082c848285016106d4565b606083015250608082015167ffffffffffffffff81111561084c57600080fd5b610858848285016106d4565b60808301525092915050565b60008151905061087381610cda565b92915050565b60008060006060848603121561088e57600080fd5b600061089c868287016106aa565b935050602084013567ffffffffffffffff8111156108b957600080fd5b6108c586828701610728565b925050604084013567ffffffffffffffff8111156108e257600080fd5b6108ee86828701610728565b9150509250925092565b6000806000806080858703121561090e57600080fd5b600061091c878288016106aa565b945050602085013567ffffffffffffffff81111561093957600080fd5b61094587828801610728565b935050604085013567ffffffffffffffff81111561096257600080fd5b61096e87828801610728565b925050606085013567ffffffffffffffff81111561098b57600080fd5b61099787828801610728565b91505092959194509250565b6000602082840312156109b557600080fd5b60006109c3848285016106bf565b91505092915050565b6000602082840312156109de57600080fd5b600082015167ffffffffffffffff8111156109f857600080fd5b610a048482850161077c565b91505092915050565b610a1681610bf5565b82525050565b610a2581610c01565b82525050565b610a3481610c35565b82525050565b6000610a4582610bc7565b610a4f8185610bd2565b9350610a5f818560208601610c68565b610a6881610c9b565b840191505092915050565b610a7c81610c2b565b82525050565b6000602082019050610a976000830184610a0d565b92915050565b6000602082019050610ab26000830184610a1c565b92915050565b6000602082019050610acd6000830184610a2b565b92915050565b600060a082019050610ae86000830188610a73565b8181036020830152610afa8187610a3a565b90508181036040830152610b0e8186610a3a565b90508181036060830152610b228185610a3a565b90508181036080830152610b368184610a3a565b90509695505050505050565b6000604051905081810181811067ffffffffffffffff82111715610b6557600080fd5b8060405250919050565b600067ffffffffffffffff821115610b8657600080fd5b601f19601f8301169050602081019050919050565b600067ffffffffffffffff821115610bb257600080fd5b601f19601f8301169050602081019050919050565b600081519050919050565b600082825260208201905092915050565b6000610bee82610c0b565b9050919050565b60008115159050919050565b6000819050919050565b600073ffffffffffffffffffffffffffffffffffffffff82169050919050565b6000819050919050565b6000610c4082610c47565b9050919050565b6000610c5282610c0b565b9050919050565b82818337600083830152505050565b60005b83811015610c86578082015181840152602081019050610c6b565b83811115610c95576000848401525b50505050565b6000601f19601f8301169050919050565b610cb581610be3565b8114610cc057600080fd5b50565b610ccc81610c01565b8114610cd757600080fd5b50565b610ce381610c2b565b8114610cee57600080fd5b5056fea365627a7a72315820884b8423981c9abc06fe06c61957a3fa1f82ddd4643d6bce15921498fc61889b6c6578706572696d656e74616cf564736f6c63430005100040",
  "source": "// SPDX-License-Identifier: MIT\r\npragma experimental ABIEncoderV2;\r\npragma solidity >=0.4.17<0.9.0;\r\n\r\n// Company Smart Contract\r\ncontract Company_Con {\r\n    // Company Information (Certificate Number for Identity Management)\r\n    struct Company {\r\n        string name;\r\n        string email;\r\n        string password;\r\n        uint256 certificate_num;\r\n    }\r\n    // Product Information (Image Link not the Actual Image Bytes)\r\n    // Company Name for Filteration\r\n    struct Product {\r\n        uint id;\r\n        string name;\r\n        string description;\r\n        string companyName;\r\n        string imageLink;\r\n    }\r\n    // Reprot Information (Company Name for Filteration)\r\n    struct Report {\r\n        uint id;\r\n        string message;\r\n        string companyName;\r\n    }\r\n\r\n    // Map MetaMask Account with the Company Object\r\n    mapping(address => Company) companies;\r\n    // Map Product Hash with the Product Object\r\n    mapping(bytes32 => Product) public products;\r\n    // Map the Report Id with the Report Object\r\n    mapping(uint => Report) public reports;\r\n\r\n    // Register a Company Using It's Address\r\n    function register_Company(address _compaddress, string memory _name, string memory _email, string memory _password, uint256 _cert_num) public {\r\n        companies[_compaddress] = Company(_name, _email, _password, _cert_num);\r\n    }\r\n\r\n    // Login a company Using It's Address\r\n    function login_company(address company_add, string memory _name, string memory _password) public view returns (bool found) {\r\n        Company memory company = companies[company_add];\r\n        // Compare company name and password using keccak256\r\n        if (keccak256(bytes(company.name)) == keccak256(bytes(_name)) && keccak256(bytes(company.password)) == keccak256(bytes(_password)))\r\n            return true;\r\n        else\r\n            return false;\r\n    }\r\n\r\n    // Upload a Product & Calculate It's Hash\r\n    function upload_Product(uint _id, string memory _name, string memory _description, string memory _companyName, string memory _imageLink) public {\r\n        Product memory p = Product(_id, _name, _description, _companyName, _imageLink);\r\n        // Encoding Using the Four Attributes (Image Link Not Included)\r\n        bytes32 p_hashed = keccak256(abi.encode(p.id, p.name, p.description, p.companyName));\r\n        products[p_hashed] = p;\r\n    }\r\n\r\n    // Get a Product by its Hash\r\n    function get_product(bytes32 product_add) external view returns (Product memory Prod) {\r\n        return products[product_add];\r\n    }\r\n\r\n    // Receive a Report & Store it in the Mapping\r\n    function receive_report(uint _id, string memory _message, string memory _companyName) public {\r\n        Report memory r = Report(_id, _message, _companyName);\r\n        reports[r.id] = r;\r\n    }\r\n\r\n    // Get a Report by its ID (Need Modifications)\r\n    function get_report(uint report_id) external view returns (Report memory rep) {\r\n        return reports[report_id];\r\n    }\r\n}\r\n\r\n// User Samrt Contract\r\ncontract User_Con {\r\n    // User Information for Logging In\r\n    struct User {\r\n        string name;\r\n        string email;\r\n        string password;\r\n    }\r\n\r\n    // Defining an Object from the Company Smart Contract\r\n    Company_Con public _company;\r\n    // Map MetaMask Address to the User Obeject\r\n    mapping(address => User) users;\r\n\r\n    // Register a User Using It's Address\r\n    function register_User(address _useraddress, string memory _name, string memory _email, string memory _password) public {\r\n        users[_useraddress] = User(_name, _email, _password);\r\n    }\r\n\r\n    // Login a User Using It's Address\r\n    function login_user(address user_add, string memory _name, string memory _password) public view returns (bool found) {\r\n        User memory user = users[user_add];\r\n        // Compare user name and password using keccak256\r\n        if (keccak256(bytes(user.name)) == keccak256(bytes(_name)) && keccak256(bytes(user.password)) == keccak256(bytes(_password)))\r\n            return true;\r\n        else\r\n            return false;\r\n    }\r\n\r\n    // Verify a product and return its attributes or null values if not found\r\n    function verify_product(bytes32 product_add) external view returns (uint, string memory, string memory, string memory, string memory) {\r\n        // Get the product using the Company_Con contract's get_product function\r\n        Company_Con.Product memory product = _company.get_product(product_add);\r\n        \r\n        // Check if the product exists\r\n        if (product.id == 0) {\r\n            // Return null values if the product does not exist\r\n            return (0, \"\", \"\", \"\", \"\");\r\n        }\r\n        else {\r\n            // Return the product attributes if the product exists\r\n            return (product.id, product.name, product.description, product.companyName, product.imageLink);\r\n        }\r\n    }\r\n}\r\n",
  "sourcePath": "C:\\Users\\MSI-PC\\Desktop\\Fake-Product-Detection-master\\contracts\\System.sol",
  "compiler": {
    "name": "solc",
    "version": "0.5.16+commit.9c3226ce.Emscripten.clang"
  },
  "schemaVersion": "3.4.13",
  "updatedAt": "2023-06-28T15:48:27.397Z",
  "devdoc": {
    "methods": {}
  },
  "userdoc": {
    "methods": {}
  }
}