{
  "contractName": "System",
  "abi": [
    {
      "constant": true,
      "inputs": [
        {
          "internalType": "bytes32",
          "name": "",
          "type": "bytes32"
        }
      ],
      "name": "products",
      "outputs": [
        {
          "internalType": "uint256",
          "name": "id",
          "type": "uint256"
        },
        {
          "internalType": "string",
          "name": "name",
          "type": "string"
        },
        {
          "internalType": "string",
          "name": "description",
          "type": "string"
        },
        {
          "internalType": "string",
          "name": "companyName",
          "type": "string"
        }
      ],
      "payable": false,
      "stateMutability": "view",
      "type": "function"
    },
    {
      "constant": false,
      "inputs": [
        {
          "internalType": "string",
          "name": "_useraddress",
          "type": "string"
        },
        {
          "internalType": "string",
          "name": "_name",
          "type": "string"
        },
        {
          "internalType": "string",
          "name": "_email",
          "type": "string"
        },
        {
          "internalType": "string",
          "name": "_password",
          "type": "string"
        }
      ],
      "name": "register_User",
      "outputs": [],
      "payable": false,
      "stateMutability": "nonpayable",
      "type": "function"
    },
    {
      "constant": false,
      "inputs": [
        {
          "internalType": "address",
          "name": "_compaddress",
          "type": "address"
        },
        {
          "internalType": "string",
          "name": "_name",
          "type": "string"
        },
        {
          "internalType": "string",
          "name": "_email",
          "type": "string"
        },
        {
          "internalType": "string",
          "name": "_password",
          "type": "string"
        },
        {
          "internalType": "uint256",
          "name": "_cert_num",
          "type": "uint256"
        }
      ],
      "name": "register_Company",
      "outputs": [],
      "payable": false,
      "stateMutability": "nonpayable",
      "type": "function"
    },
    {
      "constant": false,
      "inputs": [
        {
          "internalType": "uint256",
          "name": "_id",
          "type": "uint256"
        },
        {
          "internalType": "string",
          "name": "_name",
          "type": "string"
        },
        {
          "internalType": "string",
          "name": "_description",
          "type": "string"
        },
        {
          "internalType": "string",
          "name": "_companyName",
          "type": "string"
        }
      ],
      "name": "upload_Product",
      "outputs": [
        {
          "internalType": "bytes32",
          "name": "hashed",
          "type": "bytes32"
        }
      ],
      "payable": false,
      "stateMutability": "nonpayable",
      "type": "function"
    },
    {
      "constant": true,
      "inputs": [
        {
          "internalType": "string",
          "name": "user_add",
          "type": "string"
        },
        {
          "internalType": "string",
          "name": "_name",
          "type": "string"
        },
        {
          "internalType": "string",
          "name": "_password",
          "type": "string"
        }
      ],
      "name": "login_user",
      "outputs": [
        {
          "internalType": "bool",
          "name": "found",
          "type": "bool"
        }
      ],
      "payable": false,
      "stateMutability": "view",
      "type": "function"
    },
    {
      "constant": true,
      "inputs": [
        {
          "internalType": "address",
          "name": "company_add",
          "type": "address"
        },
        {
          "internalType": "string",
          "name": "_name",
          "type": "string"
        },
        {
          "internalType": "string",
          "name": "_password",
          "type": "string"
        }
      ],
      "name": "login_company",
      "outputs": [
        {
          "internalType": "bool",
          "name": "found",
          "type": "bool"
        }
      ],
      "payable": false,
      "stateMutability": "view",
      "type": "function"
    },
    {
      "constant": true,
      "inputs": [
        {
          "internalType": "bytes32",
          "name": "product_add",
          "type": "bytes32"
        }
      ],
      "name": "verify_product",
      "outputs": [
        {
          "internalType": "uint256",
          "name": "p",
          "type": "uint256"
        }
      ],
      "payable": false,
      "stateMutability": "view",
      "type": "function"
    },
    {
      "constant": false,
      "inputs": [
        {
          "internalType": "bytes32",
          "name": "product_add",
          "type": "bytes32"
        }
      ],
      "name": "delete_product",
      "outputs": [],
      "payable": false,
      "stateMutability": "nonpayable",
      "type": "function"
    }
  ],
  "bytecode": "0x608060405234801561001057600080fd5b506115c4806100206000396000f3fe608060405234801561001057600080fd5b50600436106100885760003560e01c8063af87729e1161005b578063af87729e14610128578063ce2aae3414610158578063cf1d99f514610174578063d23c91f5146101a457610088565b8063133af9581461008d578063406e2024146100a957806379054391146100c55780638ace7b9b146100f8575b600080fd5b6100a760048036036100a29190810190610fc6565b6101d4565b005b6100c360048036036100be9190810190611085565b61029f565b005b6100df60048036036100da9190810190611085565b6102f0565b6040516100ef94939291906113b2565b60405180910390f35b610112600480360361010d9190810190610f47565b6104e8565b60405161011f9190611361565b60405180910390f35b610142600480360361013d9190810190611085565b61073a565b60405161014f9190611397565b60405180910390f35b610172600480360361016d9190810190611145565b610961565b005b61018e60048036036101899190810190611208565b6109fa565b60405161019b919061137c565b60405180910390f35b6101be60048036036101b991908101906110ae565b610aed565b6040516101cb9190611361565b60405180910390f35b604051806080016040528085815260200184815260200183815260200182815250600160008773ffffffffffffffffffffffffffffffffffffffff1673ffffffffffffffffffffffffffffffffffffffff1681526020019081526020016000206000820151816000019080519060200190610250929190610d56565b50602082015181600101908051906020019061026d929190610d56565b50604082015181600201908051906020019061028a929190610d56565b50606082015181600301559050505050505050565b600260008281526020019081526020016000206000808201600090556001820160006102cb9190610dd6565b6002820160006102db9190610dd6565b6003820160006102eb9190610dd6565b505050565b6002602052806000526040600020600091509050806000015490806001018054600181600116156101000203166002900480601f0160208091040260200160405190810160405280929190818152602001828054600181600116156101000203166002900480156103a25780601f10610377576101008083540402835291602001916103a2565b820191906000526020600020905b81548152906001019060200180831161038557829003601f168201915b505050505090806002018054600181600116156101000203166002900480601f0160208091040260200160405190810160405280929190818152602001828054600181600116156101000203166002900480156104405780601f1061041557610100808354040283529160200191610440565b820191906000526020600020905b81548152906001019060200180831161042357829003601f168201915b505050505090806003018054600181600116156101000203166002900480601f0160208091040260200160405190810160405280929190818152602001828054600181600116156101000203166002900480156104de5780601f106104b3576101008083540402835291602001916104de565b820191906000526020600020905b8154815290600101906020018083116104c157829003601f168201915b5050505050905084565b60006104f2610e1e565b600160008673ffffffffffffffffffffffffffffffffffffffff1673ffffffffffffffffffffffffffffffffffffffff168152602001908152602001600020604051806080016040529081600082018054600181600116156101000203166002900480601f0160208091040260200160405190810160405280929190818152602001828054600181600116156101000203166002900480156105d55780601f106105aa576101008083540402835291602001916105d5565b820191906000526020600020905b8154815290600101906020018083116105b857829003601f168201915b50505050508152602001600182018054600181600116156101000203166002900480601f0160208091040260200160405190810160405280929190818152602001828054600181600116156101000203166002900480156106775780601f1061064c57610100808354040283529160200191610677565b820191906000526020600020905b81548152906001019060200180831161065a57829003601f168201915b50505050508152602001600282018054600181600116156101000203166002900480601f0160208091040260200160405190810160405280929190818152602001828054600181600116156101000203166002900480156107195780601f106106ee57610100808354040283529160200191610719565b820191906000526020600020905b8154815290600101906020018083116106fc57829003601f168201915b50505050508152602001600382015481525050905060019150509392505050565b6000610744610e46565b6002600084815260200190815260200160002060405180608001604052908160008201548152602001600182018054600181600116156101000203166002900480601f0160208091040260200160405190810160405280929190818152602001828054600181600116156101000203166002900480156108055780601f106107da57610100808354040283529160200191610805565b820191906000526020600020905b8154815290600101906020018083116107e857829003601f168201915b50505050508152602001600282018054600181600116156101000203166002900480601f0160208091040260200160405190810160405280929190818152602001828054600181600116156101000203166002900480156108a75780601f1061087c576101008083540402835291602001916108a7565b820191906000526020600020905b81548152906001019060200180831161088a57829003601f168201915b50505050508152602001600382018054600181600116156101000203166002900480601f0160208091040260200160405190810160405280929190818152602001828054600181600116156101000203166002900480156109495780601f1061091e57610100808354040283529160200191610949565b820191906000526020600020905b81548152906001019060200180831161092c57829003601f168201915b50505050508152505090508060000151915050919050565b60405180606001604052808481526020018381526020018281525060008560405161098c919061134a565b908152602001604051809103902060008201518160000190805190602001906109b6929190610d56565b5060208201518160010190805190602001906109d3929190610d56565b5060408201518160020190805190602001906109f0929190610d56565b5090505050505050565b6000610a04610e46565b604051806080016040528087815260200186815260200185815260200184815250905060008160000151826020015183604001518460600151604051602001610a5094939291906113b2565b6040516020818303038152906040528051906020012090508160026000838152602001908152602001600020600082015181600001556020820151816001019080519060200190610aa2929190610d56565b506040820151816002019080519060200190610abf929190610d56565b506060820151816003019080519060200190610adc929190610d56565b509050508092505050949350505050565b6000610af7610e6e565b600085604051610b07919061134a565b9081526020016040518091039020604051806060016040529081600082018054600181600116156101000203166002900480601f016020809104026020016040519081016040528092919081815260200182805460018160011615610100020316600290048015610bb95780601f10610b8e57610100808354040283529160200191610bb9565b820191906000526020600020905b815481529060010190602001808311610b9c57829003601f168201915b50505050508152602001600182018054600181600116156101000203166002900480601f016020809104026020016040519081016040528092919081815260200182805460018160011615610100020316600290048015610c5b5780601f10610c3057610100808354040283529160200191610c5b565b820191906000526020600020905b815481529060010190602001808311610c3e57829003601f168201915b50505050508152602001600282018054600181600116156101000203166002900480601f016020809104026020016040519081016040528092919081815260200182805460018160011615610100020316600290048015610cfd5780601f10610cd257610100808354040283529160200191610cfd565b820191906000526020600020905b815481529060010190602001808311610ce057829003601f168201915b50505050508152505090508380519060200120816000015180519060200120148015610d3a57508280519060200120816040015180519060200120145b15610d49576001915050610d4f565b60009150505b9392505050565b828054600181600116156101000203166002900490600052602060002090601f016020900481019282601f10610d9757805160ff1916838001178555610dc5565b82800160010185558215610dc5579182015b82811115610dc4578251825591602001919060010190610da9565b5b509050610dd29190610e8f565b5090565b50805460018160011615610100020316600290046000825580601f10610dfc5750610e1b565b601f016020900490600052602060002090810190610e1a9190610e8f565b5b50565b6040518060800160405280606081526020016060815260200160608152602001600081525090565b6040518060800160405280600081526020016060815260200160608152602001606081525090565b60405180606001604052806060815260200160608152602001606081525090565b610eb191905b80821115610ead576000816000905550600101610e95565b5090565b90565b600081359050610ec38161153c565b92915050565b600081359050610ed881611553565b92915050565b600082601f830112610eef57600080fd5b8135610f02610efd82611439565b61140c565b91508082526020830160208301858383011115610f1e57600080fd5b610f298382846114e9565b50505092915050565b600081359050610f418161156a565b92915050565b600080600060608486031215610f5c57600080fd5b6000610f6a86828701610eb4565b935050602084013567ffffffffffffffff811115610f8757600080fd5b610f9386828701610ede565b925050604084013567ffffffffffffffff811115610fb057600080fd5b610fbc86828701610ede565b9150509250925092565b600080600080600060a08688031215610fde57600080fd5b6000610fec88828901610eb4565b955050602086013567ffffffffffffffff81111561100957600080fd5b61101588828901610ede565b945050604086013567ffffffffffffffff81111561103257600080fd5b61103e88828901610ede565b935050606086013567ffffffffffffffff81111561105b57600080fd5b61106788828901610ede565b925050608061107888828901610f32565b9150509295509295909350565b60006020828403121561109757600080fd5b60006110a584828501610ec9565b91505092915050565b6000806000606084860312156110c357600080fd5b600084013567ffffffffffffffff8111156110dd57600080fd5b6110e986828701610ede565b935050602084013567ffffffffffffffff81111561110657600080fd5b61111286828701610ede565b925050604084013567ffffffffffffffff81111561112f57600080fd5b61113b86828701610ede565b9150509250925092565b6000806000806080858703121561115b57600080fd5b600085013567ffffffffffffffff81111561117557600080fd5b61118187828801610ede565b945050602085013567ffffffffffffffff81111561119e57600080fd5b6111aa87828801610ede565b935050604085013567ffffffffffffffff8111156111c757600080fd5b6111d387828801610ede565b925050606085013567ffffffffffffffff8111156111f057600080fd5b6111fc87828801610ede565b91505092959194509250565b6000806000806080858703121561121e57600080fd5b600061122c87828801610f32565b945050602085013567ffffffffffffffff81111561124957600080fd5b61125587828801610ede565b935050604085013567ffffffffffffffff81111561127257600080fd5b61127e87828801610ede565b925050606085013567ffffffffffffffff81111561129b57600080fd5b6112a787828801610ede565b91505092959194509250565b6112bc816114a9565b82525050565b6112cb816114b5565b82525050565b60006112dc82611470565b6112e6818561148c565b93506112f68185602086016114f8565b80840191505092915050565b600061130d82611465565b611317818561147b565b93506113278185602086016114f8565b6113308161152b565b840191505092915050565b611344816114df565b82525050565b600061135682846112d1565b915081905092915050565b600060208201905061137660008301846112b3565b92915050565b600060208201905061139160008301846112c2565b92915050565b60006020820190506113ac600083018461133b565b92915050565b60006080820190506113c7600083018761133b565b81810360208301526113d98186611302565b905081810360408301526113ed8185611302565b905081810360608301526114018184611302565b905095945050505050565b6000604051905081810181811067ffffffffffffffff8211171561142f57600080fd5b8060405250919050565b600067ffffffffffffffff82111561145057600080fd5b601f19601f8301169050602081019050919050565b600081519050919050565b600081519050919050565b600082825260208201905092915050565b600081905092915050565b60006114a2826114bf565b9050919050565b60008115159050919050565b6000819050919050565b600073ffffffffffffffffffffffffffffffffffffffff82169050919050565b6000819050919050565b82818337600083830152505050565b60005b838110156115165780820151818401526020810190506114fb565b83811115611525576000848401525b50505050565b6000601f19601f8301169050919050565b61154581611497565b811461155057600080fd5b50565b61155c816114b5565b811461156757600080fd5b50565b611573816114df565b811461157e57600080fd5b5056fea365627a7a72315820788a7f61acd96c9576ac61caa5d0d20f0c30d3d2317df257b7424f59f7d718876c6578706572696d656e74616cf564736f6c63430005100040",
  "source": "// SPDX-License-Identifier: MIT\r\npragma experimental ABIEncoderV2;\r\npragma solidity >=0.4.17<0.9.0;\r\n\r\ncontract System {\r\n\r\n    struct Company {\r\n        string name;\r\n        string email;\r\n        string password;\r\n        uint256 certifcate_num;\r\n    }\r\n\r\n    struct User {\r\n        string name;\r\n        string email;\r\n        string password;\r\n    }\r\n\r\n    struct Product {\r\n        uint id;\r\n        string name;\r\n        string description;\r\n        string companyName;\r\n    }\r\n\r\n    //Product public prod;\r\n\r\n    mapping(string => User) users;\r\n    mapping(address => Company) companies;\r\n    mapping(bytes32 => Product) public products;\r\n\r\n\r\n    function register_User(string memory _useraddress,string memory _name, string memory _email, string memory _password) public {\r\n        users[_useraddress] = User(_name,_email,_password);\r\n    }\r\n\r\n    function register_Company(address _compaddress,string memory _name, string memory _email, string memory _password,uint256 _cert_num) public {\r\n        companies[_compaddress] = Company(_name,_email,_password,_cert_num);\r\n    }\r\n\r\n    function upload_Product(uint _id,string memory _name, string memory _description,string memory _companyName) public returns (bytes32 hashed)\r\n    {\r\n        Product memory p = Product(_id,_name,_description,_companyName);\r\n        bytes32 p_hashed = keccak256(abi.encode(p.id, p.name, p.description, p.companyName));\r\n        products[p_hashed] = p;\r\n        return p_hashed;\r\n    }\r\n\r\n    function login_user (string memory user_add , string memory _name , string memory _password) public view returns (bool found)\r\n    {\r\n            User memory user = users[user_add];\r\n            \r\n            // str compare keccak256(bytes(a)) == keccak256(bytes(b));\r\n            if(keccak256(bytes(user.name)) == keccak256(bytes(_name)) && keccak256(bytes(user.password)) == keccak256(bytes(_password)))\r\n                return true;\r\n            else\r\n                return false;\r\n    }\r\n\r\n    function login_company (address company_add , string memory _name , string memory _password) public view returns (bool found)\r\n    {\r\n            Company memory company = companies[company_add];\r\n            \r\n            // str compare keccak256(bytes(a)) == keccak256(bytes(b));\r\n            // if(keccak256(bytes(company.name)) == keccak256(bytes(_name)) && keccak256(bytes(company.password)) == keccak256(bytes(_password)))\r\n            //     return true;\r\n            // else\r\n            //     return false;\r\n            return true;\r\n    }\r\n\r\n    function verify_product (bytes32 product_add) public view returns (uint p )\r\n    {\r\n       //Product memory prod = products[product_add];\r\n       Product memory a1 =products[product_add];\r\n       return a1.id;\r\n        // if(prod.id==0)\r\n        // return false;\r\n        // else\r\n        // return true;\r\n        //return prod;\r\n    }\r\n\r\n    function delete_product (bytes32 product_add) public {\r\n        delete products[product_add];\r\n    }\r\n    \r\n}",
  "sourcePath": "C:\\Users\\Philip\\Desktop\\Fake-Product-Detection\\contracts\\System.sol",
  "compiler": {
    "name": "solc",
    "version": "0.5.16+commit.9c3226ce.Emscripten.clang"
  },
  "schemaVersion": "3.4.13",
  "updatedAt": "2023-03-15T00:05:27.795Z",
  "networkType": "ethereum",
  "devdoc": {
    "methods": {}
  },
  "userdoc": {
    "methods": {}
  }
}